:100000000C9463040C948B040C948B040C94B10C2E
:100010000C94B10C0C94B10C0C948B040C948B04C8
:100020000C948B040C948B040C948B040C948B0414
:100030000C948B040C948B040C948B040C948B0404
:100040000C942D080C948B040C94E4060C94BE06BE
:100050000C948B040C948B040C948B040C948B04E4
:100060000C94410D0C948B0400001021204230634D
:10007000408450A560C670E781089129A14AB16B00
:10008000C18CD1ADE1CEF1EF1231021032732252A8
:1000900052B5429472F762D693398318B37BA35A50
:1000A000D3BDC39CF3FFE3DE246234430420140178
:1000B00064E674C744A45485A56AB54B85289509A0
:1000C000E5EEF5CFC5ACD58D365326721611063048
:1000D00076D766F6569546B4B75BA77A97198738F0
:1000E000F7DFE7FED79DC7BC48C458E5688678A708
:1000F0000840186128023823C9CCD9EDE98EF9AF40
:1001000089489969A90AB92B5AF54AD47AB76A96E7
:100110001A710A503A332A12DBFDCBDCFBBFEB9E8F
:100120009B798B58BB3BAB1A6CA67C874CE45CC5B7
:100130002C223C030C601C41EDAEFD8FCDECDDCDDF
:10014000AD2ABD0B8D689D497E976EB65ED54EF487
:100150003E132E321E510E70FF9FEFBEDFDDCFFC2F
:10016000BF1BAF3A9F598F78918881A9B1CAA1EB83
:10017000D10CC12DF14EE16F108000A130C220E3FF
:10018000500440257046606783B99398A3FBB3DAA7
:10019000C33DD31CE37FF35E02B1129022F332D24F
:1001A0004235521462777256B5EAA5CB95A8858977
:1001B000F56EE54FD52CC50D34E224C314A004819F
:1001C0007466644754244405A7DBB7FA879997B847
:1001D000E75FF77EC71DD73C26D336F2069116B0EF
:1001E0006657767646155634D94CC96DF90EE92F07
:1001F00099C889E9B98AA9AB58444865780668273F
:1002000018C008E1388228A3CB7DDB5CEB3FFB1EE6
:100210008BF99BD8ABBBBB9A4A755A546A377A168E
:100220000AF11AD02AB33A92FD2EED0FDD6CCD4DB6
:10023000BDAAAD8B9DE88DC97C266C075C644C45DE
:100240003CA22C831CE00CC1EF1FFF3ECF5DDF7C86
:10025000AF9BBFBA8FD99FF86E177E364E555E742E
:100260002E933EB20ED11EF000003331666255531C
:10027000CCC4FFF5AAA6999789A9BA98EFCBDCFA66
:10028000456D765C230F103E037330426511562096
:10029000CFB7FC86A9D59AE48ADAB9EBECB8DF8946
:1002A000461E752F207C134D06E635D7608453B566
:1002B000CA22F913AC409F718F4FBC7EE92DDA1C26
:1002C000438B70BA25E916D8059536A463F750C656
:1002D000C951FA60AF339C028C3CBF0DEA5ED96F06
:1002E00040F873C9269A15AB0DCC3EFD6BAE589FF6
:1002F000C108F239A76A945B8465B754E207D13626
:1003000048A17B902EC31DF20EBF3D8E68DD5BECD5
:10031000C27BF14AA41997288716B427E174D24505
:100320004BD278E32DB01E810B2A381B6D485E79C5
:10033000C7EEF4DFA18C92BD8283B1B2E4E1D7D0E5
:100340004E477D7628251B1408593B686E3B5D0A95
:10035000C49DF7ACA2FF91CE81F0B2C1E792D4A3C5
:100360004D347E052B5618671B9828A97DFA4ECB75
:10037000D75CE46DB13E820F9231A100F453C762A5
:100380005EF56DC438970BA618EB2BDA7E894DB855
:10039000D42FE71EB24D817C9142A273F720C41185
:1003A0005D866EB73BE408D51D7E2E4F7B1C482D25
:1003B000D1BAE28BB7D884E994D7A7E6F2B5C18465
:1003C00058136B223E710D401E0D2D3C786F4B5E15
:1003D000D2C9E1F8B4AB879A97A4A495F1C6C2F745
:1003E0005B6068513D020E33165425657036430735
:1003F000DA90E9A1BCF28FC39FFDACCCF99FCAAEE5
:1004000053396008355B066A152726167345407414
:10041000D9E3EAD2BF818CB09C8EAFBFFAECC9DDC4
:10042000504A637B3628051910B2238376D045E104
:10043000DC76EF47BA148925991BAA2AFF79CC48A4
:1004400055DF66EE33BD008C13C120F075A34692D4
:10045000DF05EC34B9678A569A68A959FC0ACF3B84
:1004600056AC659D30CE03FF000037306E605950AA
:10047000DCC0EBF0B2A08590A9A19E91C7C1F0F1BC
:10048000756142511B012C31436374532D031A33A0
:100490009FA3A893F1C3C6F3EAC2DDF284A2B3928C
:1004A0003602013258626F5286C6B1F6E8A6DF9670
:1004B0005A066D36346603562F671857410776374C
:1004C000F3A7C4979DC7AAF7C5A5F295ABC59CF540
:1004D00019652E55770540356C045B34026435543C
:1004E000B0C487F4DEA4E9941DAD2A9D73CD44FD0C
:1004F000C16DF65DAF0D983DB40C833CDA6CED5CDC
:1005000068CC5FFC06AC319C5ECE69FE30AE079EC7
:10051000820EB53EEC6EDB5EF76FC05F990FAE3FAB
:100520002BAF1C9F45CF72FF9B6BAC5BF50BC23BA7
:1005300047AB709B29CB1EFB32CA05FA5CAA6B9AAB
:10054000EE0AD93A806AB75AD808EF38B6688158A7
:1005500004C833F86AA85D9871A946991FC928F99B
:10056000AD699A59C309F4393B5A0C6A553A620A83
:10057000E79AD0AA89FABECA92FBA5CBFC9BCBAB6B
:100580004E3B790B205B176B78394F09165921695F
:10059000A4F993C9CA99FDA9D198E6A8BFF888C85B
:1005A0000D583A6863385408BD9C8AACD3FCE4CC3F
:1005B000615C566C0F3C380C143D230D7A5D4D6D1B
:1005C000C8FDFFCDA69D91ADFEFFC9CF909FA7AFFF
:1005D000223F150F4C5F7B6F575E606E393E0E0EEB
:1005E0008B9EBCAEE5FED2CE26F711C748977FA7FB
:1005F000FA37CD079457A3678F56B866E136D6060B
:10060000539664A63DF60AC6659452A40BF43CC406
:10061000B9548E64D734E004CC35FB05A2559565FA
:1006200010F527C57E9549A5A0319701CE51F961F6
:100630007CF14BC1129125A109903EA067F050C0FA
:10064000D550E260BB308C00E352D4628D32BA02E6
:100650003F9208A251F266C24AF37DC3249313A3CA
:100660009633A103F853CF63000076B4ED689BDCAA
:10067000CAF1BC452799512D85C3F37768AB1E1F7E
:100680004F323986A25AD4EE1BA76D13F6CF807B6A
:10069000D156A7E23C3E4A8A9E64E8D0730C05B866
:1006A00054952221B9FDCF49374E41FADA26AC9252
:1006B000FDBF8B0B10D76663B28DC4395FE529513E
:1006C000787C0EC89514E3A02CE95A5DC181B7353A
:1006D000E61890AC0B707DC4A92ADF9E444232F626
:1006E00063DB156F8EB3F8076E9C182883F4F54012
:1006F000A46DD2D949053FB1EB5F9DEB06377083FE
:1007000021AE571ACCC6BA72753B038F9853EEE7E9
:10071000BFCAC97E52A22416F0F8864C1D906B24E5
:100720003A094CBDD761A1D559D22F66B4BAC20ED1
:100730009323E5977E4B08FFDC11AAA5317947CDBD
:1007400016E06054FB888D3C427534C1AF1DD9A9B9
:100750008884FE3065EC1358C7B6B1022ADE5C6AA5
:100760000D477BF3E02F969BDD38AB8C305046E491
:1007700017C9617DFAA18C1558FB2E4FB593C3277D
:10078000920AE4BE7F6209D6C69FB02B2BF75D4369
:100790000C6E7ADAE10697B2435C35E8AE34D88065
:1007A00089ADFF1964C51271EA769CC2071E71AA51
:1007B00020875633CDEFBB5B6FB5190182DDF4693D
:1007C000A544D3F0482C3E98F1D187651CB96A0D39
:1007D0003B204D94D648A0FC741202A6997AEFCE25
:1007E000BEE3C857538B253FB3A4C5105ECC287811
:1007F00079550FE1943DE289366740D3DB0FADBBFD
:10080000FC968A2211FE674AA803DEB7456B33DFE8
:1008100062F214468F9AF92E2DC05B74C0A8B61CE4
:10082000E73191850A597CED84EAF25E69821F36D0
:100830004E1B38AFA373D5C70129779DEC419AF5BC
:10084000CBD8BD6C26B050049F4DE9F972250491B8
:1008500055BC2308B8D4CE601A8E6C3AF7E68152A4
:10086000D07FA6CB3D174BA300000000240027003B
:100870002A00000000080002010000030407000035
:1008800000000000000000000000250028002B00F0
:1008900000000000230026002900040404040404CE
:1008A000040402020202020203030303030301021F
:1008B00004081020408001020408102001020408EE
:1008C00010207F1D751D11241FBECFEFD8E0DEBFA5
:1008D000CDBF11E0A0E0B1E0E8E3F6E402C005908E
:1008E0000D92A838B107D9F726E0A8E8B1E001C019
:1008F0001D92A539B207E1F714E0C2E6D4E004C0C6
:100900002197FE010E942120C136D107C9F70E941C
:1009100090120C940F230C940000FC01918D828D99
:10092000981761F0828DDF01A80FB11D5D968C9143
:10093000928D9F5F9F73928F90E008958FEF9FEF4E
:100940000895FC01918D828D981731F0828DE80F0A
:10095000F11D858D90E008958FEF9FEF0895FC01C4
:10096000918D228D892F90E0805C9F4F821B910991
:100970008F739927089584E893E00E94AF0421E0E3
:10098000892B09F420E0822F0895FC01848DDF017A
:10099000A80FB11DA35ABF4F2C91848D90E00196F2
:1009A0008F739927848FA689B7892C93A089B189E1
:1009B0008C9180648C93938D848D981306C00288EB
:1009C000F389E02D80818F7D80830895EF92FF92DF
:1009D0000F931F93CF93DF93EC0181E0888F9B8D62
:1009E0008C8D981305C0E889F989808185FD24C024
:1009F000F62E0B8D10E00F5F1F4F0F731127E02EA7
:100A00008C8DE8120CC00FB607FCFACFE889F98983
:100A1000808185FFF5CFCE010E94C504F1CF8B8D7B
:100A2000FE01E80FF11DE35AFF4FF0820B8FEA89B8
:100A3000FB898081806207C0EE89FF896083E88935
:100A4000F98980818064808381E090E0DF91CF919B
:100A50001F910F91FF90EF900895CF93DF93EC01DA
:100A6000888D8823C9F0EA89FB89808185FD05C0CE
:100A7000A889B9898C9186FD0FC00FB607FCF5CF08
:100A8000808185FFF2CFA889B9898C9185FFEDCF50
:100A9000CE010E94C504E7CFDF91CF91089580E099
:100AA00090E0892B29F00E94BB0481110C94000076
:100AB00008958091180390E020911903821B9109F9
:100AC000089520918A0130918B012817390771F41C
:100AD0009091880180918901981741F0E0918801F7
:100AE000F0E0E757FD4F808190E008958FEF9FEF92
:100AF000089508951F93CF93DF93DC015C962D91A9
:100B00003C915D972115310539F481E090E0139611
:100B10009C938E9312973DC05196ED91FC91529704
:100B200050969C915097892F80951FB75E964C9157
:100B30005E9741FB772770F941FD6095F8944081FD
:100B4000772311F0492B01C048234083E901219705
:100B5000F1F748E0508160FF02C0592B01C05823D3
:100B60005083E9012197F1F76695415099F7772372
:100B700021F090818923808303C08081982B90830A
:100B80001FBF5C968D919C915D970197F1F721E0D5
:100B900030E0C901DF91CF911F91089520918A0122
:100BA00030918B012817390771F4809189012091C8
:100BB000880190E0805C9F4F821B910960E470E0A7
:100BC0000E949E1E089580E090E0089520918A0181
:100BD00030918B0128173907B9F4909188018091E1
:100BE0008901981789F0E0918801F0E0E757FD4FFF
:100BF00080812091880130E02F5F3F4F2F73332792
:100C00002093880190E008958FEF9FEF089585ED80
:100C10008093BC008091BC0084FDFCCF10926003E7
:100C2000089540916402262F30E0240F311D2132B7
:100C30003105DCF4209160032430C9F4FC0180E02C
:100C400090E0861758F4309164022191DC01AE5B8C
:100C5000BD4FA30FB11D2C930196F3CF8091640279
:100C6000680F6093640280E0089581E0089582E057
:100C700008950895E091190380911803E81730F45E
:100C8000F0E0E65EFC4F808190E008958FEF9FEFEB
:100C900008959091190380911803981750F4E92F43
:100CA000F0E0E65EFC4F208130E09F5F90931903F7
:100CB00002C02FEF3FEFC9010895CF92DF92EF926C
:100CC000FF920F931F93CF93DF937C01262F972FD3
:100CD0008A0180918303882391F0C62FD72F6E015C
:100CE000C40ED51ECC15DD0571F06991D701ED91CB
:100CF000FC910190F081E02DC7010995F3CF642F9D
:100D0000822F0E941106C801DF91CF911F910F9190
:100D1000FF90EF90DF90CF900895CF93DF931F92D5
:100D2000CDB7DEB76983209183032223D1F02091D0
:100D30008103203240F021E030E0FC013383228344
:100D400080E090E015C080918203E82FF0E0EF5939
:100D5000FC4F998190838F5F8093820380938103FE
:100D600005C061E0CE0101960E94110681E090E08D
:100D70000F90DF91CF9108950E949A211F920F92B8
:100D80000FB60F9211242F933F934F935F936F935E
:100D90007F938F939F93AF93BF93EF93FF9384E8D9
:100DA00093E00E94C504FF91EF91BF91AF919F9195
:100DB0008F917F916F915F914F913F912F910F9004
:100DC0000FBE0F901F9018951F920F920FB60F92A3
:100DD00011242F938F939F93EF93FF93E0919403AC
:100DE000F09195038081E0919A03F0919B0382FD3D
:100DF00012C0908180919D038F5F8F7320919E031D
:100E0000821751F0E0919D03F0E0EC57FC4F958F75
:100E100080939D0301C08081FF91EF919F918F91FD
:100E20002F910F900FBE0F901F90189590E0FC012E
:100E3000EE58F74F3491FC01E255F74F2491FC0135
:100E4000E656F74FE491EE2309F43BC0332339F122
:100E5000333091F038F43130A9F0323001F584B5F7
:100E60008F7D12C0373091F03830A1F03430B9F4B2
:100E7000809180008F7D03C0809180008F77809368
:100E800080000DC084B58F7784BD09C08091B0000B
:100E90008F7703C08091B0008F7D8093B000F0E029
:100EA000EE0FFF1FEA57F74FA591B4918FB7F89453
:100EB000EC91611103C020952E2301C02E2B2C93A1
:100EC0008FBF0895CF93DF9390E0FC01E255F74F79
:100ED0002491FC01E656F74F8491882361F190E05C
:100EE000880F991FFC01E859F74FC591D491FC0177
:100EF000EA57F74FA591B491611109C09FB7F894D3
:100F00008881209582238883EC912E230BC0623048
:100F100061F49FB7F8943881822F8095832388836A
:100F2000EC912E2B2C939FBF06C08FB7F894E881CD
:100F30002E2B28838FBFDF91CF91089582309105AA
:100F400038F0880F991F880F991F05970197F1F7BF
:100F500008953FB7F8948091CE029091CF02A0916E
:100F6000D002B091D10226B5A89B05C02F3F19F041
:100F70000196A11DB11D3FBFBA2FA92F982F882719
:100F8000820F911DA11DB11DBC01CD0142E0660F74
:100F9000771F881F991F4A95D1F708958F929F92C6
:100FA000AF92BF92CF92DF92EF92FF926B017C01E2
:100FB0000E94A9074B015C01C114D104E104F104B2
:100FC000F1F00E94A907DC01CB0188199909AA094F
:100FD000BB09883E9340A105B10570F321E0C21A18
:100FE000D108E108F10888EE880E83E0981EA11C64
:100FF000B11CC114D104E104F10419F7DDCFFF9055
:10100000EF90DF90CF90BF90AF909F908F9008951A
:10101000CF93DF93EC0188810E94160F8EA190E0A0
:10102000805B9F4F0E94110F82E08FAF0E94200FC4
:101030000E94A9076BAF7CAF8DAF9EAFDF91CF91C0
:1010400008952FB7F8946091CA027091CB028091F5
:10105000CC029091CD022FBF08951F920F920FB630
:101060000F9211242F933F938F939F93AF93BF932E
:101070008091CA029091CB02A091CC02B091CD0296
:101080003091C90223E0230F2D3720F40196A11DD2
:10109000B11D05C026E8230F0296A11DB11D2093A6
:1010A000C9028093CA029093CB02A093CC02B09362
:1010B000CD028091CE029091CF02A091D002B0914A
:1010C000D1020196A11DB11D8093CE029093CF0253
:1010D000A093D002B093D102BF91AF919F918F9115
:1010E0003F912F910F900FBE0F901F901895EF9288
:1010F000FF920F931F93CF93DF9300D0CDB7DEB74E
:101100007C018901FC0180814A8369830E94160F5A
:10111000698189E694E00E948D060E94200FF70104
:1011200080810E94160F4A81642F413208F060E2EC
:10113000F70180810E947D0F10921903809318039C
:1011400078019091180380911903981741F089E66E
:1011500094E00E944906F70181937F01F2CF0F903E
:101160000F90DF91CF911F910F91FF90EF900C9412
:10117000200FCF93DF9300D0CDB7DEB7FC01808185
:101180004A8369830E94160F698189E694E00E9470
:101190008D064A81642F89E694E00E948D060F90A7
:1011A0000F90DF91CF910C94200FCF93DF93EC0140
:1011B00088810E94160F8DA190E0805C9F4F0E9455
:1011C000110F81E08FAF0E94200F0E94A9076BAF23
:1011D0007CAF8DAF9EAFDF91CF910895CF92DF921C
:1011E000EF92FF92CF93DF93EC018FAD823019F035
:1011F000CE010E9408080E94A907CBACDCACEDAC84
:10120000FEACDC01CB018C199D09AE09BF092BA1F5
:101210003CA16901E12CF12C8C159D05AE05BF05A3
:1012200030F4A901481B590BCA010E949E07CE0148
:10123000DF91CF91FF90EF90DF90CF900C94C10F92
:101240002F923F924F925F926F927F928F929F92D6
:10125000AF92BF92CF92DF92EF92FF920F931F93C4
:10126000CF93DF93CDB7DEB7A7970FB6F894DEBF65
:101270000FBECDBF9FA38EA3B62E4D8BDC01DF9694
:101280008C91DF97813019F0CD010E94D5080E9422
:10129000A907EEA1FFA103AD14AD25AD36ADDC016C
:1012A000CB01801B910BA20BB30B21A132A16901D1
:1012B000E12CF12C8C159D05AE05BF0530F4A9017C
:1012C000481B590BCA010E949E078EA19FA10E9434
:1012D000C10FAEA1BFA11B966D937D938D939C937F
:1012E0001E97B1105DC0CD010E94EE08EEA1FFA1D6
:1012F0006787708B818B928B238D348D890120E0E1
:1013000030E0322F212F102F0027601B710B820B32
:10131000930B258D368D17A210A611A612A640E0BC
:1013200050E00E94131F122FD32EE42EB52FF62F5C
:10133000E72FF82E092FA0E00E94012084F421500D
:10134000310940485F4F6F4F7F4F8F4F9F4F122F94
:10135000D32EE42EB52FF62FE72FF82E092F212FAD
:101360003D2D4E2D5B2F6F2F7E2F8F2D902F07E160
:101370000E94C51F49015A01C501B4016053784F4D
:101380008F4F9F4F0E94A62120E030E048EC52E4AE
:101390000E949420EEA1FFA16383748385839683CA
:1013A000AEA1BFA11B962D913D914D915C911E97D1
:1013B000298B3A8B4B8B5C8B5B968D919C915C97C8
:1013C000A0E0B0E0BA2FA92F982F8827EEA1FFA1A7
:1013D0004784508861887288481A590A6A0A7B0AC9
:1013E000018CF28DE02DAEA1BFA155968D909C9001
:1013F0005697940140E050E060E070E080E090E0BB
:1014000000E10E94AC1FF22E132F1A0169837D8325
:101410004C019F0140E050E0C301B2010E94131F44
:10142000B22EE32E042FB52FF62FE72FD82EA92E9C
:10143000A0E00E9401205CF4AFE70E94EC1FB22EF6
:10144000E32E042FB52FF62FE72FD82EA92E2B2D04
:101450003E2D402F5B2F6F2F7E2F8D2D9A2D07E075
:101460000E94C51F59016A01E62EF72F082FE92FA8
:101470002F2D312FA10169817D81C401FF2E1E2FE7
:101480000E94E31F2E8B3F8B488F598F6A8F7B8F73
:101490008C8F9D8FEEA1FFA1638974890789108DC0
:1014A00080E090E020E030E840E050E00E94221F21
:1014B00079014983252E362E872E982EA92E980144
:1014C00040E050E0C301B2010E94131F8901C42E05
:1014D000B52FF62FE72FB82ED92EA0E00E940120BD
:1014E0007CF421503F4F4F4F5F4F6F4F7F4F8F4FD7
:1014F0009F4F8901C42EB52FF62FE72FB82ED92E76
:1015000098014C2D5B2F6F2F7E2F8B2D9D2D08E08A
:101510000E94C51FB22FB32E6A01A62F172F082FC6
:10152000F92F97014981522D632D782D892D9A2D00
:10153000AB2EEA2EF12E1F2F0E94E31F2E8F3F8F1E
:1015400048A359A36AA37BA38CA39DA3AEA1BFA16B
:101550005D962D913C915E9740E050E0C301B20151
:101560000E94131FF22E032F142FB52FF62FE72FF3
:10157000D82EE92EA0E00E94012084F421503109E8
:1015800040485F4F6F4F7F4F8F4F9F4FF22E032F7B
:10159000142FB52FF62FE72FD82EE92E2F2D302F11
:1015A000412F5B2F6F2F7E2F8D2D9E2D07E10E94E7
:1015B000C51F49015A0124013501B0ED4B0EB7E0BA
:1015C0005B1E611C711CEEA1FFA113A614A615A63B
:1015D00016A617A610AA11AA12AA13AA14AA15AA27
:1015E00016AA17AA10AE11AE12AEF0ED4F16F7E024
:1015F0005F06610471040CF0E0C0A5019401C5010F
:10160000B4010E94C3229B01AC01A5E0B0E00E949E
:10161000F5229B01AC0155954795379527952D836C
:101620003E834F8358879B01AC01550F220B322F0D
:10163000A90129833A834B835C83ED81AEA1BFA1CD
:101640009B96EC939B97FE819C96FC939C972F8195
:101650009D962C939D9738859E963C939E974981A5
:101660009F964C939F97D0964C93D097E42FD1960A
:101670004C93D197D2964C93D2979B01AC0112E038
:1016800055954795379527951A95D1F729873A8724
:101690004B875C87D3962C93D397D4963C93D4975F
:1016A000D5964C93D597D6965C93D697D796EC93D0
:1016B000D797D896EC93D897D996EC93D997DA9692
:1016C000EC9394E249169AEF59069FEF6906790662
:1016D0000CF073C0C501B4016455724F8F4F9F4F1A
:1016E0009B01AC010E94C3222B013C01A7E0B0E0AA
:1016F0009B01AC010E94F5227B018C019B01AC0196
:10170000550F220B322FA9012D873E874F87588B0B
:101710002D813E814F8158856E2F7E2F862F9E2FE3
:1017200057016801ED84FE2C0E2D1E2D0E94E31F33
:10173000AEA1BFA19B962C939B979C963C939C97A4
:101740009D964C939D979E965C939E979F966C93C7
:101750009F97D0967C93D097D1968C93D197D29621
:101760009C93ABE0B0E0A30192010E94F5227B01C3
:101770008C0115950795F794E7942B013C01770CA4
:101780004408542C320129853A854B855C856E2F9F
:101790007E2F862F9E2F57016801E42CF42C042DF8
:1017A000142D0E94E31FEEA1FFA123AB34AB45AB88
:1017B00056AB67AB70AF81AF92AF29893A894B893D
:1017C0005C8919012A012E8D3F8D48A159A16AA17A
:1017D0007BA18CA19DA1AEA1BFA1D396AC90D397C4
:1017E000D496BC90D497D596CC90D597D696DC90CD
:1017F000D697D796EC90D797D896FC90D897D9964D
:101800000C91D997DA961C910E94F81F59016A0130
:101810007B018C019101A20160E070E080E090E02A
:101820000E94BA1E122FD32EE42EB52FF62FE72FCB
:10183000F82E092FA0E00E94012084F421503109E4
:10184000404E5F4F6F4F7F4F8F4F9F4F122FD32EC2
:10185000E42EB52FF62FE72FF82E092F212F3D2D3F
:101860004E2D5B2F6F2F7E2F8F2D902F05E10E9425
:10187000C51F49013A01B62FA72F582E492E2E8990
:101880003F89488D598D6A8D7B8D8C8D9D8DEEA104
:10189000FFA1A3A4B4A4C5A4D6A4E7A4F0A801A959
:1018A00012A90E94F81F59016A017B018C01940161
:1018B000A3016B2F7A2F852D942D0E94F81F0E9473
:1018C0003C2120E030E040E058E30E940522AEA138
:1018D000BFA117966D937D938D939C931A97119644
:1018E0008D919C911297019612969C938E931197CD
:1018F000BD898EA19FA1BB23D1F0A7960FB6F89406
:10190000DEBF0FBECDBFDF91CF911F910F91FF9032
:10191000EF90DF90CF90BF90AF909F908F907F908F
:101920006F905F904F903F902F900C94D508A796A2
:101930000FB6F894DEBF0FBECDBFDF91CF911F91E0
:101940000F91FF90EF90DF90CF90BF90AF909F905E
:101950008F907F906F905F904F903F902F900C945E
:1019600008081F920F920FB60F9211242F933F93E6
:101970004F935F936F937F938F939F93AF93BF9397
:10198000EF93FF93E0918A01F0918B01309709F476
:1019900051C0968DA685B785858591FF04C09C9121
:1019A000892329F447C09C91892309F043C0A38966
:1019B000B4899C918589809589238C9386899789A0
:1019C0000197F1F7608D718DA685B785558538E053
:1019D00020E0CB010197F1F7822F90E09595879554
:1019E000282F4C91452309F02068315091F7868DBE
:1019F00081FD20958091890190E001968F73992750
:101A000030918801381749F0A0918901B0E0A757BB
:101A1000BD4F2C938093890103C0868D8160868F92
:101A2000828D938D0197F1F7A389B4899C91858963
:101A3000892B8C93FF91EF91BF91AF919F918F91E3
:101A40007F916F915F914F913F912F910F900FBEBA
:101A50000F901F901895E0918A01F0918B01E81783
:101A6000F90769F4A389B4899C91858980958923B4
:101A70008C9310928B0110928A0181E0089580E08E
:101A800008951F920F920FB60F9211242F933F9338
:101A90004F935F936F937F938F939F93AF93BF9376
:101AA000EF93FF938091B900887F803609F49CC042
:101AB00068F5883209F45BC090F4803109F454C0B1
:101AC00038F4882309F4F6C0883009F44DC0F6C014
:101AD000883109F44CC0803209F45DC0EFC0803415
:101AE00009F468C048F4803309F455C0883309F01C
:101AF000E5C080935E03D8C0803509F44FC08835B7
:101B000009F45DC0883409F0D9C0D6C0883909F419
:101B1000C7C0A8F4883709F467C038F4883609F4D8
:101B200063C0803709F460C0C9C0883809F4B8C000
:101B3000803909F45FC0803809F0C0C05BC0803BC9
:101B400009F486C038F4803A09F466C0883A09F48A
:101B50007FC0B4C0803C09F4A7C0883C09F4A4C08D
:101B6000883B09F48AC0AAC080913B0310C09091C1
:101B70005D0380915C03981770F5E0915D0381E04F
:101B80008E0F80935D03F0E0E45CFC4F80818093D6
:101B9000BB0085EC86C080935E038EC0E0915D0340
:101BA00081E08E0F80935D038091BB00F0E0E45CE8
:101BB000FC4F808390915D0380915C036EC0E09147
:101BC0005D0381E08E0F80935D038091BB00F0E0A8
:101BD000E45CFC4F808380915F0381116DC081E0E4
:101BE00080933A0384EA61C083E08093600310929B
:101BF0008802CFCF80918802803208F051C0E091F6
:101C0000880281E08E0F809388028091BB00F0E013
:101C1000E859FD4F8083BDCF85EC8093BC001092C6
:101C2000600380918802803230F4E0918802F0E015
:101C3000E859FD4F10826091880270E0E0916602E1
:101C4000F091670288E692E009951092880236C00A
:101C500084E0809360031092650210926402E09128
:101C60006202F0916302099580916402811105C0BE
:101C700081E08093640210924202E091650281E06B
:101C80008E0F80936502F0E0EE5BFD4F80818093C4
:101C9000BB009091650280916402981708F479CF97
:101CA00085E88093BC000AC085EC8093BC0010924C
:101CB000600304C010925E030E940706FF91EF913B
:101CC000BF91AF919F918F917F916F915F914F9154
:101CD0003F912F910F900FBE0F901F90189510926B
:101CE000600381E080935F0310923A0361E082E138
:101CF0000E94160761E083E10E941607E9EBF0E01D
:101D000080818E7F808380818D7F808388E4809333
:101D1000B80085E48093BC000895CF93DF93EC0175
:101D200080E090E5A3ECB7E48F8F98A3A9A3BAA3B2
:101D300084EF9DEFA4EDBBEB8BA39CA3ADA3BEA34F
:101D400080E090E0A5E9B3E48FA398A7A9A7BAA77C
:101D50001BA61CA61DA61EA684E797E0A5E0B1E47D
:101D60008FA798ABA9ABBAAB80EC96E4ADEEBCE321
:101D70008BAB9CABADABBEAB8AE098EEACE1B1E413
:101D80008FAB98AFA9AFBAAF6883109219031092C6
:101D9000180310928203109281030E946F0E1E8E10
:101DA0001D8EDF91CF910895CF93883080F4C82F96
:101DB00080E70E94160F81E090E002C0880F991F13
:101DC000CA95E2F70E94110FCF910C94200FCF918A
:101DD0000895E4E8F3E0A089B18982E08C93A485BA
:101DE000B5851C92A685B78580E18C93108EA48959
:101DF000B58986E08C93A289B3898C9180618C939C
:101E0000A289B3898C9188608C93A289B3898C91C3
:101E100080688C930288F389E02D80818F7D808398
:101E20000895682F89E694E00C948D0691E09093D4
:101E30008303809394061092820310928103089585
:101E40002091810390919406213208F04AC080913C
:101E500060038111FCCF32E03093600331E03093B6
:101E60005F033FEF30935E0310925D0320935C03AA
:101E7000A1E6B3E04CE353E0FA013E2F341B3217E6
:101E800018F43D913193F9CF10923B0320913B031D
:101E9000990F922B90933B0390913A03913061F408
:101EA00010923A0390913B039093BB009091BC0039
:101EB00093FDF8CF95EC01C095EE9093BC00909106
:101EC00060039230E1F390915E039F3F79F080913F
:101ED0005E03803241F080915E03803331F084E014
:101EE00005C081E003C082E001C083E0109282035C
:101EF00010928103109283030895909160039111D1
:101F0000FCCF91E09093600390935F032FEF2093B9
:101F10005E0310925D03260F20935C0390933B03B6
:101F200090913B03880F892B80933B0380913A0368
:101F3000813061F410923A0380913B038093BB009F
:101F40008091BC0083FDF8CF85EC01C085EE8093C5
:101F5000BC00809160038130E1F380915D038617BE
:101F600010F460915D03ACE3B3E02AE133E0F901E2
:101F70008E2F821B861718F48D918193F9CF862FAF
:101F800008951F93CF93DF93EC0188810E94160F71
:101F900060E089E694E00E948D060E94200F88810F
:101FA0000E94160F63E088810E947D0F1092190332
:101FB00080931803811101C0FFCF89E694E00E944D
:101FC0004906D82F89E694E00E944906182F89E631
:101FD00094E00E944906C82F0E94200F812F90E0B4
:101FE000A0E0B0E0BA2FA92F982F8827AD2BBC0115
:101FF000CD016C2BDF91CF911F9108958F929F920D
:10200000AF92BF92CF92DF92EF92FF920F93CF9356
:10201000DF93EC010E94EE086F87788B898B9A8B97
:102020002B8D3C8D6901E12CF12CFE2CED2CDC2C50
:10203000CC246C197D098E099F092D8D3E8D1FA220
:1020400018A619A61AA640E050E00E94131FD22E2F
:10205000E32EF42EB52FF62FE72FB82EC92EA0E0D1
:102060000E94012084F42150310940485F4F6F4F96
:102070007F4F8F4F9F4FD22EE32EF42EB52FF62F8A
:10208000E72FB82EC92E2D2D3E2D4F2D5B2F6F2FF4
:102090007E2F8B2D9C2D07E10E94C51F49015A01FF
:1020A000C501B4016053784F8F4F9F4F0E94A62106
:1020B00020E030E048EC52E40E9494206B837C8363
:1020C0008D839E83CE01DF91CF910F91FF90EF9092
:1020D000DF90CF90BF90AF909F908F900C94D508D9
:1020E0008F929F92AF92BF92CF92DF92EF92FF9228
:1020F0006B017C010E9421084B015C01C60ED71EBA
:10210000E81EF91E0E942108681579058A059B05BD
:1021100028F0C616D706E806F906A0F7FF90EF905C
:10212000DF90CF90BF90AF909F908F900895CF9306
:10213000DF9300D000D0CDB7DEB749835A836B83DD
:102140007C83DE011196880F991F880F991FFC016F
:10215000EE52FD4FCE0105962D912193A817B90798
:10216000D9F70F900F900F900F90DF91CF910895B6
:102170004F925F926F927F92EF92FF920F931F9315
:10218000CF93DF93CDB7DEB7A1970FB6F894DEBF3C
:102190000FBECDBF7C01FA01CB0119A2223008F499
:1021A0002AE08E010F5D1F4F422E512C612C712CA5
:1021B000BF01A30192010E94D322F901CA0101507B
:1021C00011096A3014F4605D01C0695CD8016C9338
:1021D000232B242B252B61F7B801C7010E9479120C
:1021E000A1960FB6F894DEBF0FBECDBFDF91CF91A1
:1021F0001F910F91FF90EF907F906F905F904F90A5
:102200000895CF92DF92EF92FF92CF93DF936B010D
:102210007C01E0918403F09185030190F081E02D31
:102220006DE284E893E00995EC0144275527BA0153
:102230004C195D096E097F092AE084E893E00E9449
:10224000B8108C0F9D1FDF91CF91FF90EF90DF9022
:10225000CF900895CF93DF93AC01990F660B770B66
:1022600077FF05C0CB01BA010E94011105C02AE029
:1022700084E893E00E94B810EC0167E471E084E820
:1022800093E00E9479128C0F9D1FDF91CF910895EA
:10229000CF93DF93AB01BC012AE084E893E00E9476
:1022A000B810EC0167E471E084E893E00E947912D1
:1022B0008C0F9D1FDF91CF9108954F925F926F9287
:1022C0007F928F929F92AF92BF92CF92DF92EF92C6
:1022D000FF926B017C019B01AC010E949521882338
:1022E00019F06AE771E01AC046015701E894B7F89F
:1022F0002FEF3FEF4FE75FE7C501B4010E94952143
:10230000811112C02FEF3FEF4FE75FE7C501B40126
:102310000E949F21181644F46EE771E084E893E070
:102320000E9479127C0191C02FEF3FEF4FE75FE4ED
:10233000C701B6010E94902118161CF462E871E0F2
:10234000EDCF2FEF3FEF4FE75FECC701B6010E94E3
:102350009F2187FDF3CF20E030E0A901C701B6013E
:102360000E949F2187FF11C0E0918403F0918503B3
:102370000190F081E02D6DE284E893E009955C0125
:10238000F7FAF094F7F8F09402C0A12CB12C2AE0EF
:1023900037ED43EA5BE3C701B6010E9428202B0119
:1023A0003C010E940D216B017C010E94A4219B0134
:1023B000AC01C301B2010E9427202B013C012AE09D
:1023C000B701A60184E893E00E94B8107C01EA0CF2
:1023D000FB1C66E871E084E893E00E947912E80E45
:1023E000F91E20E030E040E251E4C301B2010E9456
:1023F00005222B013C010E940D214B01A12CB12C87
:102400002AE0B501A40184E893E00E94B810E80E28
:10241000F91EC501B4010E94A4219B01AC01C301B6
:10242000B2010E94272020E030E040E251E40E9407
:1024300005220E940D21AB0160E070E02AE084E8F3
:1024400093E00E94B810E80EF91E67E471E084E89A
:1024500093E00E9479128E0D9F1DFF90EF90DF9008
:10246000CF90BF90AF909F908F907F906F905F9034
:102470004F9008950F931F93CF93DF93EC010E9429
:1024800079128C0167E471E0CE010E947912800F0D
:10249000911FDF91CF911F910F910895CF92DF92FD
:1024A000EF92FF920F931F93CF93DF936C017A010A
:1024B0008B01C0E0D0E0CE15DF0589F0D8016D9129
:1024C0008D01D601ED91FC910190F081E02DC601C6
:1024D0000995892B11F47E0102C02196ECCFC7012A
:1024E000DF91CF911F910F91FF90EF90DF90CF90F0
:1024F00008956115710579F0FB0101900020E9F75D
:102500003197AF01461B570BDC01ED91FC91028026
:10251000F381E02D099480E090E008950C94791205
:10252000CF93DF93CDB7DEB7CC54D1090FB6F89473
:10253000DEBF0FBECDBF789484B5826084BD84B504
:10254000816084BD85B5826085BD85B5816085BDAE
:1025500080916E00816080936E0010928100809166
:1025600081008260809381008091810081608093EE
:102570008100809180008160809380008091B10013
:1025800084608093B1008091B00081608093B0003E
:1025900080917A00846080937A0080917A008260D2
:1025A00080937A0080917A00816080937A00809194
:1025B0007A00806880937A001092C10010926504BE
:1025C000109266041092670410926804109223041B
:1025D00010922404109225041092260468EB7BE0EC
:1025E00080E090E00E94701084E893E0909364048F
:1025F000809363040E94E90E0E94210860932304E3
:1026000070932404809325049093260468E371E07A
:1026100080916304909164040E948E126AE070E0DD
:1026200080E090E00E94701081E0809337040E9467
:10263000E90E1092900610928F0610928E0610925C
:102640008D0610928C0610928B0685E690E0909392
:1026500092068093910690918106963108F057C0BA
:1026600021E230E030938C0620938B0623E630E0A5
:1026700030938E0620938D0622E430E0309390064E
:1026800020938F0620916800983050F031E09E3002
:1026900008F430E081E001C0880F3A95EAF701C004
:1026A00084E0822B80936800983038F09E3040F0B0
:1026B000963148F020E030E008C02DE630E005C05B
:1026C0002BE630E002C02CE630E030938906209300
:1026D0008806983030F481E001C0880F9A95EAF7B7
:1026E0000EC0292F30E09E3018F42850310902C066
:1026F0002E50310981E001C0880F2A95EAF78093B6
:102700008A0680919106909192060197F1F7809147
:102710008F0690919006892B21F180918A019091EA
:102720008B0106E085379007E1F0009711F00E94D9
:102730002B0D809193068E7F8093930610928901D2
:102740001092880185E796E090938B0180938A012F
:10275000E0918806F0918906908180918A06892B04
:1027600080830E942108609330027093310280932D
:102770003202909333020E94A9076093360270934D
:102780003702809338029093390209E715E080E020
:10279000E82E81E0F82ED7018D917D010E94D40EA4
:1027A0009E012F5F3F4F48E150E068E8C8010E945A
:1027B00077086AE471E084E893E00E948E1246E0B4
:1027C00050E0BE016F5F7F4F84E893E00E944E129D
:1027D00069E471E084E893E00E943A128A8190E013
:1027E000982F88272981820F911DF8019683858370
:1027F0008C8190E0982F88272B81820F911D9087E4
:1028000087838E8190E0982F88272D81820F911DDC
:1028100092878187888590E0982F88272F81820F63
:10282000911D948783878A8590E0982F8827298532
:10283000820F911D968785878C8590E0982F882739
:102840002B85820F911D908B87878E8590E0982F26
:1028500088272D85820F911D928B818B888990E02E
:10286000982F88272F85820F911D948B838B8A89BF
:1028700090E0982F88272989820F911D968B858B50
:102880008C8990E0982F88272B89820F911D908F3B
:10289000878B8E8990E0982F88272D89820F911D34
:1028A000928F818F888D90E0982F88272F89820FB3
:1028B000911D948F838F62E571E084E893E00E941C
:1028C0003A12D80115964D915C91169760E070E030
:1028D0002AE084E893E00E94B81067E471E084E89D
:1028E00093E00E947912F801878190850E942A1155
:1028F000D80119968D919C911A970E942A11F8017E
:102900004385548560E070E02AE084E893E00E940B
:10291000B81067E471E084E893E00E947912D8016E
:102920001D968D919C911E970E942A11F801878512
:1029300090890E942A11D80151968D919C915297AD
:102940000E942A11F801838994890E942A11D801D2
:1029500055968D919C9156970E942A11F80187896E
:10296000908D0E942A11D80159968D919C915A9769
:102970000E942A11F801838D948D0E942A1147E547
:1029800064EFC8010E94B90840E065EFC8010E94E9
:10299000B908055C1F4FF6E005361F0709F0FBCEAE
:1029A00094EBE92E94E0F92E20EA822E21E0922E7B
:1029B00005E714E034E0232E31E0332E40E9A42E65
:1029C00041E0B42E5CEB652E51E1752ED5011D92D0
:1029D0001D921D921D925D01F10181911F010E94C6
:1029E000D40E1092190310921803109282031092C1
:1029F00081030E946F0ED8018C910E94160F8EE108
:102A000090E00E94110FF70110820E94200F64E6EF
:102A100070E080E090E00E94CE07C12CD12CD8015C
:102A20008C910E94160F62EA6C0D89E694E00E9478
:102A30008D06F70110820E94200FD8018C910E9410
:102A4000160F62E0F80180810E947D0F1092190339
:102A5000809318039091180380911903981311C063
:102A6000D8014C9150E060E070E02AE084E893E007
:102A70000E94B81067E471E084E893E00E94791244
:102A8000E9CF89E694E00E944906282F89E694E080
:102A90002D962FAF2D970E9449062C968FAF2C971D
:102AA0000E94200FF801EC0DFD1D2D962FAD2D97E6
:102AB000522E412C2C969FAD2C979201292BC901A7
:102AC000948B838B32E0C30ED11C4CE0C416D1042E
:102AD00009F0A5CFF7017A9758E05083E0E5F3E2DB
:102AE000D8019296FC93EE93919790967C926E9279
:102AF0005F97F701799786E0C82EC08294967C9202
:102B00006E92939741E060E0C8010E942009F701AE
:102B1000FE97DE01119682E101900D928A95E1F710
:102B2000FE013196D40182E101900D928A95E1F780
:102B30000F5B1F4F21E4E20EF11C32E1830E911C6A
:102B400040EAA41641E0B40609F040CF05E714E0DE
:102B5000F4E0EF2EF1E0FF2ED7018D917D010E9470
:102B6000D40EC8010E94FE0F0F5B1F4FB5E009375E
:102B70001B0791F70E942108672B682B692B41F4F2
:102B80000E942108623071058105910508F40AC18F
:102B90000E94210860933E0270933F02809340029E
:102BA0009093410200913A0210913B0220913C0225
:102BB00030913D02601771078207930740F46093DC
:102BC0003A0270933B0280933C0290933D02009145
:102BD0003A0210913B0220913C0230913D025B0190
:102BE0006C01A01AB10AC20AD30A960185010A3FF4
:102BF00011052105310508F4D5C060933A027093A0
:102C00003B0280933C0290933D02E4EFCE2EDD2404
:102C1000D394E12CF12CC0922F04D0923004E09296
:102C20003104F09232041092330410923404109262
:102C30003504109236048091270490912804A091C5
:102C40002904B0912A0480932B0490932C04A09320
:102C50002D04B0932E040E942108609327047093E2
:102C600028048093290490932A040E9421086093E9
:102C700023047093240480932504909326040E94D7
:102C800021086B017C016DE571E0809163049091F6
:102C900064040E948E122AE041E050E060E070E09F
:102CA00080916304909164040E94B81064E671E01E
:102CB00080916304909164040E948E122AE0B7010F
:102CC000A60180916304909164040E94B81066E6A6
:102CD00071E080916304909164040E948E1280914F
:102CE000270490912804A0912904B0912A04B701E7
:102CF000A601481B590B6A0B7B0B2AE080916304E9
:102D0000909164040E94B81066E671E080916304BB
:102D1000909164040E948E124091270450912804DF
:102D20006091290470912A0480912B0490912C04C5
:102D3000A0912D04B0912E04481B590B6A0B7B0BFC
:102D40002AE080916304909164040E94B81068E6C0
:102D500071E080916304909164040E948E120E943D
:102D60002108AB01BC012AE08091630490916404C6
:102D70000E94B8106AE671E0809163049091640447
:102D80000E943A1265E070E080E090E00E947010CE
:102D90000E942108609327047093280480932904DB
:102DA00090932A040E94A907C0903602D09037025F
:102DB000E0903802F0903902DC01CB018C199D09BA
:102DC000AE09BF09893E9340A105B10508F066C070
:102DD0000E94A9076C157D058E059F0548F40E9489
:102DE000A90719EEC10E13E0D11EE11CF11C08C0A9
:102DF0000E94A90728EEC20E23E0D21EE11CF11C9E
:102E0000C61AD70AE80AF90AC0928C01D0928D013D
:102E1000E0928E01F0928F0160918C0170918D0192
:102E200080918E0190918F0128EE33E040E050E0D8
:102E30000E94D3226B017C01B901330F880B990BDF
:102E40000E94CE07C6010E949E0725C09093660689
:102E500080936506AC0160E070E0B62FA52F942F3B
:102E60008827AA27BB27452F562F672F7727842B24
:102E7000952BA62BB72B809316039093170346E44C
:102E800050E062ED72E085E796E00E944E121092EB
:102E90003502109234020E944F056CCE0E94A907A1
:102EA0006093360270933702809338029093390210
:102EB00080E9C82E81E0D82E90EAE92E91E0F92E23
:102EC00005E714E024E0A22E21E0B22ED5018D9179
:102ED0005D010E94D40E80913402909135020197D9
:102EE00011F041E001C040E061E0C8010E9420090A
:102EF000F8013196D70182E101900D928A95E1F7B0
:102F0000F7012681378140855185D6016D917D91EC
:102F10008D919C910E942820F60161937193819379
:102F200091936F010F5B1F4FF2E1EF0EF11C25E053
:102F30000937120759F680913402909135020197B2
:102F400079F048EE51E05AAB49AB60E071E07CAB00
:102F50006BAB5BA34AA379E7272E75E0372E9DC3A1
:102F600005E714E064E0E62E61E0F62ED7018D91CE
:102F70007D010E94D40EC8010E94FE0F0F5B1F4FFF
:102F8000B5E009371B0791F7DCCFABA9BCA98C9141
:102F90000E94D40E9E012D5E3F4F46E050E067EF49
:102FA000C1010E9477088F8990E0A0E0B0E0AC01F9
:102FB000BD0194E0440F551F661F771F9A95D1F706
:102FC0009E89892F90E0A0E0B0E02CE0880F991F47
:102FD000AA1FBB1F2A95D1F7840F951FA61FB71FE5
:102FE000488D50E060E070E034E076956795579545
:102FF00047953A95D1F75C016D01A40EB51EC61E2A
:10300000D71EADAABEAACFAAD8AE8B8990E0A0E009
:10301000B0E0BC01552744279C89892F90E0A0E0AF
:10302000B0E0BA2FA92F982F8827840F951FA61FCD
:10303000B71F2D896C017D01C20ED11CE11CF11C52
:103040002396CCAEDDAEEEAEFFAE2397D101159642
:103050008D919C911697A0E0B0E0CDA8DEA8EFA8D6
:10306000F8ACF4E0F594E794D794C794FA95D1F7C7
:10307000C81AD90AEA0AFB0A4DA95EA96FA978AD58
:1030800013E075956795579547951A95D1F7880F71
:10309000991FAA1FBB1F9A01AB01281B390B4A0BB2
:1030A0005B0BF101A781B0850E94B21E4B015C0150
:1030B0008BE0B594A794979487948A95D1F7A7014C
:1030C0009601C701B6010E94C3229B01AC019CE09E
:1030D00055954795379527959A95D1F7A185B2854E
:1030E0000E94B21E2B013C012EE075946794579408
:1030F00047942A95D1F7480C591C6A1C7B1C4182C5
:10310000528263827482A5E0B0E0A30192010E9422
:10311000F522DC01CB0180589F4FAF4FBF4FA92E46
:10312000BA2ECB2EDD24C7FCDA942796ACAEBDAE0A
:10313000CEAEDFAE279775946794579447940AEF05
:10314000501A6108710873016201FF0CCC08DC2C75
:1031500076019201A3016C2D7C2D8C2D9C2D02E01B
:103160000E94C51F59016A017B018C010E94BA1E91
:1031700029A338A749A75AA76BA77CA78DA7892E93
:10318000D1015596BC91B8ABF1019688A388B4885B
:10319000BFA6AEA6C188D288DAAEC9AEE584F684F1
:1031A000FA8EE98EF089D1011F96BC91BCA3EF2F56
:1031B000EE0FEE0B0DE00E94C51F59016A017B0165
:1031C0008C012B2F3F2F4E2F5E2F6E2F7E2F8E2F99
:1031D0009E2F0E94BA1E03E00E94C51FB22EC32E6E
:1031E000D42EE52E6CA37DA38EA39FA3E98DFA8D2B
:1031F0009F01FF0F440B550BC301B2010E94131F27
:1032000001E00E94C51FA22EB32FA42FF52FE62F99
:10321000F72E8C012B2D3C2D4D2D5E2D6CA17DA10B
:103220008EA19FA1BB2ECA2EDF2EEE2E0E94E31F81
:1032300002E10E94C51F30584F4F5F4F6F4F7F4FC5
:103240008F4F9F4FD1011B96ED91FC911C975F0111
:10325000C12CD12CE12CF12C8701E98FBA8ECB8EB9
:10326000DC8EED8EFE8E0F8F18A3C12CD12CE12C9D
:10327000F12C00E010E00E94BA1E0FE00E94C51F72
:103280002CA33DA34EA35FA3A0E00E94012009F45C
:1032900021C229A138A549A55AA56BA57CA58DA554
:1032A000982D0BE00E94C51FA8A8192D110F110B16
:1032B000B92CC12ED12EE12EF12E012F0E94BA1E63
:1032C000D22EE32EF42E152F698F79A34C016EA513
:1032D0007FA59B01770F440B550BC301B2010E94E0
:1032E000131F01E00E94AC1F5901C42EB52FA62F59
:1032F000F72F082FE92F2D2D3E2D4F2D512F698DA2
:1033000079A1C401DB2EEA2EFF2E1E2F0E94E31F9F
:1033100002E00E94C51F29A338A749A7B52FA62FF1
:10332000F72FE82F9AA723960CAD1DAD2EAD3FAD1C
:10333000239748015901C12CD12C760120E030E0BF
:1033400040E051E060E070E080E090E09A8EAB8E6B
:10335000BC8ECD8EDE8EEF8EF8A25401CB8CDC8C31
:10336000E12CF12C00E010E00E94F81F298F3BA710
:103370004CA75DA76EA778AB8BAF9CAF29AD3AADDC
:10338000A901330F660B770B8A01FF24EE24270176
:103390003801770C4408542C320129A138A549A5DD
:1033A0005B2F6A2F7F2F8E2F9AA557016801E42C7F
:1033B000F42C042D142D0E94E31F08E00E94C51F69
:1033C00059016A017B018C01298D3BA54CA55DA5A6
:1033D0006EA578A98BAD9CAD0E94F81F722E832E2E
:1033E000942EB52FA62FF72FE82F592E03E00E9419
:1033F000AC1FA72CB82CC92CDB2EEA2EFF2E0E2FCB
:10340000152D0E94F81F59016A017B01682E192FA2
:1034100003E00E94AC1F062D0E94F81F03E00E94EB
:10342000AC1FA72CB82CC92CDB2EEA2EFF2E0E2F9A
:10343000152D0E94F81F02E00E94AC1F0E2F0E9463
:10344000F81F01E00E94AC1F0E2F0E94F81F3901E7
:103450004A01B62FA72FF82FE92F04E00E94C71FBB
:103460002F3F3F4F4F4F5F47610571058105910524
:1034700011F008F01BC19301A4016B2F7A2F8F2F3D
:103480009E2F01E00E94AC1FACA0BDA0CEA0DFA08B
:10349000E12CF12C00E010E00E944F1F298F3CA38B
:1034A0004DA35EA36FA379A32C01298D3CA14DA14F
:1034B0005EA16FA179A107E00E94C71F28A739A7C5
:1034C0004AA75BA73B01882E9CA7298D3CA14DA153
:1034D0005EA16FA179A1C20106E00E94C71FD101C0
:1034E0005A96BC905A975996AC901B2D110F110B00
:1034F000C12ED12EE12EF12E012F0E94BA1E29AF2E
:1035000038AB4BAF5CAF28966FAF289729967FAF4B
:1035100029972A968FAF2A972B969FAF2B97F10169
:10352000F48DFDA7D1015B96BC91BEA79F2E990C8F
:103530009908A8A4B9A4CAA4DBA47301082D1CA5EA
:103540009501A601B301882D912F0E94BA1E0DE0AE
:103550000E94C71F59016A017B018C012EA53DA560
:10356000492D592D692D792D892D992D0E94BA1E2D
:103570000CE00E94C51F39014A01B62FA72FF82F72
:10358000E92F29AD38A94BAD5CAD28966FAD2897D2
:1035900029967FAD29972A968FAD2A972B969FADB6
:1035A0002B970DE00E94C51F59016A017B018C0118
:1035B0009301A4016B2F7A2F8F2F9E2F0E94E31F60
:1035C000F101B08CA7881B2D110F110BC12ED12E2C
:1035D000E12EF12E012F0E94E31F59016A017B01A8
:1035E0008C01298D3CA14DA15EA16FA179A1C201E1
:1035F0000E94E31F722F632F942F852F9B01F101EF
:10360000458D568DBA016F5F7F4F768F658F2796F8
:10361000ACACBDACCEACDFAC2797AAA1BBA1AD9240
:10362000BD92CD92DC92139714963C931497159605
:103630002C93159716969C93169717968C9317971D
:1036400019965C934E9318972396ACACBDACCEAC58
:10365000DFAC23971A96AD92BD92CD92DC921D9766
:10366000ADA8BEA8CFA8D8AC1E96AD92BD92CD9203
:10367000DC925197BBE32B0E311CEAA1FBA17296A1
:10368000FBA3EAA30BA91CA90F5F1F4F1CAB0BAB3D
:1036900015E6211616E0310611F1E0913402F091A1
:1036A0003502FEAFEDAFEF2B29F76FCCACA0BDA07C
:1036B000CEA0DFA0E12CF12C00E010E09301A401EA
:1036C0006B2F7A2F8F2F9E2F0E944F1F01E00E9499
:1036D000AC1FE4CE30E020E090E080E090CF8DADF4
:1036E0009EAD0196909335028093340204970CF4BA
:1036F000D2CB08EE11E0C12CD12C7601D801149662
:103700006D917D918D919C9117970E94A6219B01AF
:10371000AC01C701B6010E9428206B017C010E5E3E
:103720001F4FB2E000331B0749F700E911E0812C7D
:10373000912C5401F80161917191819191918F01C6
:1037400020E030E040E85EE30E9405229B01AC01EE
:10375000C501B4010E9428204B015C01F1E0003A50
:103760001F0741F761E771E084E893E00E948E1241
:1037700020E030E040E85CE3C701B6010E9405228A
:103780000E945D1166E771E084E893E00E948E126A
:1037900020E030E040E85EE3C501B4010E9405226C
:1037A0000E945D110E9421080091300210913102A7
:1037B0002091320230913302AB01BC01401B510B0E
:1037C000620B730B80E090E00E94971001E010E024
:1037D00078012FEFE21AF20AA9A9BAA94D915D91D9
:1037E0006D917C91C8010E9497100E5F1F4FE9A94F
:1037F000FAA94481558166817781C7010E9497109B
:1038000029A93AA92E5E3F4F3AAB29AB09301105E1
:10381000F9F6E0E9CE2EE1E0DE2EF0EAEF2EF1E05F
:10382000FF2E58013FEFA31AB30A20E030E048EC26
:1038300052E4D70112966D917D918D919C911597CF
:103840000E9405220E940621AB01BC01C8010E9412
:1038500097100E5F1F4F20E030E040E851E4F60182
:1038600060817181828193810E94052220E030E095
:1038700040E85EE30E9405220E940621AB01BC01E4
:10388000C5010E949710D6011D921D921D921D9296
:103890006D01B2E1EB0EF11C0131110511F642EDA3
:1038A00052E08FEF9FEF24E430E0FA01BA01637039
:1038B0007727672BB1F02115310599F0A92FBB2788
:1038C0004F5F5F4F60819927FC01E627EE0FFF1FD6
:1038D000E859FF4F859194918A279B272150310900
:1038E000E4CFDA0189010031110508F4E3C0005189
:1038F00011098D909D90AD90BC90139788259925C6
:10390000FC01FF27EE0FFF1FE859F94FC590D49037
:10391000E92FFF27EE0FFF1FE859FB4F65917491C8
:103920004A2C512C612C712CEFEF5E1A6E0A7E0A24
:10393000F201EE0FFF1FE859FF4F859194918B2CF8
:103940009924AA24BB24F401EE0FFF1FE859FF4F6E
:10395000E590F49014968D909D90AD90BC90179743
:103960006C257D256825792586279727E826F92661
:10397000F701FF27EE0FFF1FE859F94FC590D490CC
:10398000EF2DFF27EE0FFF1FE859FB4F6591749154
:103990004A2C512C612C712CFFEF5F1A6F0A7F0AA1
:1039A000F201EE0FFF1FE859FF4F859194918B2C88
:1039B0009924AA24BB24F401EE0FFF1FE859FF4FFE
:1039C000E590F49018968D909D90AD90BC901B97CB
:1039D0006C257D256825792586279727E826F926F1
:1039E000F701FF27EE0FFF1FE859F94FC590D4905C
:1039F000EF2DFF27EE0FFF1FE859FB4F65917491E4
:103A00004A2C512C612C712C8FEF581A680A780AB5
:103A1000F201EE0FFF1FE859FF4F859194918B2C17
:103A20009924AA24BB24F401EE0FFF1FE859FF4F8D
:103A3000E590F4901C968D909D90AD90BC901F9752
:103A40006C257D2568257925862797278E259F2536
:103A5000FC01FF27EE0FFF1FE859F94FE590F490A6
:103A6000E92FFF27EE0FFF1FE859FB4F6591749177
:103A70004A2C512C612C712C9FEF591A690A790A32
:103A8000F201EE0FFF1FE859FF4F859194918B2CA7
:103A90009924AA24BB24F401EE0FFF1FE859FF4F1D
:103AA000C590D490E626F7268E259F258C259D254A
:103AB000509619CFD901A07FA40FB51F2F703327BF
:103AC0002A0F3B1FA217B30709F4C0C9092F1127FA
:103AD0004D919927FC01E427EE0FFF1FE859FF4F96
:103AE0008591949180279127EDCF8CE291E090937E
:103AF00076068093750685E796E00C942B0D109260
:103B000087031092860388EE93E0A0E0B0E08093F4
:103B1000880390938903A0938A03B0938B032CE0CE
:103B200031E0309385032093840325EC30E030931B
:103B300091032093900324EC30E03093930320937F
:103B4000920320EC30E0309395032093940321EC12
:103B500030E0309397032093960322EC30E03093CB
:103B600099032093980326EC30E030939B03209335
:103B70009A0310929D0310929E0310929F0310923D
:103B8000A003109227041092280410922904109286
:103B90002A0410922B0410922C0410922D041092DF
:103BA0002E0410922F0410923004109231041092BF
:103BB000320410923304109234041092350410929F
:103BC000360410926C0410926B0480936D049093F1
:103BD0006E04A0936F04B09370042CE131E0309335
:103BE0006A042093690410927806109277068093F5
:103BF000790690937A06A0937B06B0937C068CE2BC
:103C000091E0909376068093750610928C06109240
:103C10008B0610928E0610928D06109290061092CE
:103C20008F061092920610929106609193066E7F15
:103C30006D7F609393066695617081E0682789E0E7
:103C40000E94160761E089E00E946207E7EBF8E056
:103C5000E491E0938506E3EAF8E0E491F0E0EE0F0A
:103C6000FF1FEA57F74F85919491909387068093B1
:103C7000860660E088E00E9462078091930681FDDD
:103C800004C061E088E00E94160788E08093810606
:103C9000E6EBF8E0E491E0938206E2EAF8E0E491F2
:103CA000F0E0EE0FFF1FE057F74F8591949190934E
:103CB00084068093830660E086E00E946207E4EB5E
:103CC000F8E0E491E0936706E0EAF8E0E491F0E0E0
:103CD000EE0FFF1FE057F74F85919491909369067F
:103CE0008093680610927206109274061092730602
:103CF000E2E7F6E0129286E0EA36F807D9F767E7DE
:103D000089E795E00E948D0E66E784EB95E00E94BE
:103D10008D0E67E78FEE95E00E948D0E66E78AE2D2
:103D200096E00E948D0E97E79093750486E7809346
:103D3000B6049093F70480933805089597FB072EF7
:103D400016F4009407D077FD09D00E940D2007FCDF
:103D500005D03EF4909581959F4F0895709561959B
:103D60007F4F0895B7FF0C94F5220E94F522821B25
:103D7000930B0895DF93CF931F930F939A9DF02D8C
:103D8000219FF00D8B9DF00D8A9DE02DF10D039F7D
:103D9000F00D029FE00DF11D4E9DE00DF11D5E9DA9
:103DA000F00D4F9DF00D7F936F93BF92AF925F9395
:103DB0004F93D5010E9400238B01AC01D7010E94D3
:103DC0000023EB01E80FF91FD6010E940A1F2F9173
:103DD0003F91D6010E940023C60FD71FE81FF91F8D
:103DE000AF91BF910E940A1F2F913F910E94002323
:103DF000C60FD71FE81FF91FD6010E940023E60F48
:103E0000F71F9801BE01CF0111240F911F91CF918F
:103E1000DF9108950E940023460F571FC81FD91F26
:103E200008F43196089597FB57FF0C94231F9F9336
:103E30008F930E94231F6E1B7F0BAF91BF918A0B44
:103E40009B0B0895E894DF93CF93FC01DB010E9464
:103E500000237F936F93E9019A01AC01BF93AF9365
:103E60003F932F93DF010E94002326F46C1B7D0BF0
:103E7000820B930B9E01EB01FC010E940A1FAF9184
:103E8000BF912F913F910E940A1FBE01CF01F901FE
:103E90002F913F91CF91DF910895689401C0E894EC
:103EA0008F929F92CF93DF930E945B1FDF91CF9100
:103EB0009F908F90089588249924F401E401B0E440
:103EC0009F93AA279A158B049C04ED05FE05CF0548
:103ED000D007A10798F4AD2FDC2FCF2FFE2FE92DAF
:103EE000982C892E982F872F762F652F542F432FAC
:103EF000322F2227B85031F7BF9127C01B2EBF9118
:103F0000BB27220F331F441F551F661F771F881FB3
:103F1000991F881C991CEE1FFF1FCC1FDD1FAA1FB5
:103F2000BB1F8A149B04EC05FD05CE05DF05A00729
:103F3000B10748F08A189B08EC09FD09CE09DF0992
:103F4000A00BB10B21601A94E1F62EF49401AF019D
:103F5000BE01CD01000C08950F93083090F0982F0A
:103F6000872F762F652F542F432F322F222708506B
:103F7000F4CF220F331F441F551F661F771F881F62
:103F8000991F0A95B2F70F91089597FB10F81694B0
:103F900000080F93083098F00850232F342F452F36
:103FA000562F672F782F892F902DF4CF0594979552
:103FB00087957795679557954795379527950A95EE
:103FC000AAF70F9108952A0D3B1D4C1D5D1D6E1D16
:103FD0007F1D801F911F08950024A7FD00942A0FC4
:103FE000301D401D501D601D701D801D901D0895C9
:103FF0002A193B094C095D096E097F09800B910B59
:1040000008950024A7FD00942A17300540055005A7
:1040100060057005800590050895AA1BBB1B51E142
:1040200007C0AA1FBB1FA617B70710F0A61BB70B28
:10403000881F991F5A95A9F780959095BC01CD01CD
:104040000895EE0FFF1F0590F491E02D099450584C
:10405000BB27AA270E943F200C9489220E947B2222
:1040600038F00E94822220F039F49F3F19F426F4A0
:104070000C9478220EF4E095E7FB0C947222E92F61
:104080000E949A2258F3BA176207730784079507AC
:1040900020F079F4A6F50C94BC220EF4E0950B2EDA
:1040A000BA2FA02D0B01B90190010C01CA01A0018A
:1040B0001124FF27591B99F0593F50F4503E68F1E5
:1040C0001A16F040A22F232F342F4427585FF3CF26
:1040D000469537952795A795F0405395C9F77EF4F7
:1040E0001F16BA0B620B730B840BBAF09150A1F040
:1040F000FF0FBB1F661F771F881FC2F70EC0BA0FC6
:10410000621F731F841F48F4879577956795B7954D
:10411000F7959E3F08F0B0CF9395880F08F0992748
:10412000EE0F9795879508950E94A8200C948922F8
:104130000E94822258F00E947B2240F029F45F3FC7
:1041400029F00C94722251110C94BD220C94782207
:104150000E949A2268F39923B1F3552391F3951B9A
:10416000550BBB27AA2762177307840738F09F5F98
:104170005F4F220F331F441FAA1FA9F335D00E2E05
:104180003AF0E0E832D091505040E695001CCAF772
:104190002BD0FE2F29D0660F771F881FBB1F261735
:1041A00037074807AB07B0E809F0BB0B802DBF010C
:1041B000FF2793585F4F3AF09E3F510578F00C94DB
:1041C00072220C94BD225F3FE4F3983ED4F38695AF
:1041D00077956795B795F7959F5FC9F7880F911DFC
:1041E0009695879597F90895E1E0660F771F881FE8
:1041F000BB1F621773078407BA0720F0621B730B9B
:10420000840BBA0BEE1F88F7E09508950E940D21EC
:104210006894B1110C94BD2208950E94A22288F0E6
:104220009F5798F0B92F9927B751B0F0E1F0660F7A
:10423000771F881F991F1AF0BA95C9F714C0B130BB
:1042400091F00E94BC22B1E008950C94BC22672F2B
:10425000782F8827B85F39F0B93FCCF386957795EA
:104260006795B395D9F73EF49095809570956195D3
:104270007F4F8F4F9F4F089597FB16F40E94802128
:104280000C944321E894F92F96EBFF2381F012164A
:1042900013061406440B9395F695879577956795C5
:1042A00057954040FF23B9F71BC0992708958823ED
:1042B00051F49850D2F7872B762F652F542F432F28
:1042C000322F20E0B1F3121613061406440B882394
:1042D0003AF09A95440F551F661F771F881FCAF73B
:1042E00055234AF4440F551F11F460FF04C06F5F5B
:1042F0007F4F8F4F9F4F880F9695879597F9089519
:104300009095809570956095509540953095219544
:104310003F4F4F4F5F4F6F4F7F4F8F4F9F4F0895CE
:104320000E94E12108F48FEF08950E94E121880B9B
:10433000990B089581E090E0F8940C940F230E946B
:10434000E12108F481E00895E89409C097FB3EF468
:1043500090958095709561957F4F8F4F9F4F9923D2
:10436000A9F0F92F96E9BB279395F6958795779550
:104370006795B795F111F8CFFAF4BB0F11F460FF10
:104380001BC06F5F7F4F8F4F9F4F16C0882311F068
:1043900096E911C0772321F09EE8872F762F05C07C
:1043A000662371F096E8862F70E060E02AF09A9517
:1043B000660F771F881FDAF7880F9695879597F90C
:1043C0000895990F0008550FAA0BE0E8FEEF1616A6
:1043D0001706E807F907C0F012161306E407F507F9
:1043E00098F0621B730B840B950B39F40A2661F06D
:1043F000232B242B252B21F408950A2609F4A14010
:10440000A6958FEF811D811D08950E9418220C949E
:1044100089220E947B2238F00E94822220F095237C
:1044200011F00C9472220C94782211240C94BD2269
:104430000E949A2270F3959FC1F3950F50E0551F8B
:10444000629FF001729FBB27F00DB11D639FAA27E9
:10445000F00DB11DAA1F649F6627B00DA11D661F38
:10446000829F2227B00DA11D621F739FB00DA11D59
:10447000621F839FA00D611D221F749F3327A00D13
:10448000611D231F849F600D211D822F762F6A2FAF
:1044900011249F5750409AF0F1F088234AF0EE0F14
:1044A000FF1FBB1F661F771F881F91505040A9F741
:1044B0009E3F510580F00C9472220C94BD225F3F08
:1044C000E4F3983ED4F3869577956795B795F7957D
:1044D000E7959F5FC1F7FE2B880F911D96958795F5
:1044E00097F9089597F99F6780E870E060E0089574
:1044F0009FEF80EC089500240A94161617061806FC
:104500000906089500240A941216130614060506D7
:104510000895092E0394000C11F4882352F0BB0F68
:1045200040F4BF2B11F460FF04C06F5F7F4F8F4FCB
:104530009F4F089557FD9058440F551F59F05F3F06
:1045400071F04795880F97FB991F61F09F3F79F0B5
:1045500087950895121613061406551FF2CF469537
:10456000F1DF08C0161617061806991FF1CF8695B9
:104570007105610508940895E894BB27662777279D
:10458000CB0197F90895DB018F939F930E94F52249
:10459000BF91AF91A29F800D911DA39F900DB29FDF
:1045A000900D11240895A1E21A2EAA1BBB1BFD0138
:1045B0000DC0AA1FBB1FEE1FFF1FA217B307E40702
:1045C000F50720F0A21BB30BE40BF50B661F771F5A
:1045D000881F991F1A9469F760957095809590953A
:1045E0009B01AC01BD01CF0108950E940023A59F4E
:1045F000900DB49F900DA49F800D911D11240895DE
:10460000A29FB001B39FC001A39F700D811D112413
:10461000911DB29F700D811D1124911D089514E00C
:10462000C2E6D4E004C0FE010E9421202196C336D8
:08463000D107C9F7F894FFCF90
:10463800000001010202030300000000E6044E121C
:10464800AF048D04A1042D05000000008D065D0651
:10465800590549063A063906000000007A054E1247
:10466800CE05E60561057905564D4450565F317C07
:10467800315F564D4450560D0A006243616C203D2F
:10468800200043616C2076616C75657300564D445B
:1046980050455F003A323A007C005F564D44504521
:1046A80000626D703A006D733A006E616E00696E5B
:0846B80066006F7666002E001B
:00000001FF
