:100000000C9463040C948B040C948B040C9478096A
:100010000C9478090C9478090C948B040C948B0440
:100020000C948B040C948B040C948B040C948B0414
:100030000C948B040C948B040C948B040C948B0404
:100040000C9414080C948B040C94E4060C94BE06D7
:100050000C948B040C948B040C948B040C948B04E4
:100060000C94080A0C948B04000010212042306389
:10007000408450A560C670E781089129A14AB16B00
:10008000C18CD1ADE1CEF1EF1231021032732252A8
:1000900052B5429472F762D693398318B37BA35A50
:1000A000D3BDC39CF3FFE3DE246234430420140178
:1000B00064E674C744A45485A56AB54B85289509A0
:1000C000E5EEF5CFC5ACD58D365326721611063048
:1000D00076D766F6569546B4B75BA77A97198738F0
:1000E000F7DFE7FED79DC7BC48C458E5688678A708
:1000F0000840186128023823C9CCD9EDE98EF9AF40
:1001000089489969A90AB92B5AF54AD47AB76A96E7
:100110001A710A503A332A12DBFDCBDCFBBFEB9E8F
:100120009B798B58BB3BAB1A6CA67C874CE45CC5B7
:100130002C223C030C601C41EDAEFD8FCDECDDCDDF
:10014000AD2ABD0B8D689D497E976EB65ED54EF487
:100150003E132E321E510E70FF9FEFBEDFDDCFFC2F
:10016000BF1BAF3A9F598F78918881A9B1CAA1EB83
:10017000D10CC12DF14EE16F108000A130C220E3FF
:10018000500440257046606783B99398A3FBB3DAA7
:10019000C33DD31CE37FF35E02B1129022F332D24F
:1001A0004235521462777256B5EAA5CB95A8858977
:1001B000F56EE54FD52CC50D34E224C314A004819F
:1001C0007466644754244405A7DBB7FA879997B847
:1001D000E75FF77EC71DD73C26D336F2069116B0EF
:1001E0006657767646155634D94CC96DF90EE92F07
:1001F00099C889E9B98AA9AB58444865780668273F
:1002000018C008E1388228A3CB7DDB5CEB3FFB1EE6
:100210008BF99BD8ABBBBB9A4A755A546A377A168E
:100220000AF11AD02AB33A92FD2EED0FDD6CCD4DB6
:10023000BDAAAD8B9DE88DC97C266C075C644C45DE
:100240003CA22C831CE00CC1EF1FFF3ECF5DDF7C86
:10025000AF9BBFBA8FD99FF86E177E364E555E742E
:100260002E933EB20ED11EF000003331666255531C
:10027000CCC4FFF5AAA6999789A9BA98EFCBDCFA66
:10028000456D765C230F103E037330426511562096
:10029000CFB7FC86A9D59AE48ADAB9EBECB8DF8946
:1002A000461E752F207C134D06E635D7608453B566
:1002B000CA22F913AC409F718F4FBC7EE92DDA1C26
:1002C000438B70BA25E916D8059536A463F750C656
:1002D000C951FA60AF339C028C3CBF0DEA5ED96F06
:1002E00040F873C9269A15AB0DCC3EFD6BAE589FF6
:1002F000C108F239A76A945B8465B754E207D13626
:1003000048A17B902EC31DF20EBF3D8E68DD5BECD5
:10031000C27BF14AA41997288716B427E174D24505
:100320004BD278E32DB01E810B2A381B6D485E79C5
:10033000C7EEF4DFA18C92BD8283B1B2E4E1D7D0E5
:100340004E477D7628251B1408593B686E3B5D0A95
:10035000C49DF7ACA2FF91CE81F0B2C1E792D4A3C5
:100360004D347E052B5618671B9828A97DFA4ECB75
:10037000D75CE46DB13E820F9231A100F453C762A5
:100380005EF56DC438970BA618EB2BDA7E894DB855
:10039000D42FE71EB24D817C9142A273F720C41185
:1003A0005D866EB73BE408D51D7E2E4F7B1C482D25
:1003B000D1BAE28BB7D884E994D7A7E6F2B5C18465
:1003C00058136B223E710D401E0D2D3C786F4B5E15
:1003D000D2C9E1F8B4AB879A97A4A495F1C6C2F745
:1003E0005B6068513D020E33165425657036430735
:1003F000DA90E9A1BCF28FC39FFDACCCF99FCAAEE5
:1004000053396008355B066A152726167345407414
:10041000D9E3EAD2BF818CB09C8EAFBFFAECC9DDC4
:10042000504A637B3628051910B2238376D045E104
:10043000DC76EF47BA148925991BAA2AFF79CC48A4
:1004400055DF66EE33BD008C13C120F075A34692D4
:10045000DF05EC34B9678A569A68A959FC0ACF3B84
:1004600056AC659D30CE03FF000037306E605950AA
:10047000DCC0EBF0B2A08590A9A19E91C7C1F0F1BC
:10048000756142511B012C31436374532D031A33A0
:100490009FA3A893F1C3C6F3EAC2DDF284A2B3928C
:1004A0003602013258626F5286C6B1F6E8A6DF9670
:1004B0005A066D36346603562F671857410776374C
:1004C000F3A7C4979DC7AAF7C5A5F295ABC59CF540
:1004D00019652E55770540356C045B34026435543C
:1004E000B0C487F4DEA4E9941DAD2A9D73CD44FD0C
:1004F000C16DF65DAF0D983DB40C833CDA6CED5CDC
:1005000068CC5FFC06AC319C5ECE69FE30AE079EC7
:10051000820EB53EEC6EDB5EF76FC05F990FAE3FAB
:100520002BAF1C9F45CF72FF9B6BAC5BF50BC23BA7
:1005300047AB709B29CB1EFB32CA05FA5CAA6B9AAB
:10054000EE0AD93A806AB75AD808EF38B6688158A7
:1005500004C833F86AA85D9871A946991FC928F99B
:10056000AD699A59C309F4393B5A0C6A553A620A83
:10057000E79AD0AA89FABECA92FBA5CBFC9BCBAB6B
:100580004E3B790B205B176B78394F09165921695F
:10059000A4F993C9CA99FDA9D198E6A8BFF888C85B
:1005A0000D583A6863385408BD9C8AACD3FCE4CC3F
:1005B000615C566C0F3C380C143D230D7A5D4D6D1B
:1005C000C8FDFFCDA69D91ADFEFFC9CF909FA7AFFF
:1005D000223F150F4C5F7B6F575E606E393E0E0EEB
:1005E0008B9EBCAEE5FED2CE26F711C748977FA7FB
:1005F000FA37CD079457A3678F56B866E136D6060B
:10060000539664A63DF60AC6659452A40BF43CC406
:10061000B9548E64D734E004CC35FB05A2559565FA
:1006200010F527C57E9549A5A0319701CE51F961F6
:100630007CF14BC1129125A109903EA067F050C0FA
:10064000D550E260BB308C00E352D4628D32BA02E6
:100650003F9208A251F266C24AF37DC3249313A3CA
:100660009633A103F853CF63000076B4ED689BDCAA
:10067000CAF1BC452799512D85C3F37768AB1E1F7E
:100680004F323986A25AD4EE1BA76D13F6CF807B6A
:10069000D156A7E23C3E4A8A9E64E8D0730C05B866
:1006A00054952221B9FDCF49374E41FADA26AC9252
:1006B000FDBF8B0B10D76663B28DC4395FE529513E
:1006C000787C0EC89514E3A02CE95A5DC181B7353A
:1006D000E61890AC0B707DC4A92ADF9E444232F626
:1006E00063DB156F8EB3F8076E9C182883F4F54012
:1006F000A46DD2D949053FB1EB5F9DEB06377083FE
:1007000021AE571ACCC6BA72753B038F9853EEE7E9
:10071000BFCAC97E52A22416F0F8864C1D906B24E5
:100720003A094CBDD761A1D559D22F66B4BAC20ED1
:100730009323E5977E4B08FFDC11AAA5317947CDBD
:1007400016E06054FB888D3C427534C1AF1DD9A9B9
:100750008884FE3065EC1358C7B6B1022ADE5C6AA5
:100760000D477BF3E02F969BDD38AB8C305046E491
:1007700017C9617DFAA18C1558FB2E4FB593C3277D
:10078000920AE4BE7F6209D6C69FB02B2BF75D4369
:100790000C6E7ADAE10697B2435C35E8AE34D88065
:1007A00089ADFF1964C51271EA769CC2071E71AA51
:1007B00020875633CDEFBB5B6FB5190182DDF4693D
:1007C000A544D3F0482C3E98F1D187651CB96A0D39
:1007D0003B204D94D648A0FC741202A6997AEFCE25
:1007E000BEE3C857538B253FB3A4C5105ECC287811
:1007F00079550FE1943DE289366740D3DB0FADBBFD
:10080000FC968A2211FE674AA803DEB7456B33DFE8
:1008100062F214468F9AF92E2DC05B74C0A8B61CE4
:10082000E73191850A597CED84EAF25E69821F36D0
:100830004E1B38AFA373D5C70129779DEC419AF5BC
:10084000CBD8BD6C26B050049F4DE9F972250491B8
:1008500055BC2308B8D4CE601A8E6C3AF7E68152A4
:10086000D07FA6CB3D174BA300000000240027003B
:100870002A00000000080002010000030407000035
:1008800000000000000000000000250028002B00F0
:1008900000000000230026002900040404040404CE
:1008A000040402020202020203030303030301021F
:1008B00004081020408001020408102001020408EE
:1008C0001020AF1CA51C11241FBECFEFD8E0DEBF47
:1008D000CDBF11E0A0E0B1E0E0E7F4E402C0059094
:1008E0000D92A43FB107D9F726E0A4EFB1E001C013
:1008F0001D92AB3AB207E1F714E0C2E6D4E004C0BF
:100900002197FE010E94701FC136D107C9F70E94CE
:10091000E8100C942B220C940000FC01918D828D28
:10092000981761F0828DDF01A80FB11D5D968C9143
:10093000928D9F5F9F73928F90E008958FEF9FEF4E
:100940000895FC01918D828D981731F0828DE80F0A
:10095000F11D858D90E008958FEF9FEF0895FC01C4
:10096000918D228D892F90E0805C9F4F821B910991
:100970008F739927089586EE93E00E94AF0421E0DB
:10098000892B09F420E0822F0895FC01848DDF017A
:10099000A80FB11DA35ABF4F2C91848D90E00196F2
:1009A0008F739927848FA689B7892C93A089B189E1
:1009B0008C9180648C93938D848D981306C00288EB
:1009C000F389E02D80818F7D80830895EF92FF92DF
:1009D0000F931F93CF93DF93EC0181E0888F9B8D62
:1009E0008C8D981305C0E889F989808185FD24C024
:1009F000F62E0B8D10E00F5F1F4F0F731127E02EA7
:100A00008C8DE8120CC00FB607FCFACFE889F98983
:100A1000808185FFF5CFCE010E94C504F1CF8B8D7B
:100A2000FE01E80FF11DE35AFF4FF0820B8FEA89B8
:100A3000FB898081806207C0EE89FF896083E88935
:100A4000F98980818064808381E090E0DF91CF919B
:100A50001F910F91FF90EF900895CF93DF93EC01DA
:100A6000888D8823C9F0EA89FB89808185FD05C0CE
:100A7000A889B9898C9186FD0FC00FB607FCF5CF08
:100A8000808185FFF2CFA889B9898C9185FFEDCF50
:100A9000CE010E94C504E7CFDF91CF91089580E099
:100AA00090E0892B29F00E94BB0481110C94000076
:100AB000089580917A0390E020917B03821B910935
:100AC00008952091F6013091F7012817390771F444
:100AD0009091F4018091F501981741F0E091F401B3
:100AE000F0E0E551FD4F808190E008958FEF9FEF9A
:100AF000089508951F93CF93DF93DC015C962D91A9
:100B00003C915D972115310539F481E090E0139611
:100B10009C938E9312973DC05196ED91FC91529704
:100B200050969C915097892F80951FB75E964C9157
:100B30005E9741FB772770F941FD6095F8944081FD
:100B4000772311F0492B01C048234083E901219705
:100B5000F1F748E0508160FF02C0592B01C05823D3
:100B60005083E9012197F1F76695415099F7772372
:100B700021F090818923808303C08081982B90830A
:100B80001FBF5C968D919C915D970197F1F721E0D5
:100B900030E0C901DF91CF911F9108952091F601B6
:100BA0003091F7012817390771F48091F5012091F0
:100BB000F40190E0805C9F4F821B910960E470E03B
:100BC0000E94CE1D089580E090E008952091F601E6
:100BD0003091F70128173907B9F49091F401809109
:100BE000F501981789F0E091F401F0E0E551FD4F2F
:100BF00080812091F40130E02F5F3F4F2F73332726
:100C00002093F40190E008958FEF9FEF089585ED14
:100C10008093BC008091BC0084FDFCCF1092C20385
:100C200008954091C602262F30E0240F311D213255
:100C30003105DCF42091C2032430C9F4FC0180E0CA
:100C400090E0861758F43091C6022191DC01AC5532
:100C5000BD4FA30FB11D2C930196F3CF8091C60217
:100C6000680F6093C60280E0089581E0089582E0F5
:100C700008950895E0917B0380917A03E81730F49A
:100C8000F0E0E458FC4F808190E008958FEF9FEFF3
:100C9000089590917B0380917A03981750F4E92F7F
:100CA000F0E0E458FC4F208130E09F5F90937B039D
:100CB00002C02FEF3FEFC9010895CF92DF92EF926C
:100CC000FF920F931F93CF93DF937C01262F972FD3
:100CD0008A018091E503882391F0C62FD72F6E01FA
:100CE000C40ED51ECC15DD0571F06991D701ED91CB
:100CF000FC910190F081E02DC7010995F3CF642F9D
:100D0000822F0E941106C801DF91CF911F910F9190
:100D1000FF90EF90DF90CF900895CF93DF931F92D5
:100D2000CDB7DEB769832091E5032223D1F020916E
:100D3000E303203240F021E030E0FC0133832283E2
:100D400080E090E015C08091E403E82FF0E0ED53DF
:100D5000FC4F998190838F5F8093E4038093E3033A
:100D600005C061E0CE0101960E94110681E090E08D
:100D70000F90DF91CF9108950E94DF201F920F9274
:100D80000FB60F9211242F933F934F935F936F935E
:100D90007F938F939F93AF93BF93EF93FF9386EED1
:100DA00093E00E94C504FF91EF91BF91AF919F9195
:100DB0008F917F916F915F914F913F912F910F9004
:100DC0000FBE0F901F9018951F920F920FB60F92A3
:100DD00011242F938F939F93EF93FF93E091F6034A
:100DE000F091F7038081E091FC03F091FD0382FD17
:100DF00012C090818091FF038F5F8F732091000458
:100E0000821751F0E091FF03F0E0EA51FC4F958F1B
:100E10008093FF0301C08081FF91EF919F918F919B
:100E20002F910F900FBE0F901F90189590E0FC012E
:100E3000EE58F74F3491FC01E255F74F2491FC0135
:100E4000E656F74FE491EE2309F43BC0332339F122
:100E5000333091F038F43130A9F0323001F584B5F7
:100E60008F7D12C0373091F03830A1F03430B9F4B2
:100E7000809180008F7D03C0809180008F77809368
:100E800080000DC084B58F7784BD09C08091B0000B
:100E90008F7703C08091B0008F7D8093B000F0E029
:100EA000EE0FFF1FEA57F74FA591B4918FB7F89453
:100EB000EC91611103C020952E2301C02E2B2C93A1
:100EC0008FBF0895CF93DF9390E0FC01E255F74F79
:100ED0002491FC01E656F74F8491882361F190E05C
:100EE000880F991FFC01E859F74FC591D491FC0177
:100EF000EA57F74FA591B491611109C09FB7F894D3
:100F00008881209582238883EC912E230BC0623048
:100F100061F49FB7F8943881822F8095832388836A
:100F2000EC912E2B2C939FBF06C08FB7F894E881CD
:100F30002E2B28838FBFDF91CF91089582309105AA
:100F400038F0880F991F880F991F05970197F1F7BF
:100F500008953FB7F8948091300390913103A091A8
:100F60003203B091330326B5A89B05C02F3F19F07B
:100F70000196A11DB11D3FBFBA2FA92F982F882719
:100F8000820F911DA11DB11DBC01CD0142E0660F74
:100F9000771F881F991F4A95D1F708958F929F92C6
:100FA000AF92BF92CF92DF92EF92FF926B017C01E2
:100FB0000E94A9074B015C01C114D104E104F104B2
:100FC000F1F00E94A907DC01CB0188199909AA094F
:100FD000BB09883E9340A105B10570F321E0C21A18
:100FE000D108E108F10888EE880E83E0981EA11C64
:100FF000B11CC114D104E104F10419F7DDCFFF9055
:10100000EF90DF90CF90BF90AF909F908F9008951A
:101010002FB7F89460912C0370912D0380912E03CB
:1010200090912F032FBF08951F920F920FB60F922A
:1010300011242F933F938F939F93AF93BF938091EE
:101040002C0390912D03A0912E03B0912F0330918A
:101050002B0323E0230F2D3720F40196A11DB11D92
:1010600005C026E8230F0296A11DB11D20932B0376
:1010700080932C0390932D03A0932E03B0932F0302
:101080008091300390913103A0913203B0913303EA
:101090000196A11DB11D8093300390933103A0935D
:1010A0003203B0933303BF91AF919F918F913F91E2
:1010B0002F910F900FBE0F901F901895EF92FF92F7
:1010C0000F931F93CF93DF9300D0CDB7DEB77C0192
:1010D0008901FC0180814A8369830E94040C698133
:1010E0008BEC94E00E948D060E940E0CF70180812B
:1010F0000E94040C4A81642F413208F060E2F7013B
:1011000080810E946B0C10927B0380937A0378019C
:1011100090917A0380917B03981741F08BEC94E0D7
:101120000E944906F70181937F01F2CF0F900F9043
:10113000DF91CF911F910F91FF90EF900C940E0CC7
:10114000CF93DF9300D0CDB7DEB7FC0180814A8317
:1011500069830E94040C69818BEC94E00E948D06E7
:101160004A81642F8BEC94E00E948D060F900F90C3
:10117000DF91CF910C940E0CCF93DF93EC0188811B
:101180000E94040C6B8970E0605C7F4F8BEC94E0F4
:101190000E948D0681E08DA70E940E0C0E94A90777
:1011A00069A77AA78BA79CA7DF91CF910895CF92CB
:1011B000DF92EF92FF92CF93DF93EC018DA5813008
:1011C00049F0CE010E94BC0860EA71E086EE93E02F
:1011D0000E94D21066EE71E086EE93E00E94E61067
:1011E0000E94A907C9A4DAA4EBA4FCA46C197D0988
:1011F0008E099F090E94A3100E94A907C9A4DAA41E
:10120000EBA4FCA49B01AC012C193D094E095F091C
:1012100069017A018F859889A0E0B0E02817390725
:101220004A075B0780F466EB71E086EE93E00E946C
:10123000E610C701B6010E94A3108F8598898C190A
:101240009D090E949E07CE01DF91CF91FF90EF9004
:10125000DF90CF900C94AF0CCF92DF92EF92FF9281
:101260000F931F93CF93DF93EC018DA5823049F04C
:10127000CE010E94BC0868EC71E086EE93E00E940B
:10128000D2100E94A90709A51AA52BA53CA56B01A0
:101290007C01C01AD10AE20AF30A61EE71E086EE1F
:1012A00093E00E94E6100E94A90709A51AA52BA5A4
:1012B0003CA5601B710B820B930B0E94A3108989C4
:1012C0009A89AC0160E070E0C416D506E606F70620
:1012D00020F48C199D090E949E07CE01DF91CF91C9
:1012E0001F910F91FF90EF90DF90CF900C94AF0C77
:1012F0001F920F920FB60F9211242F933F934F938B
:101300005F936F937F938F939F93AF93BF93EF936D
:10131000FF93E091F601F091F701309709F451C085
:10132000968DA685B785858591FF04C09C918923FC
:1013300029F447C09C91892309F043C0A389B4894B
:101340009C918589809589238C93868997890197BB
:10135000F1F7608D718DA685B785558538E020E061
:10136000CB010197F1F7822F90E095958795282F73
:101370004C91452309F02068315091F7868D81FD0D
:1013800020958091F50190E001968F739927309117
:10139000F401381749F0A091F501B0E0A551BD4F17
:1013A0002C938093F50103C0868D8160868F828D9A
:1013B000938D0197F1F7A389B4899C918589892B35
:1013C0008C93FF91EF91BF91AF919F918F917F91FE
:1013D0006F915F914F913F912F910F900FBE0F90A2
:1013E0001F901895E091F601F091F701E817F907C1
:1013F00069F4A389B4899C918589809589238C930C
:101400001092F7011092F60181E0089580E00895AE
:101410001F920F920FB60F9211242F933F934F9369
:101420005F936F937F938F939F93AF93BF93EF934C
:10143000FF938091B900887F803609F49CC068F5DD
:10144000883209F45BC090F4803109F454C038F458
:10145000882309F4F6C0883009F44DC0F6C08831FD
:1014600009F44CC0803209F45DC0EFC0803409F447
:1014700068C048F4803309F455C0883309F0E5C0EA
:101480008093C003D8C0803509F44FC0883509F473
:101490005DC0883409F0D9C0D6C0883909F4C7C006
:1014A000A8F4883709F467C038F4883609F463C0B3
:1014B000803709F460C0C9C0883809F4B8C08039E1
:1014C00009F45FC0803809F0C0C05BC0803B09F4FC
:1014D00086C038F4803A09F466C0883A09F47FC0BF
:1014E000B4C0803C09F4A7C0883C09F4A4C0883B80
:1014F00009F48AC0AAC080919D0310C09091BF03D7
:101500008091BE03981770F5E091BF0381E08E0FC4
:101510008093BF03F0E0E256FC4F80818093BB00D4
:1015200085EC86C08093C0038EC0E091BF0381E04C
:101530008E0F8093BF038091BB00F0E0E256FC4F1A
:1015400080839091BF038091BE036EC0E091BF0382
:1015500081E08E0F8093BF038091BB00F0E0E256E4
:10156000FC4F80838091C10381116DC081E0809325
:101570009C0384EA61C083E08093C2031092EA0274
:10158000CFCF8091EA02803208F051C0E091EA02A8
:1015900081E08E0F8093EA028091BB00F0E0E65379
:1015A000FD4F8083BDCF85EC8093BC001092C203B9
:1015B0008091EA02803230F4E091EA02F0E0E653F2
:1015C000FD4F10826091EA0270E0E091C802F09154
:1015D000C9028AEC92E009951092EA0236C084E0D2
:1015E0008093C2031092C7021092C602E091C40217
:1015F000F091C50209958091C602811105C081E074
:101600008093C6021092A402E091C70281E08E0F7F
:101610008093C702F0E0EC55FD4F80818093BB00C2
:101620009091C7028091C602981708F479CF85E897
:101630008093BC000AC085EC8093BC001092C2036A
:1016400004C01092C0030E940706FF91EF91BF9162
:10165000AF919F918F917F916F915F914F913F914A
:101660002F910F900FBE0F901F9018951092C203EC
:1016700081E08093C10310929C0361E082E10E94AB
:10168000160761E083E10E941607E9EBF0E0808134
:101690008E7F808380818D7F808388E48093B800F3
:1016A00085E48093BC000895CF93DF93EC0180E044
:1016B00090E5A3ECB7E48F8F98A3A9A3BAA384EF16
:1016C0009DEFA4EDBBEB8BA39CA3ADA3BEA380E0D9
:1016D00090E0A5E9B3E48FA398A7A9A7BAA71BA692
:1016E0001CA61DA61EA684E797E0A5E0B1E48FA77F
:1016F00098ABA9ABBAAB80EC96E4ADEEBCE38BAB98
:101700009CABADABBEAB8AE098EEACE1B1E48FAB85
:1017100098AFA9AFBAAF688310927B0310927A0397
:101720001092E4031092E3030E94360B1E8E1D8E6E
:10173000DF91CF910895CF93883088F4C82F80E748
:101740000E94040C61E070E001C0660FCA95EAF7E0
:101750008BEC94E00E948D06CF910C940E0CCF91EF
:101760000895CF92DF92EF92FF920F931F93CF9342
:10177000DF936C017A018B01C0E0D0E0CE15DF056C
:1017800089F0D8016D918D01D601ED91FC91019008
:10179000F081E02DC6010995892B11F47E0102C06C
:1017A0002196ECCFC701DF91CF911F910F91FF9050
:1017B000EF90DF90CF900895E6EEF3E0A089B18935
:1017C00082E08C93A485B5851C92A685B78580E1BF
:1017D0008C93108EA489B58986E08C93A289B389F5
:1017E0008C9180618C93A289B3898C9188608C9351
:1017F000A289B3898C9180688C930288F389E02D4B
:1018000080818F7D8083089591E09093E50380939C
:10181000AA061092E4031092E30308952091E303D3
:101820009091AA06213208F04AC08091C20381112A
:10183000FCCF32E03093C20331E03093C1033FEF7D
:101840003093C0031092BF032093BE03A3ECB3E018
:101850004EE953E0FA013E2F341B321718F43D9144
:101860003193F9CF10929D0320919D03990F922BF4
:1018700090939D0390919C03913061F410929C038E
:1018800090919D039093BB009091BC0093FDF8CF85
:1018900095EC01C095EE9093BC009091C2039230FC
:1018A000E1F39091C0039F3F79F08091C0038032B3
:1018B00041F08091C003803331F084E005C081E0C5
:1018C00003C082E001C083E01092E4031092E303BE
:1018D0001092E50308959091C2039111FCCF91E01D
:1018E0009093C2039093C1032FEF2093C0031092F3
:1018F000BF03260F2093BE0390939D0390919D03F9
:10190000880F892B80939D0380919C03813061F423
:1019100010929C0380919D038093BB008091BC003A
:1019200083FDF8CF85EC01C085EE8093BC008091EB
:10193000C2038130E1F38091BF03861710F46091F8
:10194000BF03AEE9B3E02CE733E0F9018E2F821B31
:10195000861718F48D918193F9CF862F08951F93E0
:10196000CF93DF93EC0188810E94040C60E08BEC44
:1019700094E00E948D061DA60E940E0C88810E9494
:10198000040C63E088810E946B0C10927B038093AF
:101990007A03811101C0FFCF8BEC94E00E944906CD
:1019A000D82F8BEC94E00E944906182F8BEC94E022
:1019B0000E944906C82F0E940E0C812F90E0A0E0E3
:1019C000B0E0BA2FA92F982F8827AD2BBC01CD01ED
:1019D0006C2BDF91CF911F9108952F923F924F92E0
:1019E0005F926F927F928F929F92AF92BF92CF92AF
:1019F000DF92EF92FF920F931F93CF93DF93CDB7B8
:101A0000DEB7A3970FB6F894DEBF0FBECDBF9BA382
:101A10008AA34B8F5C8F6D8F7E8FDC0119968D9121
:101A20009C911A97A0E0B0E0BA2FA92F982F882791
:101A3000B901A801481B590B6A0B7B0B498B5A8BC8
:101A40006B8B7C8BAAA1BBA113962D903C90149715
:101A50001796ED91FC911897FE8BED8B1196ED90FA
:101A6000FC901297F88EEF8A15960D911C9116979F
:101A70001A8F098F1B962D913C911C9740E050E0E6
:101A800069897A898B899C890E94621EF22E032FB4
:101A9000142FB52FF62FE72FD82EE92EA0E00E94A5
:101AA000501F84F42150310940485F4F6F4F7F4FE2
:101AB0008F4F9F4FF22E032F142FB52FF62FE72FA6
:101AC000D82EE92E2F2D302F412F5B2F6F2F7E2FF9
:101AD0008D2D9E2D07E10E94141F29013A017301EB
:101AE000620110EDC10E17E0D11EE11CF11CAAA18C
:101AF000BBA159961C9259975A961C925A975B967D
:101B00001C925B975C961C925C975D961C925D970D
:101B10005E961C925E975F961C925F9790961C92C1
:101B2000909791961C92919792961C929297939669
:101B30001C92939794961C92949795961C929597C5
:101B400096961C92969797961C92979798961C92A9
:101B5000B0EDCB16B7E0DB06E104F1040CF0DBC01E
:101B6000A3019201C301B2010E94DF219B01AC01DC
:101B7000A5E0B0E00E9411228B019C0135952795CC
:101B8000179507950D831E832F8338879B01AC0122
:101B9000550F220B322FA90129833A834B835C8393
:101BA000AAA1BBA159960C9359975A961C935A9780
:101BB000EF815B96EC935B97F8855C96FC935C9762
:101BC0005D962C935D9709815E960C935E975F9668
:101BD0000C935F9790960C9390978B019C0182E0F9
:101BE00035952795179507958A95D1F709871A870F
:101BF0002B873C8791960C93919792961C93929782
:101C000093962C93939794963C93949719819596D9
:101C10001C93959796961C93969797961C939797D7
:101C200098961C9354E2C5165AEFD5065FEFE50669
:101C3000F5060CF070C0C301B2016455724F8F4FAE
:101C40009F4F9B01AC010E94DF212B013C01A7E0CB
:101C5000B0E09B01AC010E9411227B018C01990F25
:101C6000660B762FCB016D877E878F87988B2D81B2
:101C70003E81AF016981762F862F962F570168012B
:101C8000ED84FE2C0E2D1E2D0E94321FAAA1BBA199
:101C900059962C9359975A963C935A975B964C9326
:101CA0005B975C965C935C975D966C935D975E9694
:101CB0007C935E975F968C935F9790969C93ABE036
:101CC000B0E0A30192010E9411227B018C011595C5
:101CD0000795F794E7942B013C01770C4408542CAA
:101CE000320129853A854B855C856981762F862F5F
:101CF000962F57016801E42CF42C042D142D0E941A
:101D0000321FEAA1FBA121A332A343A354A365A3DD
:101D100076A387A390A7910140E050E060E070E0D7
:101D200080E090E000E10E94FB1E19012A013B01C6
:101D30004C01ED88FE88970140E050E069897A897E
:101D40008B899C890E94621E122FD32EE42EB52F00
:101D5000F62FE72FF82E092FA0E00E94501F5CF409
:101D6000AFE70E943B1F122FD32EE42EB52FF62F84
:101D7000E72FF82E092F212F3D2D4E2D5B2F6F2F92
:101D80007E2F8F2D902F07E00E94141F59016A01AA
:101D90007B018C019101A201B301C4010E94321F99
:101DA00029833D8349875D876D8B7F8F88A399A3A6
:101DB0000F89188DB80180E090E020E030E840E025
:101DC00050E00E94711E39014A011B012C01698DEE
:101DD0007A8D9B0140E050E069897A898B899C89E2
:101DE0000E94621E8901D42EB52FF62FE72F7C01A9
:101DF000A0E00E94501F74F421503F4F4F4F5F4F9F
:101E00006F4F7F4F8F4F9F4F8901D42EB52FF62FE5
:101E1000E72F7C0198014D2D5B2F6F2F7E2FC7017F
:101E200008E00E94141F59016A017B018C01930193
:101E3000A401B101C2010E94321FEB8CFC8C0D8DFC
:101E40001E8D17012801AAA1BBA19196AC90919774
:101E50009296BC9092979396CC9093979496DC90A0
:101E600094979596EC9095979696FC909697979662
:101E70000C91979798961C910E94471F59016A01EF
:101E80007B018C019101A20160E070E080E090E0B4
:101E90000E94091E8901D42EB52FF62FE72F7C0151
:101EA000A0E00E94501F74F421503109404E5F4F52
:101EB0006F4F7F4F8F4F9F4F8901D42EB52FF62F35
:101EC000E72F7C0198014D2D5B2F6F2F7E2FC701CF
:101ED00005E10E94141F322E432E542E952EB62F4C
:101EE000A72F882E792E29813D8149855D856D89B1
:101EF0007F8D88A199A1EAA1FBA1A18CB28CC38C92
:101F0000D48CE58CF68C078D10A10E94471F5901D7
:101F10006A017B018C01232D342D452D592D6B2F0A
:101F20007A2F882D972D0E94471F0E948B2020E03A
:101F300030E040E058E30E942121A3960FB6F894C8
:101F4000DEBF0FBECDBFDF91CF911F910F91FF90EC
:101F5000EF90DF90CF90BF90AF909F908F907F9049
:101F60006F905F904F903F902F9008958F929F9227
:101F7000AF92BF92CF92DF92EF92FF926B017C0102
:101F80000E9408084B015C01C60ED71EE81EF91E10
:101F90000E940808681579058A059B0528F0C61671
:101FA000D706E806F906A0F7FF90EF90DF90CF90F4
:101FB000BF90AF909F908F900895CF93DF9300D004
:101FC00000D0CDB7DEB749835A836B837C83DE01B3
:101FD0001196880F991F880F991FFC01EC5CFC4F2C
:101FE000CE0105962D912193A817B907D9F70F9027
:101FF0000F900F900F90DF91CF91089561157105AB
:1020000079F0FB0101900020E9F73197AF01461B01
:10201000570BDC01ED91FC910280F381E02D0994D6
:1020200080E090E008954F925F926F927F92EF92DE
:10203000FF920F931F93CF93DF93CDB7DEB7A19796
:102040000FB6F894DEBF0FBECDBF7C01FA01CB0105
:1020500019A2223008F42AE08E010F5D1F4F422E94
:10206000512C612C712CBF01A30192010E94EF2120
:10207000F901CA01015011096A3014F4605D01C010
:10208000695CD8016C93232B242B252B61F7B801B5
:10209000C7010E94FE0FA1960FB6F894DEBF0FBED7
:1020A000CDBFDF91CF911F910F91FF90EF907F9067
:1020B0006F905F904F900895CF92DF92EF92FF92D2
:1020C000CF93DF936B017C01E091E603F091E7038E
:1020D0000190F081E02D6DE286EE93E00995EC0130
:1020E00044275527BA014C195D096E097F092AE07A
:1020F00086EE93E00E9413108C0F9D1FDF91CF910D
:10210000FF90EF90DF90CF900895CF93DF93AC01D5
:10211000990F660B770B77FF05C0CB01BA010E94C0
:102120005C1005C02AE086EE93E00E941310EC01DB
:1021300067E471E086EE93E00E94FE0F8C0F9D1F16
:10214000DF91CF910895CF93DF93AB01BC012AE0DB
:1021500086EE93E00E941310EC0167E471E086EED6
:1021600093E00E94FE0F8C0F9D1FDF91CF91089589
:10217000CF93DF9397FF03C00E945C1007C02AE053
:10218000AB01BC0186EE93E00E941310EC0167E402
:1021900071E086EE93E00E94FE0F8C0F9D1FDF9191
:1021A000CF9108950F931F93CF93DF93EC010E947B
:1021B000FE0F8C0167E471E0CE010E94FE0F800FDC
:1021C000911FDF91CF911F910F9108950C94FE0FF5
:1021D000CF93DF93CDB7DEB7CD54D1090FB6F894C6
:1021E000DEBF0FBECDBF789484B5826084BD84B558
:1021F000816084BD85B5826085BD85B5816085BD02
:1022000080916E00816080936E00109281008091B9
:102210008100826080938100809181008160809341
:102220008100809180008160809380008091B10066
:1022300084608093B1008091B00081608093B00091
:1022400080917A00846080937A0080917A00826025
:1022500080937A0080917A00816080937A008091E7
:102260007A00806880937A001092C1001092C704AF
:102270001092C8041092C9041092CA0410928504E6
:1022800010928604109287041092880468EB7BE019
:1022900080E090E00E94B60F86EE93E09093C60433
:1022A0008093C5040E94DC0B0E940808609385049B
:1022B00070938604809387049093880468E371E0A8
:1022C0008091C5049091C6040E94E6106AE070E017
:1022D00080E090E00E94B60F81E0809399046AE468
:1022E00071E086EE93E00E94D2100E94DC0B109207
:1022F000A6061092A5061092A4061092A3061092AC
:10230000A2061092A10685E690E09093A80680931D
:10231000A70690919706963108F057C021E230E069
:102320003093A2062093A10623E630E03093A40662
:102330002093A30622E430E03093A6062093A5065E
:1023400020916800983050F031E09E3008F430E081
:1023500081E001C0880F3A95EAF701C084E0822B42
:1023600080936800983038F09E3040F0963148F005
:1023700020E030E008C02DE630E005C02BE630E07C
:1023800002C02CE630E030939F0620939E069830E2
:1023900030F481E001C0880F9A95EAF70EC0292F2A
:1023A00030E09E3018F42850310902C02E50310917
:1023B00081E001C0880F2A95EAF78093A0068091FA
:1023C000A7069091A8060197F1F78091A506909134
:1023D000A606892B21F18091F6019091F70106E084
:1023E0008B389007E1F0009711F00E94F20980917C
:1023F000A9068E7F8093A9061092F5011092F40130
:102400008BE896E09093F7018093F601E0919E06A9
:10241000F0919F0690818091A006892B80830E9475
:102420000808609302027093030280930402909361
:1024300005020E94A9076093980270939902809305
:102440009A0290939B020FE815E060E0E62E61E0AF
:10245000F62ED7018D917D010E949B0B9E012F5F6F
:102460003F4F48E150E068E8C8010E945E0866E519
:1024700071E086EE93E00E94E61046E050E0BE0177
:102480006F5F7F4F86EE93E00E94B10B69E471E0CD
:1024900086EE93E00E94D2108A8190E0982F8827E0
:1024A0002981820F911DF801968385838C8190E0AC
:1024B000982F88272B81820F911D908787838E818B
:1024C00090E0982F88272D81820F911D9287818718
:1024D000888590E0982F88272F81820F911D9487FF
:1024E00083878A8590E0982F88272985820F911D00
:1024F000968785878C8590E0982F88272B85820F7B
:10250000911D908B87878E8590E0982F88272D8549
:10251000820F911D928B818B888990E0982F88275C
:102520002F85820F911D948B838B8A8990E0982F41
:1025300088272989820F911D968B858B8C8990E045
:10254000982F88272B89820F911D908F878B8E89DA
:1025500090E0982F88272D89820F911D928F818F6F
:10256000888D90E0982F88272F89820F911D948F56
:10257000838F6EE571E086EE93E00E94D210D80161
:1025800015964D915C91169760E070E02AE086EE1A
:1025900093E00E94131067E471E086EE93E00E94DE
:1025A000FE0FF801878190850E948510D801199649
:1025B0008D919C911A970E948510F801438554854E
:1025C00060E070E02AE086EE93E00E94131067E47A
:1025D00071E086EE93E00E94FE0FD8011D968D916A
:1025E0009C911E970E948510F801878590890E9412
:1025F0008510D80151968D919C9152970E9485101B
:10260000F801838994890E948510D80155968D918F
:102610009C9156970E948510F8018789908D0E94A1
:102620008510D80159968D919C915A970E948510DA
:10263000F801838D948D0E94851047E564EFC801F1
:102640000E94A00840E065EFC8010E94A008055C58
:102650001F4FF6E00B371F0709F0FBCE84E0882EF2
:1026600085E0982E0EE412E018870F8397ED292E4F
:1026700094E0392E24E031E03AA329A380E090E0F1
:10268000AC01445051405E8F4D8FA9A1BAA18D91EC
:10269000BAA3A9A30E949B0B10927B0310927A030A
:1026A0001092E4031092E3030E94360BF101808143
:1026B0000E94040C6EE18BEC94E00E948D06D40124
:1026C0001C920E940E0C64E670E080E090E00E9494
:1026D000CE0700E010E0F10180810E94040C62EA64
:1026E000600F8BEC94E00E948D06D4011C920E9436
:1026F0000E0CF10180810E94040C62E0D1018C91EA
:102700000E946B0C10927B0380937A0390917A0362
:1027100080917B03981311C0F101408150E060E08B
:1027200070E02AE086EE93E00E94131067E471E007
:1027300086EE93E00E94FE0FE9CF8BEC94E00E94BE
:102740004906E82E8BEC94E00E944906F82E0E9480
:102750000E0CF101E00FF11FE88E1F8A8F89988D12
:102760008F29928381830E5F1F4F0C30110509F072
:10277000B2CFF4017A97A8E0AA2EA082E0E5F3E2B6
:10278000D1015096FC93EE931F9712E9A12E14E00D
:10279000B12E1E96BC92AE921D9782E0F4017997FD
:1027A00080835296BC92AE925197C1010E94D70885
:1027B0002B013C01C1010E942C096B017C01D1015C
:1027C00019968D919C911A97A0E0B0E0BA2FA92F8D
:1027D000982F882797018601081B190B2A0B3B0BA2
:1027E0000F87188B298B3A8BD1011B96AD90BC902B
:1027F0001C97F101158A168A178A108E9701860197
:10280000B301A201C1010E94ED0C698F7A8F8B8FF9
:102810009C8FC1010E94BC088D8D9E8D09A11AA1BB
:10282000800F911FAF81B8858D939C93950140E0F7
:1028300050E06F85788989899A890E94621EB22E3C
:10284000032F142FB52FF62FE72F8F87A92EA0E087
:102850000E94501F84F42150310940485F4F6F4F50
:102860007F4F8F4F9F4FB22E032F142FB52FF62F70
:10287000E72F8F87A92E2B2D302F412F5B2F6F2F06
:102880007E2F8F859A2D07E10E94141F2F87388B8A
:10289000498B5A8B6B8B7C8B8D8B9E8B6F8578894C
:1028A00089899A896053784F8F4F9F4F0E94E62005
:1028B00020E030E048EC52E40E94E31FEF81F8850D
:1028C0006283738384839583098D1A8D2B8D3C8D50
:1028D00006831783208731874286538664867586F0
:1028E000C686D786E08AF18ABEE22B0E311CEEE264
:1028F0008E0E911C0F8118850E5E1F4F18870F8357
:102900001FE8211615E0310609F0BFCEEEE4EE2EE9
:10291000E2E0FE2E07ED14E0F4E0CF2EF1E0DF2E32
:10292000D6018D916D010E949B0BC8010E942C095C
:10293000F70166877787808B918BC8010E94BC085E
:10294000025D1F4FF2E1EF0EF11C25E00F38120778
:1029500039F71092F9011092F8010E940808672BCC
:10296000682B692B41F40E940808623071058105CB
:10297000910508F40AC10E9408086093A0027093B0
:10298000A1028093A2029093A30200919C02109155
:102990009D0220919E0230919F026017710782076D
:1029A000930740F460939C0270939D0280939E0273
:1029B00090939F0200919C0210919D0220919E0293
:1029C00030919F025B016C01A01AB10AC20AD30ABE
:1029D000960185010A3F11052105310508F4D5C08E
:1029E00060939C0270939D0280939E0290939F023D
:1029F00074EFC72EDD24D394E12CF12CC092910406
:102A0000D0929204E0929304F09294041092950470
:102A10001092960410929704109298048091890461
:102A200090918A04A0918B04B0918C0480938D04C2
:102A300090938E04A0938F04B09390040E94080892
:102A40006093890470938A0480938B0490938C0420
:102A50000E9408086093850470938604809387041D
:102A6000909388040E9408086B017C0169E671E07C
:102A70008091C5049091C6040E94E6102AE041E0CE
:102A800050E060E070E08091C5049091C6040E941F
:102A9000131060E771E08091C5049091C6040E9414
:102AA000E6102AE0B701A6018091C5049091C60402
:102AB0000E94131065E971E08091C5049091C604ED
:102AC0000E94E6108091890490918A04A0918B0461
:102AD000B0918C04B701A601481B590B6A0B7B0B04
:102AE0002AE08091C5049091C6040E94131065E904
:102AF00071E08091C5049091C6040E94E610409157
:102B0000890450918A0460918B0470918C048091A7
:102B10008D0490918E04A0918F04B0919004481B75
:102B2000590B6A0B7B0B2AE08091C5049091C60477
:102B30000E94131064E771E08091C5049091C6046F
:102B40000E94E6100E940808AB01BC012AE08091B7
:102B5000C5049091C6040E94131066E771E080914D
:102B6000C5049091C6040E94D21065E070E080E038
:102B700090E00E94B60F0E94080860938904709349
:102B80008A0480938B0490938C046DE771E086EE49
:102B900093E00E94E6100E94A9070091980210910C
:102BA000990220919A0230919B02601B710B820B5B
:102BB000930B28EE33E040E050E00E94EF21CA0181
:102BC000B9010E94A3100E94A907C0909802D0905A
:102BD0009902E0909A02F0909B02DC01CB018C19E3
:102BE0009D09AE09BF09813E9349A440B10508F093
:102BF00092C00E94A9076C157D058E059F0550F4B3
:102C00000E94A90711EEC10E13E9D11E14E0E11EC6
:102C1000F11C09C00E94A90720EEC20E23E9D21EB2
:102C200024E0E21EF11CC61AD70AE80AF90AC0928B
:102C3000FA01D092FB01E092FC01F092FD0160915B
:102C4000FA017091FB018091FC019091FD0128EE49
:102C500033E040E050E00E94EF216B017C016EE820
:102C600071E086EE93E02B962FAF2B972C963FAF1B
:102C70002C972D964FAF2D972E965FAF2E970E94D3
:102C8000E6102B962FAD2B972C963FAD2C97C901B4
:102C90000E9485102B962FAD2B972C963FAD2C972D
:102CA000B901330F880B990B0E94CE07C6010E9411
:102CB0009E072EC090937C0680937B06AC0160E05B
:102CC00070E0B62FA52F942F8827AA27BB27452F62
:102CD000562F672F7727842B952BA62BB72B809306
:102CE00078039093790346E450E064E373E08BE863
:102CF00096E00E94B10B8091960290919702019606
:102D0000833091050CF01CC6909397028093960235
:102D10000E944F0522CE0E94A907609398027093EB
:102D2000990280939A0290939B028EE4E82E82E0AF
:102D3000F82E97EDC92E94E0D92E24E0822E21E0C2
:102D4000922E412C512C3201A12CB12CD4018D9109
:102D50004D010E949B0BC5010E948510C6010E9477
:102D6000D708AB01BC01F701428753876487758799
:102D70000685178520893189C6010E94ED0CD7018F
:102D800016966D937D938D939C9319978D919C913D
:102D9000119701968D939C93C6010E94BC08C301B4
:102DA000B2010E94E620F7012681378140855185D6
:102DB0000E94771F0E9455202B013C01FFEFAF1AA4
:102DC000BF0A0EE2C00ED11C12E1E10EF11C24E09C
:102DD000A216B10409F0BACF24E030E040E050E0A0
:102DE0000E94E21D26962CAF3DAF4EAF5FAF2697F7
:102DF00046E052E05AA349A360E071E079AB68ABCA
:102E00006FE8262E65E0362E588B4F871CA61DA630
:102E10001EA61FA68091960290919702892B09F019
:102E200087C3A8A9B9A98C910E949B0B9E012F5F13
:102E30003F4F46E050E067EFC1010E945E088D8180
:102E400090E0A0E0B0E0AC01BD0194E0440F551F5C
:102E5000661F771F9A95D1F79C81892F90E0A0E09B
:102E6000B0E02CE0880F991FAA1FBB1F2A95D1F74D
:102E7000840F951FA61FB71F4E8150E060E070E0E1
:102E800034E076956795579547953A95D1F75C016B
:102E90006D01A40EB51EC61ED71EAAAABBAACCAA37
:102EA000DDAA898190E0A0E0B0E0BC01552744276D
:102EB0009A81892F90E0A0E0B0E0BA2FA92F982F37
:102EC0008827840F951FA61FB71F2B816C017D01DA
:102ED000C20ED11CE11CF11CCAAEDBAEECAEFDAEE5
:102EE000D10115968D919C911697A0E0B0E0CAA8EB
:102EF000DBA8ECA8FDA8F4E0F594E794D794C79478
:102F0000FA95D1F7C81AD90AEA0AFB0A4AA95BA9B5
:102F10006CA97DA913E075956795579547951A9506
:102F2000D1F7880F991FAA1FBB1F9A01AB01281B5D
:102F3000390B4A0B5B0BF101A781B0850E94011E82
:102F40004B015C018BE0B594A794979487948A9584
:102F5000D1F7A7019601C701B6010E94DF219B01AD
:102F6000AC019CE055954795379527959A95D1F7F3
:102F7000A185B2850E94011E2B013C012EE07594B3
:102F80006794579447942A95D1F7480C591C6A1CAA
:102F90007B1C4182528263827482A5E0B0E0A3016F
:102FA00092010E941122DC01CB0180589F4FAF4F4C
:102FB000BF4FA92EBA2ECB2EDD24C7FCDA94229661
:102FC000ACAEBDAECEAEDFAE22977594679457948B
:102FD00047940AEF501A6108710873016201FF0CEF
:102FE000CC08DC2C76019201A3016C2D7C2D8C2D5C
:102FF0009C2D02E00E94141F59016A017B018C0183
:103000000E94091E2F8F3BA34CA35DA36EA37FA339
:1030100088A7892ED1015596BC91BBA7F10196884E
:10302000A388B488BAA6A9A6C188D288DFAACEAAE6
:10303000E584F684F886EF82F089D1011F96BC9171
:10304000BF8BEF2FEE0FEE0B0DE00E94141F590106
:103050006A017B018C012B2F3F2F4E2F5E2F6E2F8D
:103060007E2F8E2F9E2F0E94091E03E00E94141FA8
:10307000B22EC32ED42EE52E6F8B798F8D8F98A311
:10308000EF81F8859F01FF0F440B550BC301B2017F
:103090000E94621E01E00E94141FA22EB32FA42FD3
:1030A000F52FE62FF72E8C012B2D3C2D4D2D5E2D6F
:1030B0006F89798D8D8D98A1BB2ECA2EDF2EEE2EB5
:1030C0000E94321F02E10E94141F30584F4F5F4F81
:1030D0006F4F7F4F8F4F9F4FD1011B96ED91FC910A
:1030E0001C975F01C12CD12CE12CF12C8701EF83BF
:1030F000B886C986DA86EB86FC860D871E87C12CCA
:10310000D12CE12CF12C00E010E00E94091E0FE010
:103110000E94141F2F8B398F4D8F58A3A0E00E945F
:10312000501F09F4C8C12F8D3BA14CA15DA16EA118
:103130007FA188A5982D0BE00E94141FABA4192D28
:10314000110F110BB92CC12ED12EE12EF12E012F12
:103150000E94091ED22EE32EF42E152F6F837F8F2F
:103160004C0169A57AA59B01770F440B550BC30150
:10317000B2010E94621E01E00E94FB1E5901C42E92
:10318000B52FA62FF72F082FE92F2D2D3E2D4F2DD0
:10319000512F6F817F8DC401DB2EEA2EFF2E1E2F53
:1031A0000E94321F02E00E94141F2F8F3BA34CA3EA
:1031B000B52FA62FF72FE82F9DA30AAD1BAD2CAD81
:1031C0003DAD48015901C12CD12C760120E030E001
:1031D00040E051E060E070E080E090E09886A986F1
:1031E000BA86CB86DC86ED86FE865401C984DA84F5
:1031F000E12CF12C00E010E00E94471F2F833EA33A
:103200004FA358A769A77BA788AF99AF2EA93FA95D
:10321000A901330F660B770B8A01FF24EE242701E7
:103220003801770C4408542C32012F8D3BA14CA15E
:103230005B2F6A2F7F2F8E2F9DA157016801E42CF1
:10324000F42C042D142D0E94321F08E00E94141F3C
:1032500059016A017B018C012F813EA14FA158A524
:1032600069A57BA588AD99AD0E94471F722E832E5C
:10327000942EB52FA62FF72FE82F592E03E00E948A
:10328000FB1EA72CB82CC92CDB2EEA2EFF2E0E2FEE
:10329000152D0E94471F59016A017B01682E192FC5
:1032A00003E00E94FB1E062D0E94471F03E00E94C0
:1032B000FB1EA72CB82CC92CDB2EEA2EFF2E0E2FBE
:1032C000152D0E94471F02E00E94FB1E0E2F0E9438
:1032D000471F01E00E94FB1E0E2F0E94471F39016D
:1032E0004A01B62FA72FF82FE92F04E00E94161FDE
:1032F0002F3F3F4F4F4F5F47610571058105910596
:1033000009F0A0F49301A4016B2F7A2F8F2F9E2F29
:1033100001E00E94FB1EAF88B98CCD8CD8A0E12CB7
:10332000F12C00E010E00E949E1E13C0AF88B98C03
:10333000CD8CD8A0E12CF12C00E010E09301A40189
:103340006B2F7A2F8F2F9E2F0E949E1E01E00E94CE
:10335000FB1E2F833F8B498F5D8F68A37F8F2C01CE
:103360002F813F89498D5D8D68A17F8D07E00E9487
:10337000161F2BA33CA34DA35EA33B01882E9FA346
:103380002F813F89498D5D8D68A17F8DC20106E047
:103390000E94161FD1015A96BC905A975996AC902C
:1033A0001B2D110F110BC12ED12EE12EF12E012F4D
:1033B0000E94091E2EAB3BA748AF59AF27966FAFAF
:1033C000279728967FAF289729968FAF29972A9617
:1033D0009FAF2A97F101F48DF8A7D1015B96BC91BC
:1033E000B9A79F2E990C9908ABA0BCA0CDA0DEA0D8
:1033F0007301082D1FA19501A601B301882D912FFE
:103400000E94091E0DE00E94161F59016A017B01EE
:103410008C0129A538A5492D592D692D792D892D86
:10342000992D0E94091E0CE00E94141F39014A01C7
:10343000B62FA72FF82FE92F2EA93BA548AD59ADE0
:1034400027966FAD279728967FAD289729968FAD41
:1034500029972A969FAD2A970DE00E94141F5901C3
:103460006A017B018C019301A4016B2F7A2F8F2FAE
:103470009E2F0E94321FF101B08CA7881B2D110FC7
:10348000110BC12ED12EE12EF12E012F0E94321FE1
:1034900059016A017B018C012F813F89498D5D8D26
:1034A00068A17F8DC2010E94321F722F632F942F5B
:1034B000852F9B0104C030E020E090E080E0F10126
:1034C000458D568DBA016F5F7F4F768F658F22963F
:1034D000ACACBDACCEACDFAC2297AF85B889AD92B9
:1034E000BD92CD92DC92139714963C931497159647
:1034F0002C93159716969C93169717968C9317975F
:1035000019965C934E931897AAACBBACCCACDDACCF
:103510001A96AD92BD92CD92DC921D97AAA8BBA837
:10352000CCA8DDA81E96AD92BD92CD92DC925197AB
:10353000EF85F88984819581A681B781ACA4BDA46B
:10354000CEA4DFA4A80EB91ECA1EDB1EACA6BDA663
:10355000CEA6DFA67296F88BEF870BE3200E311C08
:1035600028A939A92F5F3F4F39AB28ABEE54F24061
:1035700009F050CCFEE4EF2EF2E0FF2E07ED14E050
:10358000A4E0CA2EA1E0DA2ED6018D916D010E9431
:103590009B0BC8010E942C09F70166877787808BF7
:1035A000918BC8010E94BC08025D1F4FF2E1EF0E33
:1035B000F11C25E00F38120739F769E471E086EE57
:1035C00093E00E94D2108091960290919702892BED
:1035D000A1F467E971E086EE93E00E94E6106CA525
:1035E0007DA58EA59FA520E430E040E050E00E943C
:1035F000E21DCA01B9010E94B8106CE971E086EEC3
:1036000093E00E94E61026966CAD7DAD8EAD9FAD29
:1036100026970E94B8100E940808C0900202D0901D
:103620000302E0900402F0900502AB01BC014C19CA
:103630005D096E097F0980E090E00E94DD0F0E9425
:103640000808DC01CB018C199D09AE09BF098093E4
:10365000FE019093FF01A0930002B093010201E0EC
:1036600010E078013FEFE31AF30AA9A1BAA14D9146
:103670005D916D917C91C8010E94DD0F0E5F1F4F1F
:10368000E9A1FAA14481558166817781C7010E9431
:10369000DD0F29A13AA12E5E3F4F3AA329A309309D
:1036A0001105F9F6E8E9EE2EE2E0FE2E68013FEFA3
:1036B000C31AD30AD7016D917D918D919C910E947F
:1036C0005520AB01BC01C8010E94DD0F0E5F1F4FEA
:1036D000F70164817581868197810E945520AB0135
:1036E000BC01C6010E94DD0FF2E1EF0EF11C0131B9
:1036F0001105E1F644E353E08FEF9FEF24E430E05F
:10370000FA01BA0163707727672BB1F021153105F3
:1037100099F0A92FBB274F5F5F4F60819927FC016C
:10372000E627EE0FFF1FE859FF4F859194918A27F6
:103730009B2721503109E4CFDA01890100311105BD
:1037400008F4E3C0005111098D909D90AD90BC909C
:10375000139788259925FC01FF27EE0FFF1FE859D5
:10376000F94FC590D490E92FFF27EE0FFF1FE859BE
:10377000FB4F659174914A2C512C612C712C8FEF69
:10378000581A680A780AF201EE0FFF1FE859FF4F36
:10379000859194918B2C9924AA24BB24F401EE0FDB
:1037A000FF1FE859FF4FE590F49014968D909D907F
:1037B000AD90BC9017976C257D25682579258627C7
:1037C0009727E826F926F701FF27EE0FFF1FE85994
:1037D000F94FC590D490EF2DFF27EE0FFF1FE8594A
:1037E000FB4F659174914A2C512C612C712C9FEFE9
:1037F000591A690A790AF201EE0FFF1FE859FF4FC3
:10380000859194918B2C9924AA24BB24F401EE0F6A
:10381000FF1FE859FF4FE590F49018968D909D900A
:10382000AD90BC901B976C257D2568257925862752
:103830009727E826F926F701FF27EE0FFF1FE85923
:10384000F94FC590D490EF2DFF27EE0FFF1FE859D9
:10385000FB4F659174914A2C512C612C712CEFEF28
:103860005E1A6E0A7E0AF201EE0FFF1FE859FF4F43
:10387000859194918B2C9924AA24BB24F401EE0FFA
:10388000FF1FE859FF4FE590F4901C968D909D9096
:10389000AD90BC901F976C257D25682579258627DE
:1038A00097278E259F25FC01FF27EE0FFF1FE85964
:1038B000F94FE590F490E92FFF27EE0FFF1FE8592D
:1038C000FB4F659174914A2C512C612C712CFFEFA8
:1038D0005F1A6F0A7F0AF201EE0FFF1FE859FF4FD0
:1038E000859194918B2C9924AA24BB24F401EE0F8A
:1038F000FF1FE859FF4FC590D490E626F7268E2586
:103900009F258C259D25509619CFD901A07FA40F06
:10391000B51F2F7033272A0F3B1FA217B30709F4D7
:10392000C9C9092F11274D919927FC01E427EE0FF2
:10393000FF1FE859FF4F8591949180279127EDCF84
:103940001092970210929602E3C98CE291E0909354
:103950008C0680938B068BE896E00C94F20910920B
:10396000E9031092E80388EE93E0A0E0B0E08093D2
:10397000EA039093EB03A093EC03B093ED032CE0E8
:1039800031E03093E7032093E60325EC30E03093F9
:10399000F3032093F20324EC30E03093F5032093FB
:1039A000F40320EC30E03093F7032093F60321EC8E
:1039B00030E03093F9032093F80322EC30E03093A9
:1039C000FB032093FA0326EC30E03093FD032093B1
:1039D000FC031092FF031092000410920104109255
:1039E00002041092890410928A0410928B0410929F
:1039F0008C0410928D0410928E0410928F041092F9
:103A000090041092910410929204109293041092D8
:103A100094041092950410929604109297041092B8
:103A200098041092CE041092CD048093CF0490930A
:103A3000D004A093D104B093D2042CE131E03093B0
:103A4000CC042093CB0410928E0610928D068093A6
:103A50008F0690939006A0939106B09392068CE205
:103A600091E090938C0680938B061092A2061092A0
:103A7000A1061092A4061092A3061092A606109218
:103A8000A5061092A8061092A7066091A9066E7F5F
:103A90006D7F6093A9066695617081E0682789E073
:103AA0000E94160761E089E00E946207E7EBF8E0F8
:103AB000E491E0939B06E3EAF8E0E491F0E0EE0F96
:103AC000FF1FEA57F74F8591949190939D0680933D
:103AD0009C0660E088E00E9462078091A90681FD53
:103AE00004C061E088E00E94160788E08093970692
:103AF000E6EBF8E0E491E0939806E2EAF8E0E4917E
:103B0000F0E0EE0FFF1FE057F74F859194919093EF
:103B10009A068093990660E086E00E946207E4EBD3
:103B2000F8E0E491E0937D06E0EAF8E0E491F0E06B
:103B3000EE0FFF1FE057F74F8591949190937F060A
:103B400080937E061092880610928A06109289064B
:103B5000E8E8F6E0129286E0E038F807D9F767E780
:103B60008FE895E00E94540B66E78AEC95E00E948E
:103B7000540B67E785E096E00E94540B66E780E40B
:103B800096E00E94540B97E79093D70486E78093C2
:103B900005059093330580936105089597FB072EE3
:103BA00016F4009407D077FD09D00E945C1F07FC33
:103BB00005D03EF4909581959F4F0895709561953D
:103BC0007F4F0895052E97FB1EF400940E94F91D67
:103BD00057FD07D00E94EF2107FC03D04EF40C9450
:103BE000F91D50954095309521953F4F4F4F5F4FB0
:103BF000089590958095709561957F4F8F4F9F4F59
:103C00000895B7FF0C9411220E941122821B930B7E
:103C10000895DF93CF931F930F939A9DF02D219FCB
:103C2000F00D8B9DF00D8A9DE02DF10D039FF00DA1
:103C3000029FE00DF11D4E9DE00DF11D5E9DF00D0A
:103C40004F9DF00D7F936F93BF92AF925F934F9311
:103C5000D5010E941C228B01AC01D7010E941C22BD
:103C6000EB01E80FF91FD6010E94591E2F913F91D9
:103C7000D6010E941C22C60FD71FE81FF91FAF9163
:103C8000BF910E94591E2F913F910E941C22C60F86
:103C9000D71FE81FF91FD6010E941C22E60FF71F4D
:103CA0009801BE01CF0111240F911F91CF91DF9197
:103CB00008950E941C22460F571FC81FD91F08F4E1
:103CC0003196089597FB57FF0C94721E9F938F9324
:103CD0000E94721E6E1B7F0BAF91BF918A0B9B0BD4
:103CE0000895E894DF93CF93FC01DB010E941C222E
:103CF0007F936F93E9019A01AC01BF93AF933F9318
:103D00002F93DF010E941C2226F46C1B7D0B820B7B
:103D1000930B9E01EB01FC010E94591EAF91BF91D4
:103D20002F913F910E94591EBE01CF01F9012F91A1
:103D30003F91CF91DF910895689401C0E8948F92EC
:103D40009F92CF93DF930E94AA1EDF91CF919F9005
:103D50008F90089588249924F401E401B0E49F939E
:103D6000AA279A158B049C04ED05FE05CF05D00704
:103D7000A10798F4AD2FDC2FCF2FFE2FE92D982C23
:103D8000892E982F872F762F652F542F432F322F70
:103D90002227B85031F7BF9127C01B2EBF91BB27F8
:103DA000220F331F441F551F661F771F881F991F3F
:103DB000881C991CEE1FFF1FCC1FDD1FAA1FBB1FF5
:103DC0008A149B04EC05FD05CE05DF05A007B107AD
:103DD00048F08A189B08EC09FD09CE09DF09A00B01
:103DE000B10B21601A94E1F62EF49401AF01BE01EB
:103DF000CD01000C08950F93083090F0982F872F75
:103E0000762F652F542F432F322F22270850F4CFBF
:103E1000220F331F441F551F661F771F881F991FCE
:103E20000A95B2F70F91089597FB10F816940008C1
:103E30000F93083098F00850232F342F452F562F1A
:103E4000672F782F892F902DF4CF0594979587951C
:103E50007795679557954795379527950A95AAF7CA
:103E60000F9108952A0D3B1D4C1D5D1D6E1D7F1D7C
:103E7000801F911F08950024A7FD00942A0F301D74
:103E8000401D501D601D701D801D901D08952A1934
:103E90003B094C095D096E097F09800B910B089560
:103EA0000024A7FD00942A17300540055005600541
:103EB0007005800590050895AA1BBB1B51E107C042
:103EC000AA1FBB1FA617B70710F0A61BB70B881FAA
:103ED000991F5A95A9F780959095BC01CD01089539
:103EE000EE0FFF1F0590F491E02D09945058BB2769
:103EF000AA270E948E1F0C94A5210E94972138F0BA
:103F00000E949E2120F039F49F3F19F426F40C946E
:103F100094210EF4E095E7FB0C948E21E92F0E948A
:103F2000B62158F3BA17620773078407950720F084
:103F300079F4A6F50C94D8210EF4E0950B2EBA2F47
:103F4000A02D0B01B90190010C01CA01A00111249F
:103F5000FF27591B99F0593F50F4503E68F11A164B
:103F6000F040A22F232F342F4427585FF3CF4695DC
:103F700037952795A795F0405395C9F77EF41F16FE
:103F8000BA0B620B730B840BBAF09150A1F0FF0FC8
:103F9000BB1F661F771F881FC2F70EC0BA0F621FB4
:103FA000731F841F48F4879577956795B795F795A4
:103FB0009E3F08F0B0CF9395880F08F09927EE0F39
:103FC0009795879508950E94F71F0C94A5210E944C
:103FD0009E2158F00E94972140F029F45F3F29F07C
:103FE0000C948E2151110C94D9210C9494210E948F
:103FF000B62168F39923B1F3552391F3951B550B23
:10400000BB27AA2762177307840738F09F5F5F4FAB
:10401000220F331F441FAA1FA9F335D00E2E3AF0EA
:10402000E0E832D091505040E695001CCAF72BD002
:10403000FE2F29D0660F771F881FBB1F2617370753
:104040004807AB07B0E809F0BB0B802DBF01FF2785
:1040500093585F4F3AF09E3F510578F00C948E21B3
:104060000C94D9215F3FE4F3983ED4F3869577957D
:104070006795B795F7959F5FC9F7880F911D96953E
:10408000879597F90895E1E0660F771F881FBB1F9A
:10409000621773078407BA0720F0621B730B840B47
:1040A000BA0BEE1F88F7E09508950E945C20689493
:1040B000B1110C94D92108950E94BE2188F09F5718
:1040C00098F0B92F9927B751B0F0E1F0660F771F3C
:1040D000881F991F1AF0BA95C9F714C0B13091F032
:1040E0000E94D821B1E008950C94D821672F782F31
:1040F0008827B85F39F0B93FCCF3869577956795F7
:10410000B395D9F73EF490958095709561957F4F62
:104110008F4F9F4F089597FB16F40E94CF200C9469
:104120009220E894F92F96EBFF2381F012161306E4
:104130001406440B9395F695879577956795579553
:104140004040FF23B9F71BC099270895882351F4F5
:104150009850D2F7872B762F652F542F432F322F6D
:1041600020E0B1F3121613061406440B88233AF02C
:104170009A95440F551F661F771F881FCAF755234E
:104180004AF4440F551F11F460FF04C06F5F7F4F66
:104190008F4F9F4F880F9695879597F90895909523
:1041A00080957095609550954095309521953F4F3D
:1041B0004F4F5F4F6F4F7F4F8F4F9F4F089581E05D
:1041C00090E0F8940C942B22E89409C097FB3EF4FD
:1041D00090958095709561957F4F8F4F9F4F992354
:1041E000A9F0F92F96E9BB279395F69587957795D2
:1041F0006795B795F111F8CFFAF4BB0F11F460FF92
:104200001BC06F5F7F4F8F4F9F4F16C0882311F0E9
:1042100096E911C0772321F09EE8872F762F05C0FD
:10422000662371F096E8862F70E060E02AF09A9598
:10423000660F771F881FDAF7880F9695879597F98D
:1042400008950E9434210C94A5210E94972138F0F2
:104250000E949E2120F0952311F00C948E210C9445
:10426000942111240C94D9210E94B62170F3959FBA
:10427000C1F3950F50E0551F629FF001729FBB275D
:10428000F00DB11D639FAA27F00DB11DAA1F649FF9
:104290006627B00DA11D661F829F2227B00DA11DAC
:1042A000621F739FB00DA11D621F839FA00D611D32
:1042B000221F749F3327A00D611D231F849F600D53
:1042C000211D822F762F6A2F11249F5750409AF07C
:1042D000F1F088234AF0EE0FFF1FBB1F661F771F08
:1042E000881F91505040A9F79E3F510580F00C94D3
:1042F0008E210C94D9215F3FE4F3983ED4F3869548
:1043000077956795B795F795E7959F5FC1F7FE2B72
:10431000880F911D9695879597F9089597F99F674E
:1043200080E870E060E008959FEF80EC089500243D
:104330000A941616170618060906089500240A940A
:1043400012161306140605060895092E0394000C90
:1043500011F4882352F0BB0F40F4BF2B11F460FF1F
:1043600004C06F5F7F4F8F4F9F4F089557FD905848
:10437000440F551F59F05F3F71F04795880F97FB29
:10438000991F61F09F3F79F08795089512161306E3
:104390001406551FF2CF4695F1DF08C01616170612
:1043A0001806991FF1CF8695710561050894089547
:1043B000E894BB2766277727CB0197F90895DB019F
:1043C0008F939F930E941122BF91AF91A29F800D66
:1043D000911DA39F900DB29F900D11240895A1E20D
:1043E0001A2EAA1BBB1BFD010DC0AA1FBB1FEE1F6F
:1043F000FF1FA217B307E407F50720F0A21BB30BBA
:10440000E40BF50B661F771F881F991F1A9469F735
:1044100060957095809590959B01AC01BD01CF0191
:1044200008950E941C22A59F900DB49F900DA49FFB
:10443000800D911D11240895A29FB001B39FC0016A
:10444000A39F700D811D1124911DB29F700D811DC0
:104450001124911D089514E0C2E6D4E004C0FE01C9
:104460000E94701F2196C336D107C9F7F894FFCF79
:10447000000001010202030300000000E604B10B8A
:10448000AF048D04A1042D05000000008D065D061B
:10449000590549063A063906000000007A05B10BB5
:1044A000CE05E60561057905564D4450565F317CD1
:1044B000315F564D4450560D0A00426567696E20C3
:1044C0007365747570006243616C203D2000436128
:1044D0006C2076616C75657300564D4450455F00E5
:1044E0003A323A007C005F564D445045004C6F6FA5
:1044F000702074696D65207761733A2020004465EF
:104500006C617920203A00626D703A006D733A0058
:104510005072657373757265206175746F2D726565
:10452000717565737400507265737375726520647C
:10453000656C6179203D200054656D706572617411
:10454000757265206175746F2D7265717565737410
:104550000074656D702074696D65206469666620FD
:044560003D200000FA
:00000001FF
