:100000000C9463040C948B040C948B040C940A09D8
:100010000C940A090C940A090C948B040C948B041C
:100020000C948B040C948B040C948B040C948B0414
:100030000C948B040C948B040C948B040C948B0404
:100040000C94CE070C948B040C94E4060C94BE061E
:100050000C948B040C948B040C948B040C948B04E4
:100060000C949A090C948B040000000024002700D3
:100070002A0000000008000201000003040700003D
:100080000000000000000000102120423063408486
:1000900050A560C670E781089129A14AB16BC18C57
:1000A000D1ADE1CEF1EF123102103273225252B5CE
:1000B000429472F762D693398318B37BA35AD3BDA7
:1000C000C39CF3FFE3DE246234430420140164E69E
:1000D00074C744A45485A56AB54B85289509E5EEF7
:1000E000F5CFC5ACD58D365326721611063076D7AE
:1000F00066F6569546B4B75BA77A97198738F7DF47
:10010000E7FED79DC7BC48C458E5688678A7084075
:10011000186128023823C9CCD9EDE98EF9AF894896
:100120009969A90AB92B5AF54AD47AB76A961A710D
:100130000A503A332A12DBFDCBDCFBBFEB9E9B79E6
:100140008B58BB3BAB1A6CA67C874CE45CC52C225D
:100150003C030C601C41EDAEFD8FCDECDDCDAD2A36
:10016000BD0B8D689D497E976EB65ED54EF43E13ED
:100170002E321E510E70FF9FEFBEDFDDCFFCBF1B86
:10018000AF3A9F598F78918881A9B1CAA1EBD10C60
:10019000C12DF14EE16F108000A130C220E3500468
:1001A00040257046606783B99398A3FBB3DAC33DDB
:1001B000D31CE37FF35E02B1129022F332D24235B8
:1001C000521462777256B5EAA5CB95A88589F56E6B
:1001D000E54FD52CC50D34E224C314A00481746608
:1001E000644754244405A7DBB7FA879997B8E75FBB
:1001F000F77EC71DD73C26D336F2069116B0665758
:10020000767646155634D94CC96DF90EE92F99C842
:1002100089E9B98AA9AB584448657806682718C0A7
:1002200008E1388228A3CB7DDB5CEB3FFB1E8BF91A
:100230009BD8ABBBBB9A4A755A546A377A160AF1F7
:100240001AD02AB33A92FD2EED0FDD6CCD4DBDAA2A
:10025000AD8B9DE88DC97C266C075C644C453CA247
:100260002C831CE00CC1EF1FFF3ECF5DDF7CAF9BFA
:10027000BFBA8FD99FF86E177E364E555E742E9397
:100280003EB20ED11EF00000333166625553CCC42D
:10029000FFF5AAA6999789A9BA98EFCBDCFA456D24
:1002A000765C230F103E0373304265115620CFB7A2
:1002B000FC86A9D59AE48ADAB9EBECB8DF89461E48
:1002C000752F207C134D06E635D7608453B5CA22BE
:1002D000F913AC409F718F4FBC7EE92DDA1C438B24
:1002E00070BA25E916D8059536A463F750C6C951EA
:1002F000FA60AF339C028C3CBF0DEA5ED96F40F8C8
:1003000073C9269A15AB0DCC3EFD6BAE589FC10844
:10031000F239A76A945B8465B754E207D13648A1E5
:100320007B902EC31DF20EBF3D8E68DD5BECC27B61
:10033000F14AA41997288716B427E174D2454BD205
:1003400078E32DB01E810B2A381B6D485E79C7EE0D
:10035000F4DFA18C92BD8283B1B2E4E1D7D04E47E5
:100360007D7628251B1408593B686E3B5D0AC49DA9
:10037000F7ACA2FF91CE81F0B2C1E792D4A34D3485
:100380007E052B5618671B9828A97DFA4ECBD75CA3
:10039000E46DB13E820F9231A100F453C7625EF565
:1003A0006DC438970BA618EB2BDA7E894DB8D42F85
:1003B000E71EB24D817C9142A273F720C4115D8685
:1003C0006EB73BE408D51D7E2E4F7B1C482DD1BA5D
:1003D000E28BB7D884E994D7A7E6F2B5C184581365
:1003E0006B223E710D401E0D2D3C786F4B5ED2C9C5
:1003F000E1F8B4AB879A97A4A495F1C6C2F75B6005
:1004000068513D020E331654256570364307DA9065
:10041000E9A1BCF28FC39FFDACCCF99FCAAE5339A2
:100420006008355B066A1527261673454074D9E3C4
:10043000EAD2BF818CB09C8EAFBFFAECC9DD504AC6
:10044000637B3628051910B2238376D045E1DC762C
:10045000EF47BA148925991BAA2AFF79CC4855DFA2
:1004600066EE33BD008C13C120F075A34692DF0504
:10047000EC34B9678A569A68A959FC0ACF3B56AC46
:10048000659D30CE03FF000037306E605950DCC0F0
:10049000EBF0B2A08590A9A19E91C7C1F0F1756162
:1004A00042511B012C31436374532D031A339FA314
:1004B000A893F1C3C6F3EAC2DDF284A2B392360276
:1004C000013258626F5286C6B1F6E8A6DF965A0628
:1004D0006D36346603562F67185741077637F3A7F2
:1004E000C4979DC7AAF7C5A5F295ABC59CF519653C
:1004F0002E55770540356C045B3402643554B0C426
:1005000087F4DEA4E9941DAD2A9D73CD44FDC16D31
:10051000F65DAF0D983DB40C833CDA6CED5C68CCB5
:100520005FFC06AC319C5ECE69FE30AE079E820E4B
:10053000B53EEC6EDB5EF76FC05F990FAE3F2BAF41
:100540001C9F45CF72FF9B6BAC5BF50BC23B47AB6F
:10055000709B29CB1EFB32CA05FA5CAA6B9AEE0A85
:10056000D93A806AB75AD808EF38B668815804C8B3
:1005700033F86AA85D9871A946991FC928F9AD6931
:100580009A59C309F4393B5A0C6A553A620AE79AF8
:10059000D0AA89FABECA92FBA5CBFC9BCBAB4E3B43
:1005A000790B205B176B78394F0916592169A4F92B
:1005B00093C9CA99FDA9D198E6A8BFF888C80D5873
:1005C0003A6863385408BD9C8AACD3FCE4CC615CC7
:1005D000566C0F3C380C143D230D7A5D4D6DC8FDF3
:1005E000FFCDA69D91ADFEFFC9CF909FA7AF223F43
:1005F000150F4C5F7B6F575E606E393E0E0E8B9E03
:10060000BCAEE5FED2CE26F711C748977FA7FA37D2
:10061000CD079457A3678F56B866E136D606539632
:1006200064A63DF60AC6659452A40BF43CC4B954C2
:100630008E64D734E004CC35FB05A255956510F5E2
:1006400027C57E9549A5A0319701CE51F9617CF16E
:100650004BC1129125A109903EA067F050C0D55022
:10066000E260BB308C00E352D4628D32BA023F921A
:1006700008A251F266C24AF37DC3249313A39633B2
:10068000A103F853CF63000076B4ED689BDCCAF198
:10069000BC452799512D85C3F37768AB1E1F4F3298
:1006A0003986A25AD4EE1BA76D13F6CF807BD156A4
:1006B000A7E23C3E4A8A9E64E8D0730C05B8549584
:1006C0002221B9FDCF49374E41FADA26AC92FDBF5F
:1006D0008B0B10D76663B28DC4395FE52951787CE6
:1006E0000EC89514E3A02CE95A5DC181B735E61810
:1006F00090AC0B707DC4A92ADF9E444232F663DBC6
:10070000156F8EB3F8076E9C182883F4F540A46D1E
:10071000D2D949053FB1EB5F9DEB0637708321AE1F
:10072000571ACCC6BA72753B038F9853EEE7BFCA0F
:10073000C97E52A22416F0F8864C1D906B243A090B
:100740004CBDD761A1D559D22F66B4BAC20E93233E
:10075000E5977E4B08FFDC11AAA5317947CD16E05D
:100760006054FB888D3C427534C1AF1DD9A9888483
:10077000FE3065EC1358C7B6B1022ADE5C6A0D473D
:100780007BF3E02F969BDD38AB8C305046E417C9E5
:10079000617DFAA18C1558FB2E4FB593C327920AA1
:1007A000E4BE7F6209D6C69FB02B2BF75D430C6E6B
:1007B0007ADAE10697B2435C35E8AE34D88089AD89
:1007C000FF1964C51271EA769CC2071E71AA2087C0
:1007D0005633CDEFBB5B6FB5190182DDF469A544DB
:1007E000D3F0482C3E98F1D187651CB96A0D3B20A7
:1007F0004D94D648A0FC741202A6997AEFCEBEE3BF
:10080000C857538B253FB3A4C5105ECC28787955C3
:100810000FE1943DE289366740D3DB0FADBBFC9618
:100820008A2211FE674AA803DEB7456B33DF62F206
:1008300014468F9AF92E2DC05B74C0A8B61CE73100
:1008400091850A597CED84EAF25E69821F364E1B5F
:1008500038AFA373D5C70129779DEC419AF5CBD862
:10086000BD6C26B050049F4DE9F97225049155BC2A
:100870002308B8D4CE601A8E6C3AF7E68152D07F46
:10088000A6CB3D174BA300000000250028002B003D
:1008900000000000230026002900040404040404CE
:1008A000040402020202020203030303030301021F
:1008B00004081020408001020408102001020408EE
:1008C0001020911BDD0C11241FBECFEFD8E0DEBF3E
:1008D000CDBF11E0A0E0B1E0E0E1F1E402C005909D
:1008E0000D92A03EB107D9F728E0A0EEB1E001C01B
:1008F0001D92A738B207E1F714E0C2E6D4E004C0C5
:100900002197FE010E946F1EC136D107C9F70E94D0
:10091000E70C0C947B200C940000FC01918D828DDF
:10092000981761F0828DDF01A80FB11D5D968C9143
:10093000928D9F5F9F73928F90E008958FEF9FEF4E
:100940000895FC01918D828D981731F0828DE80F0A
:10095000F11D858D90E008958FEF9FEF0895FC01C4
:10096000918D228D892F90E0805C9F4F821B910991
:100970008F73992708958BE096E00E94AF0421E0E1
:10098000892B09F420E0822F0895FC01848DDF017A
:10099000A80FB11DA35ABF4F2C91848D90E00196F2
:1009A0008F739927848FA689B7892C93A089B189E1
:1009B0008C9180648C93938D848D981306C00288EB
:1009C000F389E02D80818F7D80830895EF92FF92DF
:1009D0000F931F93CF93DF93EC0181E0888F9B8D62
:1009E0008C8D981305C0E889F989808185FD24C024
:1009F000F62E0B8D10E00F5F1F4F0F731127E02EA7
:100A00008C8DE8120CC00FB607FCFACFE889F98983
:100A1000808185FFF5CFCE010E94C504F1CF8B8D7B
:100A2000FE01E80FF11DE35AFF4FF0820B8FEA89B8
:100A3000FB898081806207C0EE89FF896083E88935
:100A4000F98980818064808381E090E0DF91CF919B
:100A50001F910F91FF90EF900895CF93DF93EC01DA
:100A6000888D8823C9F0EA89FB89808185FD05C0CE
:100A7000A889B9898C9186FD0FC00FB607FCF5CF08
:100A8000808185FFF2CFA889B9898C9185FFEDCF50
:100A9000CE010E94C504E7CFDF91CF91089580E099
:100AA00090E0892B29F00E94BB0481110C94000076
:100AB00008958091580590E020915905821B910975
:100AC000089520916E0230916F022817390771F452
:100AD00090916C0280916D02981741F0E0916C0248
:100AE000F0E0E95DFD4F808190E008958FEF9FEF8A
:100AF000089508951F93CF93DF93DC015C962D91A9
:100B00003C915D972115310539F481E090E0139611
:100B10009C938E9312973DC05196ED91FC91529704
:100B200050969C915097892F80951FB75E964C9157
:100B30005E9741FB772770F941FD6095F8944081FD
:100B4000772311F0492B01C048234083E901219705
:100B5000F1F748E0508160FF02C0592B01C05823D3
:100B60005083E9012197F1F76695415099F7772372
:100B700021F090818923808303C08081982B90830A
:100B80001FBF5C968D919C915D970197F1F721E0D5
:100B900030E0C901DF91CF911F91089520916E023D
:100BA00030916F022817390771F480916D022091FE
:100BB0006C0290E0805C9F4F821B910960E470E0C2
:100BC0000E94A01C089580E090E0089520916E029C
:100BD00030916F0228173907B9F490916C02809117
:100BE0006D02981789F0E0916C02F0E0E95DFD4F2D
:100BF000808120916C0230E02F5F3F4F2F733327AD
:100C000020936C0290E008958FEF9FEF089585ED9B
:100C10008093BC008091BC0084FDFCCF1092E6055F
:100C2000089540910202262F30E0240F311D213219
:100C30003105DCF42091E6052430C9F4FC0180E0A4
:100C400090E0861758F4309102022191DC01A05205
:100C5000BE4FA30FB11D2C930196F3CF80910202DA
:100C6000680F6093020280E0089581E0089582E0B9
:100C700008950895E091590580915805E81730F4DA
:100C8000F0E0E056FA4F808190E008958FEF9FEFFB
:100C900008959091590580915805981750F4E92FBF
:100CA000F0E0E056FA4F208130E09F5F90935905C5
:100CB00002C02FEF3FEFC9010895CF92DF92EF926C
:100CC000FF920F931F93CF93DF937C01262F972FD3
:100CD0008A018091E705882391F0C62FD72F6E01F6
:100CE000C40ED51ECC15DD0571F06991D701ED91CB
:100CF000FC910190F081E02DC7010995F3CF642F9D
:100D0000822F0E941106C801DF91CF911F910F9190
:100D1000FF90EF90DF90CF900895CF93DF931F92D5
:100D2000CDB7DEB769832091E7052223D1F020916A
:100D30000A06203240F021E030E0FC0133832283B8
:100D400080E090E015C08091E805E82FF0E0E751E1
:100D5000FA4F998190838F5F8093E80580930A060C
:100D600005C061E0CE0101960E94110681E090E08D
:100D70000F90DF91CF9108950E9476201F920F92DD
:100D80000FB60F9211242F933F934F935F936F935E
:100D90007F938F939F93AF93BF93EF93FF938BE0DA
:100DA00096E00E94C504FF91EF91BF91AF919F9192
:100DB0008F917F916F915F914F913F912F910F9004
:100DC0000FBE0F901F9018951F920F920FB60F92A3
:100DD00011242F938F939F93EF93FF93E0911B0622
:100DE000F0911C068081E0912106F091220682FD9F
:100DF00012C09081809124068F5F8F732091250609
:100E0000821751F0E0912406F0E0E55FF94F958FED
:100E10008093240601C08081FF91EF919F918F9173
:100E20002F910F900FBE0F901F90189590E0FC012E
:100E3000EE58FF4F3491FC01E255F74F2491FC012D
:100E4000E656F74FE491EE2309F43BC0332339F122
:100E5000333091F038F43130A9F0323001F584B5F7
:100E60008F7D12C0373091F03830A1F03430B9F4B2
:100E7000809180008F7D03C0809180008F77809368
:100E800080000DC084B58F7784BD09C08091B0000B
:100E90008F7703C08091B0008F7D8093B000F0E029
:100EA000EE0FFF1FEA57F74FA591B4918FB7F89453
:100EB000EC91611103C020952E2301C02E2B2C93A1
:100EC0008FBF0895CF93DF9390E0FC01E255F74F79
:100ED0002491FC01E656F74F8491882361F190E05C
:100EE000880F991FFC01E859FF4FC591D491FC016F
:100EF000EA57F74FA591B491611109C09FB7F894D3
:100F00008881209582238883EC912E230BC0623048
:100F100061F49FB7F8943881822F8095832388836A
:100F2000EC912E2B2C939FBF06C08FB7F894E881CD
:100F30002E2B28838FBFDF91CF91089582309105AA
:100F400038F0880F991F880F991F05970197F1F7BF
:100F500008953FB7F8948091680290916902A0913A
:100F60006A02B0916B0226B5A89B05C02F3F19F00D
:100F70000196A11DB11D3FBFBA2FA92F982F882719
:100F8000820F911DA11DB11DBC01CD0142E0660F74
:100F9000771F881F991F4A95D1F708951F920F92C6
:100FA0000FB60F9211242F933F938F939F93AF937C
:100FB000BF938091700290917102A0917202B091E2
:100FC00073023091670223E0230F2D3720F401963E
:100FD000A11DB11D05C026E8230F0296A11DB11D5C
:100FE000209367028093700290937102A093720223
:100FF000B09373028091680290916902A0916A0295
:10100000B0916B020196A11DB11D8093680290936F
:101010006902A0936A02B0936B02BF91AF919F9156
:101020008F913F912F910F900FBE0F901F901895A9
:10103000DF92EF92FF920F931F93CF93DF931F9254
:10104000CDB7DEB78C017901FC018081DD24D3941A
:10105000D092E705809309061092E80510920A06DF
:1010600088EA96E049830E948D060E94AF0BF80142
:101070008081D092E705809309061092E8051092CE
:101080000A064981642F413208F060E20E941A0C7E
:1010900010925905809358058701909158058091C9
:1010A0005905981741F088EA96E00E944906F80130
:1010B00081938F01F2CF0F90DF91CF911F910F910C
:1010C000FF90EF90DF900C94AF0BCF93DF931F92C4
:1010D000CDB7DEB7FC01808191E09093E705809366
:1010E00009061092E80510920A0688EA96E04983FC
:1010F0000E948D064981642F88EA96E00E948D0641
:101100000F90DF91CF910C94AF0BCF93DF93EC0155
:1011100080E090E5A3ECB7E48F8F98A3A9A3BAA3CE
:1011200084EF9DEFA4EDBBEB8BA39CA3ADA3BEA36B
:1011300080E090E0A5E9B3E48FA398A7A9A7BAA798
:101140001BA61CA61DA61EA684E797E0A5E0B1E499
:101150008FA798ABA9ABBAAB80EC96E4ADEEBCE33D
:101160008BAB9CABADABBEAB8AE098EEACE1B1E42F
:101170008FAB98AFA9AFBAAF6883109259051092A0
:1011800058051092E80510920A061092E60581E0D3
:101190008093E5051092C00561E082E10E94160788
:1011A00061E083E10E941607E9EBF0E080818E7F29
:1011B000808380818D7F808388E48093B80085E47C
:1011C0008093BC001E8E1D8EDF91CF9108951F93DA
:1011D000CF93DF93EC01888111E01093E7058093B2
:1011E00009061092E80510920A066B8970E0605CAF
:1011F0007F4F88EA96E00E948D061DA70E94AF0BE4
:101200000E94A90769A77AA78BA79CA7DF91CF9116
:101210001F9108951F920F920FB60F9211242F93D2
:101220003F934F935F936F937F938F939F93AF936E
:10123000BF93EF93FF93E0916E02F0916F023097AE
:1012400009F451C0968DA685B785858591FF04C0A8
:101250009C91892329F447C09C91892309F043C0BC
:10126000A389B4899C918589809589238C938689EB
:1012700097890197F1F7608D718DA685B7855585A2
:1012800038E020E0CB010197F1F7822F90E09595AF
:101290008795282F4C91452309F02068315091F70C
:1012A000868D81FD209580916D0290E001968F736F
:1012B000992730916C02381749F0A0916D02B0E087
:1012C000A95DBD4F2C9380936D0203C0868D816014
:1012D000868F828D938D0197F1F7A389B4899C91B4
:1012E0008589892B8C93FF91EF91BF91AF919F914D
:1012F0008F917F916F915F914F913F912F910F90BF
:101300000FBE0F901F901895E0916E02F0916F0242
:10131000E817F90769F4A389B4899C9185898095B8
:1013200089238C9310926F0210926E0281E00895CF
:1013300080E008951F920F920FB60F9211242F9301
:101340003F934F935F936F937F938F939F93AF934D
:10135000BF93EF93FF938091B900887F803609F4A3
:101360009CC068F5883209F45BC090F4803109F4C0
:1013700054C038F4882309F4F6C0883009F44DC00D
:10138000F6C0883109F44CC0803209F45DC0EFC06A
:10139000803409F468C048F4803309F455C08833B8
:1013A00009F0E5C08093E405D8C0803509F44FC04A
:1013B000883509F45DC0883409F0D9C0D6C08839B1
:1013C00009F4C7C0A8F4883709F467C038F4883630
:1013D00009F463C0803709F460C0C9C0883809F4D3
:1013E000B8C0803909F45FC0803809F0C0C05BC064
:1013F000803B09F486C038F4803A09F466C0883A24
:1014000009F47FC0B4C0803C09F4A7C0883C09F44B
:10141000A4C0883B09F48AC0AAC08091C10510C04D
:101420009091E3058091E205981770F5E091E3054E
:1014300081E08E0F8093E305F0E0EE53FA4F808158
:101440008093BB0085EC86C08093E4058EC0E0915C
:10145000E30581E08E0F8093E3058091BB00F0E00F
:10146000EE53FA4F80839091E3058091E2056EC0C0
:10147000E091E30581E08E0F8093E3058091BB004E
:10148000F0E0EE53FA4F80838091E50581116DC045
:1014900081E08093C00584EA61C083E08093E60523
:1014A00010922602CFCF80912602803208F051C0E0
:1014B000E091260281E08E0F809326028091BB008E
:1014C000F0E0EA5FFD4F8083BDCF85EC8093BC00E8
:1014D0001092E60580912602803230F4E0912602D7
:1014E000F0E0EA5FFD4F10826091260270E0E0912B
:1014F0000402F091050286E092E00995109226021E
:1015000036C084E08093E605109203021092020236
:10151000E0910002F091010209958091020281118F
:1015200005C081E0809302021092E001E091030285
:1015300081E08E0F80930302F0E0E052FE4F808145
:101540008093BB009091030280910202981708F4E7
:1015500079CF85E88093BC000AC085EC8093BC00FD
:101560001092E60504C01092E4050E940706FF9160
:10157000EF91BF91AF919F918F917F916F915F910B
:101580004F913F912F910F900FBE0F901F90189584
:101590008830B0F491E09093E70590E790930906C6
:1015A0001092E80510920A0661E070E001C0660F33
:1015B0008A95EAF788EA96E00E948D060C94AF0BB4
:1015C0000895CF92DF92EF92FF920F931F93CF93E4
:1015D000DF936C017A018B01C0E0D0E0CE15DF050E
:1015E00089F0D8016D918D01D601ED91FC910190AA
:1015F000F081E02DC6010995892B11F47E0102C00E
:101600002196ECCFC701DF91CF911F910F91FF90F1
:10161000EF90DF90CF900895009769F0FC01019062
:101620000020E9F73197AF01481B590BBC018BE053
:1016300096E00C94E10A80E090E008950C940C0B85
:101640008F929F92AF92BF920F931F93CF93DF938E
:10165000CDB7DEB7A1970FB6F894DEBF0FBECDBFF2
:1016600019A2423008F44AE08E010F5D1F4F842E0C
:10167000912CA12CB12CA50194010E94B41CE62F41
:10168000B901CA0101501109EA3014F4E05D01C04A
:10169000E95CD801EC93232B242B252B61F7C8019F
:1016A0000E940C0BA1960FB6F894DEBF0FBECDBF03
:1016B000DF91CF911F910F91BF90AF909F908F902E
:1016C0000895CF92DF92EF92FF92CF93DF936B0159
:1016D0007C01E0910B06F0910C060190F081E02D69
:1016E0006DE28BE096E00995EC0166277727CB0148
:1016F0006C197D098E099F094AE00E94200B8C0F0E
:101700009D1FDF91CF91FF90EF90DF90CF900895D4
:10171000CF93DF93BC01990F880B990B97FF03C000
:101720000E94610B03C04AE00E94200BEC0187E697
:1017300091E00E940C0B8C0F9D1FDF91CF910895BB
:10174000CF93DF934AE00E94200BEC0187E691E003
:101750000E940C0B8C0F9D1FDF91CF91089520915B
:101760000A0690910906213208F04AC08091E605E8
:101770008111FCCF32E03093E60531E03093E5058E
:101780003FEF3093E4051092E3052093E205A9EEC4
:10179000B5E042EC55E0FA013E2F341B321718F445
:1017A0003D913193F9CF1092C1052091C105990F58
:1017B000922B9093C1059091C005913061F41092E5
:1017C000C0059091C1059093BB009091BC0093FD22
:1017D000F8CF95EC01C095EE9093BC009091E60592
:1017E0009230E1F39091E4059F3F79F08091E40518
:1017F000803241F08091E405803331F084E005C00F
:1018000081E003C082E001C083E01092E8051092FD
:101810000A061092E7050895CF93DF930E940C0B00
:10182000EC0187E691E00E940C0B8C0F9D1FDF916D
:10183000CF9108959091E6059111FCCF91E090939E
:10184000E6059093E5052FEF2093E4051092E3055C
:10185000260F2093E2059093C1059091C105880F52
:10186000892B8093C1058091C005813061F410926D
:10187000C0058091C1058093BB008091BC0083FDB1
:10188000F8CF85EC01C085EE8093BC008091E60521
:101890008130E1F38091E305861710F46091E30550
:1018A000A2ECB5E020EA35E0F9018E2F821B861705
:1018B00018F48D918193F9CF862F0895CF93DF93FC
:1018C00000D000D0CDB7DEB749835A836B837C83C9
:1018D000DE011196880F991F880F991FFC01E65AA7
:1018E000FA4FCE0105962D912193A817B907D9F784
:1018F0000F900F900F900F90DF91CF910895CF939D
:10190000DF9397FF03C00E94610B03C04AE00E946F
:10191000200BEC0187E691E00E940C0B8C0F9D1FC1
:10192000DF91CF9108951F93CF93DF93EC018881CE
:1019300011E01093E705809309061092E8051092D4
:101940000A0660E088EA96E00E948D061DA60E94C5
:10195000AF0B88811093E705809309061092E80584
:1019600010920A0663E00E941A0C109259058093A7
:101970005805811101C0FFCF88EA96E00E94490610
:10198000D82F88EA96E00E944906182F88EA96E048
:101990000E944906C82F0E94AF0B812F90E0A0E063
:1019A000B0E0BA2FA92F982F8827AD2BBC01CD010D
:1019B0006C2BDF91CF911F9108958EE291E090936F
:1019C00069088093680888E698E00C948409CF93AE
:1019D000DF93CDB7DEB7CF57D1090FB6F894DEBF8E
:1019E0000FBECDBF789484B5826084BD84B581601C
:1019F00084BD85B5826085BD85B5816085BD8091DA
:101A00006E00816080936E00109281008091810051
:101A10008260809381008091810081608093810049
:101A2000809180008160809380008091B10084600B
:101A30008093B1008091B00081608093B00080916C
:101A40007A00846080937A0080917A00826080932B
:101A50007A0080917A00816080937A0080917A0088
:101A6000806880937A001092C1008AE391E00E941E
:101A70000C0CE0911B06F0911C0682E08083E09143
:101A80001706F09118061082E0911906F0911A06D7
:101A900080E1808310922306E0911F06F0912006DA
:101AA00086E08083E0911D06F0911E0680818061B2
:101AB0008083E0911D06F0911E06808188608083FE
:101AC000E0911D06F0911E06808180688083E09180
:101AD0001D06F0911E0680818F7D80831092830801
:101AE00010928208109281081092800810927F084C
:101AF00010927E0885E690E0909385088093840894
:101B000090917408963108F057C021E230E030938C
:101B10007F0820937E0823E630E0309381082093ED
:101B2000800822E430E030938308209382082091DB
:101B30006800983050F031E09E3008F430E081E0E9
:101B400001C0880F3A95EAF701C084E0822B8093A8
:101B50006800983038F09E3040F0963148F020E030
:101B600030E008C02DE630E005C02BE630E002C0D2
:101B70002CE630E030937C0820937B08983030F4DA
:101B800081E001C0880F9A95EAF70EC0292F30E056
:101B90009E3018F42850310902C02E50310981E0DE
:101BA00001C0880F2A95EAF780937D088091840808
:101BB000909185080197F1F78091820890918308B0
:101BC000892B21F180916E0290916F0208E0883696
:101BD0009007E1F0009711F00E9484098091860837
:101BE0008E7F8093860810926D0210926C0288E6B8
:101BF00098E090936F0280936E02E0917B08F091E1
:101C00007C08908180917D08892B80832FB7F89480
:101C10008091700290917102A0917202B091730252
:101C20002FBF80937E0290937F02A0938002B09397
:101C300081020E94A9076093540570935505809313
:101C40005605909357050CE617E032E0E32E31E09D
:101C5000F32ED7018D917D010E94C80A86E491E0A0
:101C60000E940C0C9E012F5F3F4F48E150E068E856
:101C7000C8010E94180884E591E00E941E0B46E00E
:101C800050E0BE016F5F7F4F8BE096E00E94E10A5B
:101C900089E691E00E940C0C8A8190E0982F8827B9
:101CA0002981820F911DF801968385838C8190E0B4
:101CB000982F88272B81820F911D908787838E8193
:101CC00090E0982F88272D81820F911D9287818720
:101CD000888590E0982F88272F81820F911D948707
:101CE00083878A8590E0982F88272985820F911D08
:101CF000968785878C8590E0982F88272B85820F83
:101D0000911D908B87878E8590E0982F88272D8551
:101D1000820F911D928B818B888990E0982F882764
:101D20002F85820F911D948B838B8A8990E0982F49
:101D300088272989820F911D968B858B8C8990E04D
:101D4000982F88272B89820F911D908F878B8E89E2
:101D500090E0982F88272D89820F911D928F818F77
:101D6000888D90E0982F88272F89820F911D948F5E
:101D7000838F8CE591E00E940C0CD80115966D9133
:101D80007C91169780E090E04AE00E94200B87E665
:101D900091E00E940C0BF801878190850E94880BCE
:101DA000D80119968D919C911A970E94880BF80181
:101DB0006385748580E090E04AE00E94200B87E60E
:101DC00091E00E940C0BD8011D968D919C911E975D
:101DD0000E94880BF801878590890E94880BD801A2
:101DE00051968D919C9152970E94880BF80183899E
:101DF00094890E94880BD80155968D919C91569795
:101E00000E94880BF8018789908D0E94880BD80169
:101E100059968D919C915A970E94880BF801838D59
:101E2000948D0E94880B47E564EFC8010E94650805
:101E300040E065EFC8010E946508055C1F4FF8E0AF
:101E400008351F0709F005CF10920101109200011B
:101E500010927502109274028AE691E00E941E0BA5
:101E60000E94A9070091540510915505209156052F
:101E700030915705601B710B820B930B28EE33E0FA
:101E800040E050E00E94B41CCA01B9010E94A00BBE
:101E90000E94A907C0905405D0905505E0905605C2
:101EA000F0905705DC01CB018C199D09AE09BF09E3
:101EB000813E9349A440B10508F0B8C00E94A9072B
:101EC0006C157D058E059F0550F40E94A90711EE43
:101ED000C10E13E9D11E14E0E11EF11C09C00E94DD
:101EE000A90720EEC20E23E9D21E24E0E21EF11C57
:101EF000C61AD70AE80AF90AC0927602D092770287
:101F0000E0927802F0927902609176027091770205
:101F1000809178029091790228EE33E040E050E021
:101F20000E94B41C2B013C018BE791E0ED962FAF92
:101F3000ED97EE963FAFEE97EF964FAFEF97C15804
:101F4000DF4F5883CF57D0400E941E0BED962FAD28
:101F5000ED97EE963FADEE97C9010E94880BED9686
:101F60002FADED97EE963FADEE976901330FEE087A
:101F7000FF080E94A9074B015C01C114D104E104D0
:101F8000F104F1F00E94A907DC01CB01881999093D
:101F9000AA09BB09883E9340A105B10570F331E061
:101FA000C31AD108E108F10848EE840E43E0941EFC
:101FB000A11CB11CC114D104E104F10419F7DDCF57
:101FC000C2010E949E072FC0909359088093580821
:101FD000AC0160E070E0B62FA52F942F8827AA27C8
:101FE000BB27452F562F672F7727842B952BA62BA2
:101FF000B72B80939E0590939F0546E450E06AE5D9
:1020000075E088E698E00E94E10A8091520590917F
:10201000530501968330910514F00C948B1B90931B
:102020005305809352050E944F0516CF0E94A907C1
:10203000609354057093550580935605909357050A
:102040000AEE13E0AC961FAF0EAFAC9724EB36E070
:1020500061963FAF2EAF619785ED482E86E0582EF2
:1020600046E051E023965FAF4EAF239719012196CA
:102070001FAF0EAF219727961CAE1DAE1EAE1FAE32
:10208000279723960EAD1FAD239706501140209140
:10209000000130910101021713070CF0F9C32396D8
:1020A000AEADBFAD23978D912396BFAFAEAF239753
:1020B0000E94C80AC8010E94880B2196EEADFFADB0
:1020C00021970190F081E02DA496FFAFEEAFA49789
:1020D0002196AEADBFAD21971296AD90BD90CD903B
:1020E000DC901597A296ACAEBDAECEAEDFAEA29799
:1020F0001E96AD90BD90CD90DC9051972F96ACAED2
:10210000BDAECEAEDFAE2F97F10185A5813039F09F
:10211000C1010E94E70884E891E00E940C0C8AEC5F
:1021200091E00E941E0B0E94A907D20118960D9102
:102130001D912D913C911B97601B710B820B930B92
:102140000E94A00B0E94A907F2010085118522853B
:1021500033856B017C01C01AD10AE20AF30AD1016E
:102160001F968D919C915097A0E0B0E0C816D906BB
:10217000EA06FB0678F48AE991E00E941E0BC7018B
:10218000B6010E94A00BF101878590898C199D09E9
:102190000E949E07C1010E94930C2B966CAF7DAFED
:1021A0008EAF9FAF2B97D10119968D919C911A9765
:1021B000A0E0B0E0BA2FA92F982F88272F96ACACBB
:1021C000BDACCEACDFAC2F97A81AB90ACA0ADB0A9D
:1021D000ABAABCAACDAADEAAD1011796ED91FC91BB
:1021E000189713968D909C901497940140E050E0BE
:1021F00060E070E080E090E000E10E94FA1DD22EE5
:10220000E32EF42E5BA7662E872E982E792E9F0143
:1022100040E050E06BA97CA98DA99EA90E94611D98
:10222000C22E032F142FB52FF62FE72F5C01A0E04D
:102230000E944F1E54F4AFE70E943A1EC22E032F95
:10224000142FB52FF62FE72F5C012C2D302F412FA7
:102250005B2F6F2F7E2FC50107E00E94131E5901CF
:10226000C42EA52FF62FE72F8C012D2D3E2D4F2D9F
:102270005BA5662D782D892D972DDA2EEF2EFE2E5B
:102280000E94311EAD962FAFAD9762963FAF629719
:1022900063964FAF639764965FAF649765966FAF31
:1022A000659766967FAF669767968FAF67976896D4
:1022B0009FAF6897F101618172810581168180E08D
:1022C00090E020E030E840E050E00E94701DD22E07
:1022D000E32EF42E5BA7662E872E982E792E98017A
:1022E00040E050E06BA97CA98DA99EA90E94611DC8
:1022F000C22E032F142FB52FF62FE72F5C01A0E07D
:102300000E944F1E7CF421503F4F4F4F5F4F6F4F45
:102310007F4F8F4F9F4FC22E032F142FB52FF62FB5
:10232000E72F5C012C2D302F412F5B2F6F2F7E2F3D
:10233000C50108E00E94131E5901C42EA52FF62FD7
:10234000E72F8C012D2D3E2D4F2D5BA5662D782D71
:10235000892D972DDA2EEF2EFE2E0E94311EE1964A
:102360002FAFE197A7963FAFA797E5964FAFE597B9
:102370006A965FAF6A97A9966FAFA997AA967FAF43
:10238000AA97E9968FAFE997EA969FAFEA97D101AE
:102390001B962D913C911C9740E050E06BA97CA9C5
:1023A0008DA99EA90E94611DF22E032F142FB52F17
:1023B000F62FE72FD82EE92EA0E00E944F1E84F4BE
:1023C0002150310940485F4F6F4F7F4F8F4F9F4FD4
:1023D000F22E032F142FB52FF62FE72FD82EE92E2C
:1023E0002F2D302F412F5B2F6F2F7E2F8D2D9E2D68
:1023F00007E10E94131E2BA73CA74DA75EA76FA75E
:1024000078AB89AB9AABCBA4DCA4EDA4FEA4B0ED71
:10241000CB0EB7E0DB1EE11CF11CF101118E128E18
:10242000138E148E158E168E178E10A2D2011C924A
:1024300011961C92119712961C92129713961C9249
:10244000139714961C92149715961C92159716962E
:102450001C92169717961C92B0EDCB16B7E0DB06D0
:10246000E104F1040CF0CEC02BA53CA54DA55EA562
:10247000CA01B9010E94901C9B01AC01A5E0B0E02B
:102480000E94F51C4B015C01B594A7949794879426
:102490008B019C01330F000B102F98010BAB1CAB71
:1024A0002DAB3EAB818E928EA38EB48E058F1BA971
:1024B000168F178F10A38B019C0152E0359527953D
:1024C000179507955A95D1F70BAF1CAF2DAF3EAFBF
:1024D000D2010C9311961C93119712962C9312977C
:1024E00013963C931397EBA91496EC931497FE2F35
:1024F0001596EC9315971696EC9316971796EC9302
:1025000024E2C2162AEFD2062FEFE206F2060CF002
:1025100079C06BA57CA58DA59EA56455724F8F4F84
:102520009F4F9B01AC010E94901C6E966CAF7DAFDB
:102530008EAF9FAF6E97A7E0B0E09B01AC010E9409
:10254000F51C7B018C01AB01BC01770F440B542FB0
:10255000BA014BA75CA76DA77EA79401A5016F2FB9
:102560007F2F862F9F2F57016801EBA4FE2C0E2D85
:102570001E2D0E94311ED10159962C9359975A96BF
:102580003C935A975B964C935B975C965C935C97F5
:102590005D966C935D975E967C935E975F968C9349
:1025A0005F9790969C93ABE0B0E06E962CAD3DADFE
:1025B0004EAD5FAD6E970E94F51C7B018C011595A9
:1025C0000795F794E7943B014C01990C6608762C2B
:1025D00043012BAD3CAD4DAD5EAD6F2F7F2F862FF0
:1025E0009F2F57016801E62CF62C062D162D0E9410
:1025F000311EF201208331834283538364837583C8
:1026000086839783E1962FADE197A7963FADA79775
:10261000E5964FADE5976A965FAD6A97A9966FAD5F
:10262000A997AA967FADAA97E9968FADE997EA9602
:102630009FADEA97D201AC901196BC90119712967B
:10264000CC9012971396DC9013971496EC901497F5
:102650001596FC90159716960C91169717961C9147
:102660000E94461E59016A017B018C012B964CADDC
:102670005DAD6EAD7FAD2B979A01AB0160E070E070
:10268000CB012BAB3CAB4DAB5EAB6FAB78AF89AF47
:102690009AAF60E070E080E090E00E94081DF22EAA
:1026A000032F142FB52FF62FE72FD82EE92EA0E0F9
:1026B0000E944F1E84F421503109404E5F4F6F4FEE
:1026C0007F4F8F4F9F4FF22E032F142FB52FF62FD2
:1026D000E72FD82EE92E2F2D302F412F5B2F6F2F74
:1026E0007E2F8D2D9E2D05E10E94131E39014A017A
:1026F000B62FA72F8BA79BABAD962FADAD9762964C
:102700003FAD629763964FAD639764965FAD6497F4
:1027100065966FAD659766967FAD669767968FAD48
:10272000679768969FAD6897F101A18CB28CC38CB6
:10273000D48CE58CF68C078D10A10E94461E5901A1
:102740006A017B018C019301A4016B2F7A2F8BA569
:102750009BA90E94461E0E94271F20E030E040E017
:1027600058E30E9409209B01AC01A4960EAD1FAD59
:10277000A4970F5F1F4FC101ED962FAFED97EE9617
:102780003FAFEE97EF964FAFEF97C158DF4F5883AB
:10279000CF57D0400E94E7082196AEADBFAD21973C
:1027A00011961C930E93A296ACACBDACCEACDFAC34
:1027B000A2971296AD92BD92CD92DC921597ED96AE
:1027C0002FADED97EE963FADEE97EF964FADEF97AD
:1027D000C158DF4F5881CF57D040FD012683378342
:1027E000408751872B96ACACBDACCEACDFAC2B9701
:1027F0001A96AD92BD92CD92DC921D972F96ACACFD
:10280000BDACCEACDFAC2F971E96AD92BD92CD92F3
:10281000DC92519727966CAD7DAD8EAD9FAD27971D
:10282000ED962FAFED97EE963FAFEE97EF964FAF49
:10283000EF97C158DF4F5883CF57D0400E942F1FCA
:10284000ED962FADED97EE963FADEE97EF964FAD2F
:10285000EF97C158DF4F5881CF57D0400E94851E57
:102860000E94F11E27966CAF7DAF8EAF9FAF27976A
:102870002196EEADFFAD219772962196FFAFEEAF98
:102880002197FEE22F0E311C0EE2400E511CF9CBB7
:10289000032E000C440B550B27966CAD7DAD8EAD11
:1028A0009FAD27970E94D61CE8962CAF3DAF4EAF48
:1028B0005FAFE89722E832E021963FAF2EAF219735
:1028C00042E051E06C965FAF4EAF6C976CE6262EFF
:1028D00067E0362E3CAB2BABA2961CAE1DAE1EAEF7
:1028E0001FAEA2978091520590915305059709F468
:1028F00059C46C96AEADBFAD6C978C910E94C80A5E
:102900009E012B5D3F4F46E050E067EFC1010E9402
:10291000180889A590E0A0E0B0E0AC01BD0194E00A
:10292000440F551F661F771F9A95D1F798A5892FD9
:1029300090E0A0E0B0E02CE0880F991FAA1FBB1F19
:102940002A95D1F7840F951FA61FB71F4AA550E0FF
:1029500060E070E034E076956795579547953A9535
:10296000D1F75C016D01A40EB51EC61ED71EA6963A
:10297000ACAEBDAECEAEDFAEA6978DA190E0A0E02E
:10298000B0E0BC01552744279EA1892F90E0A0E02C
:10299000B0E0BA2FA92F982F8827840F951FA61F64
:1029A000B71F2FA16C017D01C20ED11CE11CF11CCF
:1029B000E096CCAEDDAEEEAEFFAEE097D10115965F
:1029C0008D919C911697A0E0B0E0A696CCACDDACC2
:1029D000EEACFFACA697F4E0F594E794D794C794D7
:1029E000FA95D1F7C81AD90AEA0AFB0AA6964CAD9D
:1029F0005DAD6EAD7FADA69713E075956795579564
:102A000047951A95D1F7880F991FAA1FBB1F9A01E6
:102A1000AB01281B390B4A0B5B0BF101A781B08579
:102A20000E94001D4B015C018BE0B594A794979424
:102A300087948A95D1F7A7019601C701B6010E9434
:102A4000901C9B01AC019CE05595479537952795C7
:102A50009A95D1F7A185B2850E94001D2B013C01FA
:102A60002EE075946794579447942A95D1F7480CB3
:102A7000591C6A1C7B1C4182528263827482A5E0CD
:102A8000B0E0A30192010E94F51CDC01CB0180584B
:102A90009F4FAF4FBF4FA92EBA2ECB2EDD24C7FCC0
:102AA000DA94E496ACAEBDAECEAEDFAEE4977594EC
:102AB0006794579447940AEF501A6108710873019C
:102AC0006201FF0CCC08DC2C76019201A3016C2D75
:102AD0007C2D8C2D9C2D02E00E94131E59016A0151
:102AE0007B018C010E94081D28962FAF28976296C3
:102AF0003FAF629763964FAF639764965FAF6497FB
:102B000065966FAF659766967FAF669767968FAF4E
:102B10006797892ED1015596BC916A96BFAF6A9787
:102B2000F1019688A388B4886996BFAEAEAE699766
:102B3000C188D288A896DFAECEAEA897E584F68489
:102B4000FCA6EBA6F089D1011F96BC91BBAFEF2F7D
:102B5000EE0FEE0B0DE00E94131E59016A017B017E
:102B60008C012B2F3F2F4E2F5E2F6E2F7E2F8E2FFF
:102B70009E2F0E94081D03E00E94131EB22EC32E3A
:102B8000D42EE52E6BAF22967FAF229724968FAF7F
:102B900024972C969FAF2C97EBA5FCA59F01FF0FC8
:102BA000440B550BC301B2010E94611D01E00E945C
:102BB000131EA22EB32FA42FF52FE62FF72E8C0174
:102BC0002B2D3C2D4D2D5E2D6BAD22967FAD22978A
:102BD00024968FAD24972C969FAD2C97BB2ECA2E92
:102BE000DF2EEE2E0E94311E02E10E94131E30588D
:102BF0004F4F5F4F6F4F7F4F8F4F9F4FD1011B96AE
:102C0000ED91FC911C975F01C12CD12CE12CF12C92
:102C10008701EBA7BCA6CDA6DEA6EFA6F8AA09AB56
:102C20001AABC12CD12CE12CF12C00E010E00E9459
:102C3000081D0FE00E94131E2BAF22963FAF229774
:102C400024964FAF24972C965FAF2C97A0E00E945C
:102C50004F1E09F466C228962FAD289762963FADA5
:102C6000629763964FAD639764965FAD6497659680
:102C70006FAD659766967FAD669767968FAD6797E0
:102C8000982D0BE00E94131E6A96AFAC6A97192D1F
:102C9000110F110BB92CC12ED12EE12EF12E012FC7
:102CA0000E94081DD22EE32EF42E152F6BA7289616
:102CB0007FAF28974C0169966EAD7FAD69979B01F8
:102CC000770F440B550BC301B2010E94611D01E057
:102CD0000E94FA1D5901C42EB52FA62FF72F082FD9
:102CE000E92F2D2D3E2D4F2D512F6BA528967FAD11
:102CF0002897C401DB2EEA2EFF2E1E2F0E94311EC4
:102D000002E00E94131E28962FAF289762963FAFCD
:102D1000629763964FAF6397B52FA62FF72FE82FD3
:102D200064969FAF6497E0960CAD1DAD2EAD3FADA0
:102D3000E09748015901C12CD12C760120E030E008
:102D400040E051E060E070E080E090E09CA6ADA63D
:102D5000BEA6CFA6D8AAE9AAFAAA5401CDA4DEA499
:102D6000E12CF12C00E010E00E94461E2BA7659696
:102D70003FAF659766964FAF669767965FAF679769
:102D800068966FAF68976A967FAF6A97A9968FAF7C
:102D9000A997AA969FAFAA97A8962EAD3FADA897E0
:102DA000A901330F660B770B8A01FF24EE2427015C
:102DB0003801770C4408542C320128962FAD2897FF
:102DC00062963FAD629763964FAD63975B2F6A2F14
:102DD0007F2F8E2F64969FAD649757016801E42C76
:102DE000F42C042D142D0E94311E08E00E94131EA5
:102DF00059016A017B018C012BA565963FAD659752
:102E000066964FAD669767965FAD679768966FADAC
:102E100068976A967FAD6A97A9968FADA997AA968B
:102E20009FADAA970E94461E722E832E942EB52F18
:102E3000A62FF72FE82F592E03E00E94FA1DA72C8A
:102E4000B82CC92CDB2EEA2EFF2E0E2F152D0E943A
:102E5000461E59016A017B01682E192F03E00E946A
:102E6000FA1D062D0E94461E03E00E94FA1DA72CA3
:102E7000B82CC92CDB2EEA2EFF2E0E2F152D0E940A
:102E8000461E02E00E94FA1D0E2F0E94461E01E01F
:102E90000E94FA1D0E2F0E94461E39014A01B62FCC
:102EA000A72FF82FE92F04E00E94151E2F3F3F4F58
:102EB0004F4F5F47610571058105910509F0D0F419
:102EC0009301A4016B2F7A2F8F2F9E2F01E00E9478
:102ED000FA1DABAC2296BFAC22972496CFAC2497B8
:102EE0002C96DFAC2C97E12CF12C00E010E00E9436
:102EF0009D1D19C0ABAC2296BFAC22972496CFACD7
:102F000024972C96DFAC2C97E12CF12C00E010E0FC
:102F10009301A4016B2F7A2F8F2F9E2F0E949D1D4E
:102F200001E00E94FA1D2BA73BAF22964FAF2297DC
:102F300024965FAF24972C966FAF2C9728967FAF7F
:102F400028972C012BA53BAD22964FAD22972496B6
:102F50005FAD24972C966FAD2C9728967FAD289760
:102F600007E00E94151E62962FAF629763963FAFEF
:102F7000639764964FAF649765965FAF65973B0123
:102F8000882E66969FAF66972BA53BAD22964FADD8
:102F9000229724965FAD24972C966FAD2C97289698
:102FA0007FAD2897C20106E00E94151ED1015A96F6
:102FB000BC905A975996AC901B2D110F110BC12E36
:102FC000D12EE12EF12E012F0E94081DA7962FAFC2
:102FD000A7976A963FAF6A97A9964FAFA997AA9607
:102FE0005FAFAA97E9966FAFE997EA967FAFEA9746
:102FF000EB968FAFEB97EC969FAFEC97F101F48DCA
:103000006796FFAF6797D1015B96BC916896BFAF9B
:1030100068979F2E990C99086296AFAC6297639659
:10302000BFAC63976496CFAC64976596DFAC659749
:103030007301082D66961FAD66979501A601B30131
:10304000882D912F0E94081D0DE00E94151E590128
:103050006A017B018C0168962FAD689767963FAD3A
:103060006797492D592D692D792D892D992D0E940C
:10307000081D0CE00E94131E39014A01B62FA72F2C
:10308000F82FE92FA7962FADA7976A963FAD6A97BD
:10309000A9964FADA997AA965FADAA97E9966FAD8D
:1030A000E997EA967FADEA97EB968FADEB97EC96B2
:1030B0009FADEC970DE00E94131E59016A017B0140
:1030C0008C019301A4016B2F7A2F8F2F9E2F0E94CA
:1030D000311EF101B08CA7881B2D110F110BC12ED1
:1030E000D12EE12EF12E012F0E94311E59016A01CD
:1030F0007B018C012BA53BAD22964FAD22972496E8
:103100005FAD24972C966FAD2C9728967FAD2897AE
:10311000C2010E94311E722F632F942F852F9B01B5
:1031200004C030E020E090E080E0F101458D568D54
:10313000BA016F5F7F4F768F658FE496ACACBDAC04
:10314000CEACDFACE497ABA9BCA9AD92BD92CD9259
:10315000DC92139714963C93149715962C9315971D
:1031600016969C93169717968C93179719965C93BF
:103170004E931897E096ACACBDACCEACDFACE0970C
:103180001A96AD92BD92CD92DC921D97A696ACACEC
:10319000BDACCEACDFACA6971E96AD92BD92CD92E3
:1031A000DC925197EBA9FCA984819581A681B78116
:1031B000A296ACACBDACCEACDFACA297A80EB91E4B
:1031C000CA1EDB1EA296ACAEBDAECEAEDFAEA297DF
:1031D0007296FCABEBAB0BE3200E311C6C962EAD64
:1031E0003FAD6C972F5F3F4F6C963FAF2EAF6C9704
:1031F000EA5CF24009F076CB06E011E0A2E1BA2EDB
:103200002091000130910101C80186509140821740
:1032100093070CF099C0D8018D918D010E94C80AC6
:10322000AC96EEADFFADAC97DE0153968B2D0190C1
:103230000D928A95E1F76196EEADFFAD619785A598
:10324000823039F0CF010E94E7088CEA91E00E94B9
:103250000C0C0E94A9076196AEADBFAD619799961F
:10326000CD90DD90ED90FC909C979B01AC012C19CA
:103270003D094E095F0969017A0185EC91E00E94E0
:103280001E0B0E94A9076196AEADBFAD61979996DE
:103290004D905D906D907C909C976419750986099E
:1032A00097090E94A00B6196EEADFFAD61978189F1
:1032B0009289AC0160E070E0C416D506E606F70618
:1032C00020F48C199D090E949E0761968EAD9FADDA
:1032D00061970E94930C6B017C0161968EAD9FAD4E
:1032E00061970E94E708C9A2DAA2EBA2FCA2FE0144
:1032F0007396DE0111968B2D01900D928A95E1F760
:10330000CF86D88AE98AFA8AFE013196AC96AEADAC
:10331000BFADAC978B2D01900D928A95E1F7AC96DD
:103320002EAD3FADAC972E5E3F4FAC963FAF2EAF6C
:10333000AC9761964EAD5FAD6197425D5F4F619610
:103340005FAF4EAF61975CCF89E691E00E940C0CB5
:1033500080915205909153050597A1F087ED91E07A
:103360000E941E0BA2966CAD7DAD8EAD9FADA29757
:1033700020E430E040E050E00E94D61CCA01B901D0
:103380000E947F0C8CED91E00E941E0BE8966CADC4
:103390007DAD8EAD9FADE8970E947F0C8FB7F894FE
:1033A00040917002509171026091720270917302AB
:1033B0008FBF80917E0290917F02A0918002B09198
:1033C0008102481B590B6A0B7B0B80E090E00E9446
:1033D0005E0C2FB7F8948091700290917102A091C9
:1033E0007202B09173022FBF40917E0250917F0212
:1033F0006091800270918102841B950BA60BB70B24
:1034000080937A0290937B02A0937C02B0937D021A
:1034100001E010E078015FEFE51AF50A2196AEAD04
:10342000BFAD21974D915D916D917C91C8010E9436
:103430005E0C0E5F1F4F2196EEADFFAD21974481CC
:10344000558166817781C7010E945E0C21962EAD61
:103450003FAD21972E5E3F4F21963FAF2EAF219774
:1034600009301105B9F6E4E3EE2EE4E0FE2EF4E0B7
:10347000CF2ED12C80910001909101010496C816A5
:10348000D90614F5D7016D917D918D919C910E9483
:10349000F11EAB01BC01C8010E945E0CF701648102
:1034A0007581868197810E94F11EAB01BC01C80124
:1034B00001960E5F1F4F0E945E0CFFEFCF1ADF0ACE
:1034C00022E1E20EF11CD6CF4AE555E08FEF9FEFE7
:1034D00024E430E0FA01BA0163707727672BB1F07A
:1034E0002115310599F0A92FBB274F5F5F4F6081F0
:1034F0009927FC01E627EE0FFF1FEA57FF4F859142
:1035000094918A279B2721503109E4CFDA01890160
:103510000031110508F4E3C0005111098D909D9010
:10352000AD90BC90139788259925FC01FF27EE0FDD
:10353000FF1FEA57F94FC590D490E92FFF27EE0FF0
:10354000FF1FEA57FB4F659174914A2C512C612C57
:10355000712C8FEF581A680A780AF201EE0FFF1FDC
:10356000EA57FF4F859194918B2C9924AA24BB2470
:10357000F401EE0FFF1FEA57FF4FE590F490149609
:103580008D909D90AD90BC9017976C257D256825FA
:10359000792586279727E826F926F701FF27EE0FDA
:1035A000FF1FEA57F94FC590D490EF2DFF27EE0F7C
:1035B000FF1FEA57FB4F659174914A2C512C612CE7
:1035C000712C9FEF591A690A790AF201EE0FFF1F59
:1035D000EA57FF4F859194918B2C9924AA24BB2400
:1035E000F401EE0FFF1FEA57FF4FE590F490189695
:1035F0008D909D90AD90BC901B976C257D25682586
:10360000792586279727E826F926F701FF27EE0F69
:10361000FF1FEA57F94FC590D490EF2DFF27EE0F0B
:10362000FF1FEA57FB4F659174914A2C512C612C76
:10363000712CEFEF5E1A6E0A7E0AF201EE0FFF1F89
:10364000EA57FF4F859194918B2C9924AA24BB248F
:10365000F401EE0FFF1FEA57FF4FE590F4901C9620
:103660008D909D90AD90BC901F976C257D25682511
:103670007925862797278E259F25FC01FF27EE0FAA
:10368000FF1FEA57F94FE590F490E92FFF27EE0F5F
:10369000FF1FEA57FB4F659174914A2C512C612C06
:1036A000712CFFEF5F1A6F0A7F0AF201EE0FFF1F06
:1036B000EA57FF4F859194918B2C9924AA24BB241F
:1036C000F401EE0FFF1FEA57FF4FC590D490E62696
:1036D000F7268E259F258C259D25509619CFD9013B
:1036E000A07FA40FB51F2F7033272A0F3B1FA217EF
:1036F000B30711F40C94E40F092F11274D9199276A
:10370000FC01E427EE0FFF1FEA57FF4F85919491CC
:1037100080279127ECCF10925305109252050C94FC
:10372000131010920E0610920D0688EE93E0A0E0A2
:10373000B0E080930F0690931006A0931106B0930B
:1037400012062EE031E030930C0620930B0625EC98
:1037500030E0309318062093170624EC30E03093C5
:103760001A062093190620EC30E030931C062093B3
:103770001B0621EC30E030931E0620931D0622EC40
:1037800030E03093200620931F0626EC30E0309383
:1037900022062093210610922406109225061092EC
:1037A0002606109227061092AB061092AA06809366
:1037B000AC069093AD06A093AE06B093AF062EE193
:1037C00031E03093A9062093A80610926B0810925E
:1037D0006A0880936C0890936D08A0936E08B0936C
:1037E0006F088EE291E090936908809368081092C8
:1037F0007F0810927E081092810810928008109223
:1038000083081092820810928508109284086091B3
:1038100086086E7F6D7F609386086695617081E093
:10382000682789E00E94160761E089E00E9462072C
:10383000E7EBF8E0E491E0937808E3EAF8E0E4915C
:10384000F0E0EE0FFF1FEA57F74F859194919093A8
:103850007A088093790860E088E00E94620780918E
:10386000860881FD04C061E088E00E94160788E0B8
:1038700080937408E6EBF8E0E491E0937508E2EADF
:10388000F8E0E491F0E0EE0FFF1FE057F74F85916D
:103890009491909377088093760860E086E00E9488
:1038A0006207E4EBF8E0E491E0935A08E0EAF8E01C
:1038B000E491F0E0EE0FFF1FE057F74F85919491F0
:1038C00090935C0880935B081092650810926708DB
:1038D00010926608E5E6F8E0129288E0ED35F80708
:1038E000D9F767E78CE697E00E94850866E787EAE4
:1038F00097E00E94850867E782EE97E00E948508BE
:1039000066E78DE198E00E94850897E79093B406FA
:1039100086E78093E2069093100780933E07089510
:10392000DB018F939F930E94F51CBF91AF91A29FE3
:10393000800D911DA39F900DB29F900D11240895AD
:1039400097FB072E16F4009407D077FD09D00E944C
:103950005B1E07FC05D03EF4909581959F4F08951E
:10396000709561957F4F0895A1E21A2EAA1BBB1B8B
:10397000FD010DC0AA1FBB1FEE1FFF1FA217B3073B
:10398000E407F50720F0A21BB30BE40BF50B661F51
:10399000771F881F991F1A9469F760957095809515
:1039A00090959B01AC01BD01CF010895052E97FBB9
:1039B0001EF400940E94ED1C57FD07D00E94B41C19
:1039C00007FC03D04EF40C94ED1C509540953095B7
:1039D00021953F4F4F4F5F4F08959095809570957B
:1039E00061957F4F8F4F9F4F08950E94751EA59F31
:1039F000900DB49F900DA49F800D911D11240895EA
:103A0000B7FF0C94F51C0E94F51C821B930B0895C4
:103A1000DF93CF931F930F939A9DF02D219FF00D6D
:103A20008B9DF00D8A9DE02DF10D039FF00D029FFF
:103A3000E00DF11D4E9DE00DF11D5E9DF00D4F9DC1
:103A4000F00D7F936F93BF92AF925F934F93D50129
:103A50000E94751E8B01AC01D7010E94751EEB01FF
:103A6000E80FF91FD6010E94581D2F913F91D601F2
:103A70000E94751EC60FD71FE81FF91FAF91BF9197
:103A80000E94581D2F913F910E94751EC60FD71F8F
:103A9000E81FF91FD6010E94751EE60FF71F980157
:103AA000BE01CF0111240F911F91CF91DF91089595
:103AB0000E94751E460F571FC81FD91F08F4319664
:103AC000089597FB57FF0C94711D9F938F930E944D
:103AD000711D6E1B7F0BAF91BF918A0B9B0B0895DD
:103AE000E894DF93CF93FC01DB010E94751E7F9366
:103AF0006F93E9019A01AC01BF93AF933F932F936A
:103B0000DF010E94751E26F46C1B7D0B820B930B4C
:103B10009E01EB01FC010E94581DAF91BF912F91B6
:103B20003F910E94581DBE01CF01F9012F913F9195
:103B3000CF91DF910895689401C0E8948F929F928D
:103B4000CF93DF930E94A91DDF91CF919F908F901B
:103B5000089588249924F401E401B0E49F93AA27EE
:103B60009A158B049C04ED05FE05CF05D007A1072F
:103B700098F4AD2FDC2FCF2FFE2FE92D982C892E16
:103B8000982F872F762F652F542F432F322F2227E0
:103B9000B85031F7BF9127C01B2EBF91BB27220F12
:103BA000331F441F551F661F771F881F991F881CCE
:103BB000991CEE1FFF1FCC1FDD1FAA1FBB1F8A14FD
:103BC0009B04EC05FD05CE05DF05A007B10748F015
:103BD0008A189B08EC09FD09CE09DF09A00BB10B7F
:103BE00021601A94E1F62EF49401AF01BE01CD01DB
:103BF000000C08950F93083090F0982F872F762FA0
:103C0000652F542F432F322F22270850F4CF220F35
:103C1000331F441F551F661F771F881F991F0A9562
:103C2000B2F70F91089597FB10F8169400080F93C0
:103C3000083098F00850232F342F452F562F672F28
:103C4000782F892F902DF4CF0594979587957795A8
:103C5000679557954795379527950A95AAF70F9138
:103C600008952A0D3B1D4C1D5D1D6E1D7F1D801F7F
:103C7000911F08950024A7FD00942A0F301D401DB8
:103C8000501D601D701D801D901D08952A193B094F
:103C90004C095D096E097F09800B910B0895002482
:103CA000A7FD00942A1730054005500560057005F2
:103CB000800590050895AA1BBB1B51E107C0AA1FF0
:103CC000BB1FA617B70710F0A61BB70B881F991FBD
:103CD0005A95A9F780959095BC01CD010895EE0FF6
:103CE000FF1F0590F491E02D0994A29FB001B39FAE
:103CF000C001A39F700D811D1124911DB29F700DF5
:103D0000811D1124911D08955058BB27AA270E9498
:103D10009C1E0C94CF1F0E94C11F38F00E94C81F28
:103D200020F039F49F3F19F426F40C94AE1F0EF4E2
:103D3000E095E7FB0C94A81FE92F0E94E01F58F3C1
:103D4000BA17620773078407950720F079F4A6F580
:103D50000C9402200EF4E0950B2EBA2FA02D0B012F
:103D6000B90190010C01CA01A0011124FF27591BC0
:103D700099F0593F50F4503E68F11A16F040A22FC6
:103D8000232F342F4427585FF3CF46953795279537
:103D9000A795F0405395C9F77EF41F16BA0B620B36
:103DA000730B840BBAF09150A1F0FF0FBB1F661F7D
:103DB000771F881FC2F70EC0BA0F621F731F841FC0
:103DC00048F4879577956795B795F7959E3F08F0E6
:103DD000B0CF9395880F08F09927EE0F97958795A8
:103DE00008950E94F81E6894B1110C940320089560
:103DF0000E94E81F88F09F5798F0B92F9927B75174
:103E0000B0F0E1F0660F771F881F991F1AF0BA957E
:103E1000C9F714C0B13091F00E940220B1E00895BA
:103E20000C940220672F782F8827B85F39F0B93FAC
:103E3000CCF3869577956795B395D9F73EF4909531
:103E40008095709561957F4F8F4F9F4F089597FB99
:103E500016F40E94B11F0C946B1FE89409C097FBE5
:103E60003EF490958095709561957F4F8F4F9F4F51
:103E70009923A9F0F92F96E9BB279395F695879595
:103E800077956795B795F111F8CFFAF4BB0F11F458
:103E900060FF1BC06F5F7F4F8F4F9F4F16C08823FF
:103EA00011F096E911C0772321F09EE8872F762F35
:103EB00005C0662371F096E8862F70E060E02AF076
:103EC0009A95660F771F881FDAF7880F9695879562
:103ED00097F90895E894F92F96EBFF2381F01216D5
:103EE00013061406440B9395F69587957795679579
:103EF00057954040FF23B9F71BC0992708958823A1
:103F000051F49850D2F7872B762F652F542F432FDB
:103F1000322F20E0B1F3121613061406440B882347
:103F20003AF09A95440F551F661F771F881FCAF7EE
:103F300055234AF4440F551F11F460FF04C06F5F0E
:103F40007F4F8F4F9F4F880F9695879597F90895CC
:103F500097F99F6780E870E060E008959FEF80EC3C
:103F60000895909580957095609550954095309501
:103F700021953F4F4F4F5F4F6F4F7F4F8F4F9F4F59
:103F8000089500240A9416161706180609060895BF
:103F900000240A9412161306140605060895092E25
:103FA0000394000C11F4882352F0BB0F40F4BF2B94
:103FB00011F460FF04C06F5F7F4F8F4F9F4F0895D4
:103FC00057FD9058440F551F59F05F3F71F04795CA
:103FD000880F97FB991F61F09F3F79F087950895AF
:103FE000121613061406551FF2CF4695F1DF08C0CE
:103FF000161617061806991FF1CF869571056105EB
:1040000008940895E894BB2766277727CB0197F992
:1040100008950E941C200C94CF1F0E94C11F38F0ED
:104020000E94C81F20F0952311F00C94A81F0C9437
:10403000AE1F11240C9403200E94E01F70F3959F83
:10404000C1F3950F50E0551F629FF001729FBB278F
:10405000F00DB11D639FAA27F00DB11DAA1F649F2B
:104060006627B00DA11D661F829F2227B00DA11DDE
:10407000621F739FB00DA11D621F839FA00D611D64
:10408000221F749F3327A00D611D231F849F600D85
:10409000211D822F762F6A2F11249F5750409AF0AE
:1040A000F1F088234AF0EE0FFF1FBB1F661F771F3A
:1040B000881F91505040A9F79E3F510580F00C9405
:1040C000A81F0C9403205F3FE4F3983ED4F3869539
:1040D00077956795B795F795E7959F5FC1F7FE2BA5
:1040E000880F911D9695879597F9089581E090E046
:1040F000F8940C947B2014E0C2E6D4E004C0FE01E6
:104100000E946F1E2196C336D107C9F7F894FFCFDE
:104110000400000001010202030300000000E604A5
:10412000E10AAF048D04A1042D05000000008D06F6
:104130005D06590549063A063906000000007A0571
:10414000E10ACE05E60561057905426567696E20DD
:10415000736574757000496E69742043616C204CFE
:104160006F6F70006243616C203D200043616C20E2
:1041700076616C756573000D0A004C6F6F7020746A
:10418000696D65207761733A20200044656C617920
:1041900020203A00507265737375726520617574E2
:1041A0006F2D7265717565737400507265737375E8
:1041B00072652064656C6179203D200054656D70E6
:1041C00065726174757265206175746F2D726571A9
:1041D000756573740074656D702074696D65206415
:1041E000696666203D2000626D703A006D733A008A
:00000001FF
